:10108400D3EF9400EE9400401600000075080B7531
:0F10940009BED509FDD508FAEF1F70E41E80E1F3
:0110A300222A
:1011B200D3EF9400EE9400400A000000EF1F70F09D
:0411C2001E80ED227C
:10111D0043BC807F0A7E0012108453DEFC43DE0C3C
:0A112D0053BCDF53A8DF43DE20228D
:10104200E4FDFC53BCF0EF444042BCE5BC30E5FBA0
:1010520053BCDF53BCBFAFBDEFADBEFCEDAE04FF72
:01106200226B
:0D000E00E4F5C7F5C5F5C675C380F5C4223D
:1010E30075C78075F50C75C5038FC4EEF5C375C65A
:0E10F3005A75C6A57F0A7E0012108402000EF8
:1010200075C78075F50C75C5028FC4EEF5C3AF05A5
:101030008FC275C65A75C6A57F0A7E00121084023B
:02104000000EA0
:1010A40075C78075F50C75C5018FC4EEF5C375C69B
:1010B4005A75C6A57F0A7E00121084AFC202000EC4
:1010C400759418E4F593F5927591F875960EF59567
:0F10D40075B2C2F5B175B48EF5B3F5CAF5C92280
:100FFC003D3D3D3D3D3D3D3D3D3D20636F646520A8
:10100C007374617274203D3D3D3D3D3D3D3D3D3D24
:04101C00200D0A0099
:100F3B0043BA801210C412115112111D12119C12BE
:100F4B00116A1211DA120EFE1211FD1200061212A4
:100F5B00261211EDD2AF1209DE7BFF7A0F79FC124C
:0A0F6B000109120DAA120FD580F83B
:100EFE0043BA8090FEB6E0F090FEEDE4F090FEEA8C
:100F0E007470F0A3F090FEED7411F090FEF2740484
:100F1E00F0A37451F090FEF0E4F0A37431F090FE63
:0D0F2E00B5E04450F090FEE0E04401F022F8
:05000600D288D2A822FF
:1011DA00438E805389F0758ACD758CD4C28DD28C9A
:0311EA00D2A92265
:0A122600538EBF53890F4389102235
:1011ED0053D1FDE4F5D575D4DC43D10843AF2022AE
:1011510053A23F759850438E01438E0475D7E875AD
:09116100D6FF438E1075A8102280
:10119C0075841043844043D12075D3E875D2FF4346
:0611AC00D18043AF1022C8
:040624004101070089
:10116A00E4900000F0900081F0900101F0F0A3F00B
:09117A00A3F0A3F0A3F0C284224B
:03009300020C3A22
:100C3A00C0E0C083C082C0D075D000C007E5843050
:100C4A00E12A5384FD900101E0601AA3E0FF04F059
:100C5A0074012FF582E43400F583E0F585900101F3
:100C6A00E014F08007900102E4F0C284E58430E0E9
:100C7A00335384FE900000E07021900105E0D39484
:100C8A00804002E4F0900105E02481F582E434001A
:100C9A00F583E585F0900105E004F0900103E4F0A6
:0F0CAA00A37405F0D007D0D0D082D083D0E03231
:03000B00020EBF23
:100EBF00C0E0C083C082C0D0900103E07002A3E005
:100ECF006024900104E024FFF0900103E034FFF070
:100EDF00E07002A3E0700F900105E0D3940040068C
:0F0EEF009000007401F0D0D0D082D083D0E032D8
:03002300021101C6
:10110100C0E0C083C082309907C299900107E4F022
:0C111100309802C298D082D083D0E03227
:0B121B008F99900107E070FA04F022A8
:1009DE007F107E001210A4EFF46003020A859002CD
:1009EE00367407F0E4A3F0A37403F0A37432F0A3FB
:1009FE007450F0900236E0900244F0900237E0908E
:100A0E000245F0900238E0900246F0900239E090F4
:100A1E000247F0A37450F0E490020CF090020CE048
:100A2E00FFC394055048EF0425E0A3E4F090020BB9
:100A3E00F090020DE0FF7E001210E390020DE0FF39
:100A4E007E0090020BE02444F582E43402F583E04C
:100A5E00FD12102090020DE004F090020BE004F065
:100A6E00E0C3940540CB90020CE004F080AE9002FF
:0A0A7E003B7401F0021137120CB9AD
:010A8800224B
:10113700E4FFFE1210E390023BE0FDE4FFFE121015
:0A114700207D587F107E000210206A
:100D3200900236E0900244F0900237E0900245F0D3
:100D4200900238E0900246F0900239E0900247F0BB
:100D520090023AE0900248F090023BE075F002A463
:100D62007F00FE90020EF0A3EFF01210E3E4900277
:100D72000DF090020DE0FDC39405502BA3E0FEA3FD
:100D8200E0FF74442DF582E43402F583E0FD121095
:100D92002090020FE004F0700690020EE004F09042
:070DA200020DE004F080CB1C
:010DA9002227
:100CB900E4FFFE1210A490023BEFF0E075F002A4ED
:100CC90090020FF0A3E4F090020EF090020EE0FD06
:100CD900C39405502BA3E0FEA3E0FF74442DF582D5
:100CE900E43402F583E0FD121020900210E004F0D4
:100CF900700690020FE004F090020EE004F080CB41
:100D0900900244E0900236F0900245E0900237F0FC
:100D1900900246E0900238F0900247E0900239F0E4
:080D2900900248E090023AF04C
:010D3100229F
:1006280060FC010F03D503FA04200446046D049509
:1006380004BE04E70510053A0565059005BB05E706
:100648000613063F066C069906C606F30720074DF3
:10065800077A07A707D40800082D0859088508B1A4
:1006680008DC09070931095B098409AD09D609FDC8
:100678000A240A4B0A710A960ABB0ADE0B020B24EB
:100688000B460B670B870BA70BC60BE40C020C1E63
:100698000C3A0C560C700C8A0CA40CBC0CD40CEC48
:1006A8000D020D190D2E0D430D570D6B0D7E0D907E
:1006B8000DA20DB40DC50DD50DE50DF50E040E12E8
:1006C8000E200E2E0E3B0E480E550E610E6D0E7846
:1006D8000E830E8D0E970EA10EAB0EB40EBD0EC678
:1006E8000ECF0ED70EDF0EE70EEF0EF60EFD0F043F
:1006F8000F0B0F110F170F1D0F230F290F2F0F357A
:100708000F3A0F3F0F440F490F4E0F530F580F5C0E
:100718000F600F650F690F6D0F710F740F780F7CE5
:0E0BAF0090020FEBF0A3EAF0A3E9F0A3EDF043
:100BBD00E4900216F0A3F0900215F0900212E014EA
:100BCD00FF900215E0FEC39F505A90020FE0FBA369
:100BDD00E0FAA3E0F975F002EEA4F58285F0831238
:100BED000567FF900213E0FCA3E0FDC39FEC95F0B9
:100BFD00402AA3E02401FFE433FEEF25E0FFEE33AE
:100C0D00FE8F828E83120567FFC3ED9FEC95F0502A
:100C1D000B900215E0FFA3E4F0A3EFF0900215E0B6
:0C0C2D0004F08097900216E0FEA3E0FFA8
:010C39002298
:050E180090020BEFF059
:100E1D00E490020DF0A3F090020CF090020BE0FFB5
:100E2D0012104290020EE02FF090020DE03EF09075
:100E3D00020CE004F0E0C3940A40E090020DE0FEE5
:100E4D00A3E0FF7C007D0A12051290020DEEF0A3C7
:100E5D00EFF07B017A01790F90020DE0FFA3E09096
:0C0E6D000213CFF0A3EFF07D7E020BAF6C
:1011FD00E4900233F090010CF0D2C3D2C2D2C122DE
:03000300020FA742
:100FA700C0E0C083C082C0D075D000C006900234B4
:100FB700E0FEA3E0F58BEEF58D9002337401F0D2DD
:0E0FC7008ED2ABD006D0D0D082D083D0E03214
:03001B00020F755C
:100F7500C0E0C083C082C0D0900233E0B40110E469
:100F8500F0C2C3C2C2C2C1758BF7758DFF800AD28C
:100F9500C3D2C2D2C1C28EC2ABD0D0D082D083D090
:020FA500E03238
:1011C600EF75F05AA424B4FEE5F034DC900234F056
:0411D600A3CEF02292
:10118300AD07ED75F0B8A4FFAEF090FEF9EEF0A355
:09119300EFF0A3EEF0A3EFF0224F
:10106300900237E0B4011190023CE090FEFDB40120
:10107300028008E4F0C2A82290FEFD7480F0D2A89A
:01108300224A
:100FD50090010CE0B4011F7F04120E18900108EF78
:100FE500F090023AE0FEEFC39E4004D2B68002C202
:070FF500B6E490010CF022AC
:0507280042024900003F
:03009B00020E79D9
:060E7900C0E0C083C0824E
:100E7F0090023C3093057401F08002E4F090010C75
:100E8F00E0702690024AE004F07006900249E004F8
:100E9F00F0900249E07004A3E06464700C90010CC0
:090EAF0004F0900249E4F0A3F004
:070EB800D082D083D0E032AC
:100DAA00900000E064017065F07B017A007981901F
:100DBA000105E024FEFD120026AD07AC06900105F0
:100DCA00E0FB247FF582E43400F583E0FE74802B97
:100DDA00F582E43400F583E0FBEBFFE4900105F0D3
:100DEA00EDB50729ECB50625900081E0B4DC1EA319
:100DFA00E024FC600F24FE600E24F6600D240D70C2
:0D0E0A000C020823020A8902120D12072EA5
:010E170022B8
:100823009002407403F0900085A3E025E090023F1E
:10083300F0900083E0FEA3E0FDEDFF900242EEF0B6
:10084300A3EFF090000174DCF0A37403F090023F77
:10085300E0900003F090023FE0F9C313FD900243E0
:10086300E02DFD900242E03400FCC3EF9DEE9C407E
:100873000302090EE490023EF090023DF0EE705345
:10088300EF14601A14602114602814602F1460366A
:100893002405703FE490023DF09002368030E490EE
:1008A300023DF09002378026E490023DF09002383A
:1008B300801CE490023DF09002398012E490023DE6
:1008C300F090023A8008E490023DF090023BE09001
:1008D300023EF090023DE0FD900240E0FC04F07423
:1008E300012CF582E43400F583EDF090023EE0FD47
:1008F300900240E0FC04F074012CF582E43400F52E
:1009030083EDF00FBF00010E020858E92403FD7FB9
:0409130003020917BB
:100A89009002407403F0900085A3E025E090023FB6
:100A9900F0900083E0FEA3E0FDEDFF900242EEF04E
:100AA900A3EFF090000174DCF0A37404F090023F0E
:100AB900E0900003F090023FE0F9C313FD90024378
:100AC900E02DFD900242E03400FCC3EF9DEE9C5006
:100AD90040E490023EF090023DF090023DE0FD902E
:100AE9000240E0FC04F074012CF582E43400F58343
:100AF900EDF090023EE0FD900240E0FC04F074014C
:100B09002CF582E43400F583EDF00FBF00010E806F
:0A0B1900A4E92403FD7F040209177C
:0E120D00900084E07D087F06120917020D3262
:10072E009002417407F0900087E090023FF0900035
:10073E0083E0FEA3E0FDEDFF900242EEF0A3EFF0AA
:10074E0090020BEEF0A3EFF090023FE0C313FF9088
:10075E000243E02FFF900242E03400FE90020BE0D5
:10076E00FCA3E0FDC39FEC9E4003020819900241DA
:10077E00E02481F582E43400F583E090023DF090B0
:10078E000241E02482F582E43400F583E090023EDB
:10079E00F0EC705CED14601A14602414602F146079
:1007AE003A1460412405704890023EE0900236F003
:1007BE00803E90023EE0900237F01210638031903E
:1007CE00023EE0FF900238F0121183802390023E29
:1007DE00E0FF900239F01211C6801590023EE090B3
:1007EE00023AF0800B90023EE090023BF01211377D
:1007FE00900241E02402F090020CE004F06003024B
:10080E00075690020BE004F00207567D087F101287
:05081E000917020D3274
:0509170090020DEDF05F
:10091C00EF24FC600F24FE604F24F66064240D600D
:10092C00030209CB7B017A00790190020DE0FD12E4
:10093C00002690020EEEF0A3EFF090020EE0FEA364
:10094C00E0FD90020DE0FC2402F582E43400F58316
:10095C00EDF0EEFF74012CF582E43400F583EFF03A
:10096C0090020DE02402805378017C007D017B0114
:10097C007A0079817E007F081204D390020DE0800A
:10098C003A78017C007D017B017A0079817E007FC1
:10099C00061204D37B017A0079017D0612002690A1
:1009AC00020EEEF0A3EFF090020EE0FEA3E090003A
:1009BC0008F0EE900007F090020DE0900101F0D2EB
:1009CC00847F027E001210844384027F017E000229
:0209DC00108485
:05002600900210EDF056
:10002B0074FFA3F0A3F01204F9FF900211E0F0A308
:10003B00E06FF0E4FD900211E0FEA3E0FF30E01969
:10004B00EEC313FEEF13FFEE64A0FEEF6401FF900F
:10005B000211EEF0A3EFF0800B900211E0C313F04E
:10006B00A3E013F00DEDB408CC740129F9E43AFACE
:0E007B00900210E014F070AEA3E0FEA3E0FFD0
:010089002254
:03000000020B23CD
:0C0B2300787FE4F6D8FD758121020B6A92
:10040300E709F608DFFA8046E709F208DFFA803EDB
:1004130088828C83E709F0A3DFFA8032E309F608C8
:10042300DFFA8078E309F208DFFA807088828C8330
:10043300E309F0A3DFFA806489828A83E0A3F608E4
:10044300DFFA805889828A83E0A3F208DFFA804CBE
:1004530080D280FA80C680D4806980F28033801095
:1004630080A680EA809A80A880DA80E280CA8033FE
:1004730089828A83ECFAE493A3C8C582C8CCC58376
:10048300CCF0A3C8C582C8CCC583CCDFE9DEE78046
:100493000D89828A83E493A3F608DFF9ECFAA9F0C5
:1004A300EDFB2289828A83ECFAE0A3C8C582C8CC1B
:1004B300C583CCF0A3C8C582C8CCC583CCDFEADE34
:1004C300E880DB89828A83E493A3F208DFF980CC96
:1004D30088F0EF60010E4E60C388F0ED2402B4048F
:1004E3000050B9F582EB2402B4040050AF23234536
:0604F30082239004537304
:1004F900BB010689828A83E0225002E722BBFE0201
:09050900E32289828A83E4932233
:10051200BC000BBE0029EF8DF084FFADF022E4CCCD
:10052200F875F008EF2FFFEE33FEEC33FCEE9DEC96
:10053200984005FCEE9DFE0FD5F0E9E4CEFD22EDDC
:10054200F8F5F0EE8420D21CFEADF075F008EF2F26
:10055200FFED33FD4007985006D5F0F222C398FD17
:050562000FD5F0EA22B4
:10056700BB0110E58229F582E5833AF583E0F5F0D2
:10057700A3E0225009E92582F886F008E622BBFEAF
:100587000AE92582F8E2F5F008E222E5832AF583F5
:08059700E993F5F0A3E99322BA
:10009E00E508240EF582E43402F583E0050822908B
:1000AE00020B30070390020EE475F0011205DE021A
:1000BE0004F92000E97F2ED2008018EF540F24900F
:1000CE00D43440D4FF30040BEF24BFB41A005003D5
:1000DE002461FFE50960021509050CE50C700205A7
:1000EE000B30070E90020BE475F0011205DEEF02E5
:1000FE0005CC02121B7403D2078003E4C207F50875
:10010E0090020B1205F5E4F509F50BF50CE5096007
:10011E00077F201200E180F5750AFFC201C200C2FE
:10012E0002C203C205C206C2081200ADFF700D3036
:10013E0007057F001200F2AF0CAE0B22B4255FC292
:10014E00D5C2041200ADFF24D0B40A00501A75F0C7
:10015E000A780930D50508B6FF0106C6A426F62092
:10016E00D5047002D20380D924CFB41A00EF500404
:10017E00C2E5D2040202F3D20180C6D20080C0D200
:10018E000280BCD2D580BAD20580B47F201200E1A5
:10019E002002077401B5090040F112009EFF120003
:1001AE00E102011BD208D206809512009EFB1200BE
:1001BE009EFA12009EF94A4B700679C47A037BFFB1
:1001CE0020022EE509602A7E008E827583001205BC
:1001DE009F60060EEE650A70F0C2D5EBC0E0EAC075
:1001EE00E0E9C0E0EE12033AD0E0F9D0E0FAD0E058
:1001FE00FB1204F9FF60AAEBC0E0EAC0E0E9C0E040
:10020E001200E1D0E02401F9D0E03400FAD0E0FB96
:10021E00E50A0460DCD50AD980877BFF7A0379363C
:10022E00D202809C791080027908C206C20880082A
:10023E00D2D5790A8004790AC2D5E50A047002F58E
:10024E000AE4FAFDFEFF12009EFC7B082001131249
:10025E00009EFD7B1030000A12009EFE12009EFFD3
:10026E007B20EC3382D592D55013C3E43000069F29
:10027E00FFE49EFEE42001039DFDE49CFCE4CBF82C
:10028E00C201EC700CCFCECDCCE824F8F870F38020
:10029E0017C3EF33FFEE33FEED33FDEC33FCEB33E0
:1002AE00FB994002FB0FD8E9EB300105F8D0E0C412
:1002BE0048B201C0E00AEC4D4E4F78207B0070C270
:1002CE00EAB50A0040BCC0E012033CD0F0D0E020FA
:1002DE000104C4C0E0C4B201C0F01200CAD0F0D50F
:1002EE00F0EB02011B1205FE01B8530232580189D0
:1002FE004C01854202364F023E44023E49019E4366
:08030E000244550228460228B2
:100316004502284703E450018D2D01912E01B42B8F
:1003260001952301B22003CD2A014D48000001ACFE
:100336003F3F3F00790AA2D5200314300509B910C2
:10034600020404B9080104A2D520060250010420C3
:1003560002689202B509005034C0E07F20300319CC
:100366007F30A20272067205500F120393C202C2B8
:1003760006C205C2087F30800F300503E9C0E012CF
:1003860000E1300503D0E0F9D0E0B509CC3005171F
:100396007F30B9100C1200E17F583004077F788057
:1003A60003B908031200E13002057F2D0200E17F48
:1003B600202008F87F2B2006F322920280CF286E99
:1003C600756C6C2900D20112009E3001F8C20178CA
:1003D6000930D50108F602014D2D50434958120047
:1003E6009E2403B405004001E49003DF931200D27B
:0D03F600743A1200D2D203750904020232DB
:100B2F00020F3BE493A3F8E493A34003F68001F292
:100B3F0008DFF48029E493A3F85407240CC8C333C7
:100B4F00C4540F4420C8834004F456800146F6DF96
:100B5F00E4800B0102040810204080900624E47EFC
:100B6F00019360BCA3FF543F30E509541FFEE4938B
:100B7F00A360010ECF54C025E060A840B8E493A352
:100B8F00FAE493A3F8E493A3C8C582C8CAC583CA7D
:100B9F00F0A3C8C582C8CAC583CADFE9DEE780BE35
:01072D0000CB
:10059F00BB010CE58229F582E5833AF583E0225011
:1005AF0006E92582F8E622BBFE06E92582F8E2225B
:0D05BF00E58229F582E5833AF583E4932275
:1005CC00BB010689828A83F0225002F722BBFE010E
:0205DC00F32208
:1005DE00F8E0FBA3A3E0F925F0F0E58215827002A6
:0705EE001583E0FA38F0224A
:0905F500EBF0A3EAF0A3E9F02207
:1005FE00D083D082F8E4937012740193700DA3A38C
:10060E0093F8740193F5828883E47374029368609F
:06061E00EFA3A3A380DF9F
:00000001FF
