:1011DB00D3EF9400EE9400401600000075080B75D9
:0F11EB0009BED509FDD508FAEF1F70E41E80E19B
:0111FA0022D2
:10130900D3EF9400EE9400400A000000EF1F70F044
:041319001E80ED2223
:1012740043BC807F0A7E001211DB53DEFC43DE0C8C
:0A12840053BCDF53A8DF43DE202235
:10119900E4FDFC53BCF0EF444042BCE5BC30E5FB48
:1011A90053BCDF53BCBFAFBDEFADBEFCEDAE04FF1A
:0111B9002213
:0D000E00E4F5C7F5C5F5C675C380F5C4223D
:10123A0075C78075F50C75C5038FC4EEF5C375C601
:0E124A005A75C6A57F0A7E001211DB02000E47
:1011770075C78075F50C75C5028FC4EEF5C3AF054D
:101187008FC275C65A75C6A57F0A7E001211DB028B
:02119700000E48
:1011FB0075C78075F50C75C5018FC4EEF5C375C643
:10120B005A75C6A57F0A7E001211DBAFC202000E13
:10121B00759418E4F593F5927591F875960EF5950E
:0F122B0075B2C2F5B175B48EF5B3F5CAF5C92227
:101153003D3D3D3D3D3D3D3D3D3D20636F6465204F
:101163007374617274203D3D3D3D3D3D3D3D3D3DCC
:04117300200D0A0041
:1010840043BA8012121B1212A81212741212F31213
:1010940012C11213311210C112135412000612138A
:1010A4006F121344D2AF1209247BFF7A11795312C1
:0D10B4000109120E9612112C1211BA80F5CE
:1010C10043BA8090FEB6E0F090FEEDE4F090FEEAC7
:1010D1007470F0A3F090FEED7411F090FEF27404C0
:1010E100F0A37451F090FEF0E4F0A37431F090FE9F
:0D10F100B5E04450F090FEE0E04401F02234
:05000600D288D2A822FF
:10133100438E805389F0758ACD758CD4C28DD28C41
:03134100D2A9220C
:0A136F00538EBF53890F43891022EB
:1013440053D1FDE4F5D575D4DC43D10843AF202255
:1012A80053A23F759850438E01438E0475D7E87555
:0912B800D6FF438E1075A8102228
:1012F30075841043844043D12075D3E875D2FF43EE
:06130300D18043AF10226F
:040624004101070089
:1012C100E4900000F0900081F0900101F0F0A3F0B3
:0912D100A3F0A3F0A3F0C28422F3
:03009300020D9FBC
:100D9F00C0E0C083C082C0D075D000C007E58430EA
:100DAF00E12A5384FD900101E0601AA3E0FF04F0F3
:100DBF0074012FF582E43400F583E0F5859001018D
:100DCF00E014F08007900102E4F0C284E58430E083
:100DDF00335384FE900000E07021900105E0D3941E
:100DEF00804002E4F0900105E02481F582E43400B4
:100DFF00F583E585F0900105E004F0900103E4F040
:0F0E0F00A37405F0D007D0D0D082D083D0E032CA
:03000B000210459B
:10104500C0E0C083C082C0D0900103E07002A3E07D
:101055006024900104E024FFF0900103E034FFF0E8
:10106500E07002A3E0700F900105E0D39400400604
:0F1075009000007401F0D0D0D082D083D0E03250
:030023000212586E
:10125800C0E0C083C082309907C299900107E4F0CA
:0C126800309802C298D082D083D0E032CF
:0B1364008F99900107E070FA04F0225E
:100924007F107E001211FBEFF460030209FA9002BB
:10093400367407F0120B72E4900237F01211BA9079
:1009440002387403F0FF1212DA9002397432F0FFA5
:1009540012131D90023A742DF0900236E090024773
:10096400F0900237E0900248F0900238E09002499B
:10097400F0900239E090024AF0A3742DF0E4900262
:100984000CF090020CE0FFC394055061C2C7EF2441
:1009940001FFE433FEEF25E0FFEE33EF7F00FEA31B
:1009A400F0A3EFF012123AE490020BF090020BE085
:1009B400FDC39405502F90020DE0FEA3E0FF7447A1
:1009C4002DF582E43402F583E0FD12117790020ED6
:1009D400E004F0700690020DE004F0D2C790020B20
:1009E400E004F080C790020CE004F0809590023B94
:0909F4007401F002128E120D19BB
:0109FD0022D7
:10128E00E4FFFE12123A90023BE0FDE4FFFE121163
:0A129E00777D587F107E0002117763
:100E1E00900236E0900247F0900237E0900248F0E0
:100E2E00900238E0900249F0900239E090024AF0C8
:100E3E0090023AE090024BF090023BE075F002A473
:100E4E007F00FE90020EF0A3EFF012123AE4900231
:100E5E000DF090020DE0FDC39405502BA3E0FEA310
:100E6E00E0FF74472DF582E43402F583E0FD1211A4
:100E7E007790020FE004F0700690020EE004F090FE
:070E8E00020DE004F080CB2F
:010E9500223A
:100D1900E4FFFE1211FB90023BEFF0E075F002A434
:100D2900900210F0A3E4F090020FF0900210E0FEA0
:100D3900A3E0FF1211FB90020FE02447F582E4348F
:100D490002F583EFF0900211E004F07006900210B2
:100D5900E004F090020FE004F0E0C3940540CC9069
:100D69000247E0900236F0120B72900248E09002BE
:100D790037F01211BA900249E0FF900238F01212CE
:100D8900DA90024AE0FF900239F012131D90024BEB
:050D9900E090023AF0B9
:010D9E002232
:1006280060FC010F03D503FA04200446046D049509
:1006380004BE04E70510053A0565059005BB05E706
:100648000613063F066C069906C606F30720074DF3
:10065800077A07A707D40800082D0859088508B1A4
:1006680008DC09070931095B098409AD09D609FDC8
:100678000A240A4B0A710A960ABB0ADE0B020B24EB
:100688000B460B670B870BA70BC60BE40C020C1E63
:100698000C3A0C560C700C8A0CA40CBC0CD40CEC48
:1006A8000D020D190D2E0D430D570D6B0D7E0D907E
:1006B8000DA20DB40DC50DD50DE50DF50E040E12E8
:1006C8000E200E2E0E3B0E480E550E610E6D0E7846
:1006D8000E830E8D0E970EA10EAB0EB40EBD0EC678
:1006E8000ECF0ED70EDF0EE70EEF0EF60EFD0F043F
:1006F8000F0B0F110F170F1D0F230F290F2F0F357A
:100708000F3A0F3F0F440F490F4E0F530F580F5C0E
:100718000F600F650F690F6D0F710F740F780F7CE5
:0E0C8E0090020FEBF0A3EAF0A3E9F0A3EDF063
:100C9C00E4900216F0A3F0900215F0900212E0140A
:100CAC00FF900215E0FEC39F505A90020FE0FBA389
:100CBC00E0FAA3E0F975F002EEA4F58285F0831258
:100CCC000567FF900213E0FCA3E0FDC39FEC95F0D9
:100CDC00402AA3E02401FFE433FEEF25E0FFEE33CE
:100CEC00FE8F828E83120567FFC3ED9FEC95F0504B
:100CFC000B900215E0FFA3E4F0A3EFF0900215E0D7
:0C0D0C0004F08097900216E0FEA3E0FFC8
:010D180022B8
:050F040090020BEFF06C
:100F0900E490020DF0A3F090020CF090020BE0FFC8
:100F190012119990020EE02FF090020DE03EF09030
:100F2900020CE004F0E0C3940A40E090020DE0FEF8
:100F3900A3E0FF7C007D0A12051290020DEEF0A3DA
:100F4900EFF07B017A01790F90020DE0FFA3E090A9
:0C0F59000213CFF0A3EFF07D7E020C8E9F
:10135400E4900233F090010CF0D2C3D2C2D2C12285
:030003000210FEEA
:1010FE00C0E0C083C082C0D075D000C0069002345C
:10110E00E0FEA3E0F58BEEF58D9002337401F0D284
:0E111E008ED2ABD006D0D0D082D083D0E032BB
:03001B00020F656C
:100F6500C0E0C083C082C0D075D000C007900233F6
:100F7500E06401702CF090023DE0FFC374019F24F2
:100F8500FF92C1A3E0FFC374019F24FF92C2A3E0B7
:100F9500FFC374019F24FF92C3758BF7758DFF8086
:100FA5000AD2C3D2C2D2C1C28EC2ABD007D0D0D072
:060FB50082D083D0E0327F
:10131D00EF75F04AA42490FEE5F034E2900234F02B
:04132D00A3CEF02239
:1012DA00AD07ED75F0B8A4FFAEF090FEF9EEF0A3FD
:0912EA00EFF0A3EEF0A3EFF022F7
:1011BA00900237E0B4011190023CE090FEFDB401C8
:1011CA00028008E4F0C2A82290FEFD7480F0D2A842
:0111DA0022F2
:10112C0090010CE0B4011F7F04120F04900108EF32
:10113C00F090023AE0FEEFC39E4004D2B68002C2A9
:07114C00B6E490010CF02253
:100B7200900236E014B407004003020C01900B8D82
:100B820075F003A4C58325F0C58373020BA2020B83
:100B9200B2020BBC020BC8020BD8020BE6020BF32B
:100BA20090023D7401F0E490023FF090023EF02288
:100BB20090023E7401F0E4A3804090023F7401F081
:100BC200E490023E803490023E7401F090023DF0C7
:100BD200E490023FF02290023F7401F090023DF057
:100BE200E4A3F02290023F7401F090023EF0E48010
:100BF2000A90023F7401F090023EF090023DF02212
:0507280042024C00003C
:03009B00020FBB96
:060FBB00C0E0C083C0820B
:100FC10090023C3093057401F08002E4F090010C32
:100FD100E0702690024DE004F0700690024CE004AF
:100FE100F090024CE07004A3E06464700C90010C7A
:090FF10004F090024CE4F0A3F0BE
:070FFA00D082D083D0E03269
:100E9600900000E064017065F07B017A0079819032
:100EA6000105E024FEFD120026AD07AC0690010503
:100EB600E0FB247FF582E43400F583E0FE74802BAA
:100EC600F582E43400F583E0FBEBFFE4900105F0E6
:100ED600EDB50729ECB50625900081E0B4DC1EA32C
:100EE600E024FC600F24FE600E24F6600D240D70D5
:0D0EF6000C02082B020AC502100112072E83
:010F030022CB
:10082B00C2C79002437403F0900085A3E025E090CB
:10083B000242F0900083E0FEA3E0FDEDFF90024545
:10084B00EEF0A3EFF090000174DCF0A37403F090D2
:10085B000242E0900003F0900242E0F9C313FD90D6
:10086B000246E02DFD900245E03400FCC3EF9DEE07
:10087B009C4003020918E4900241F0900240F0EE14
:10088B007053EF14601A14602114602814602F1435
:10089B0060362405703FE4900240F09002368030C1
:1008AB00E4900240F09002378026E4900240F090F2
:1008BB000238801CE4900240F09002398012E490E0
:1008CB000240F090023A8008E4900240F090023B24
:1008DB00E0900241F0900240E0FD900243E0FC0406
:1008EB00F074012CF582E43400F583EDF0900241B5
:1008FB00E0FD900243E0FC04F074012CF582E4343B
:10090B0000F583EDF00FBF00010E020862E924032E
:08091B00FD7F031209FED2C7A3
:0109230022B1
:100AC5009002437403F0900085A3E025E090024274
:100AD500F0900083E0FEA3E0FDEDFF900245EEF00F
:100AE500A3EFF090000174DCF0A37404F0900242CF
:100AF500E0900003F0900242E0F9C313FD90024636
:100B0500E02DFD900245E03400FCC3EF9DEE9C50C6
:100B150053E4900241F0900240F0EF7010EE700D3A
:100B2500E4900240F090023CE0900241F0900240D7
:100B3500E0FD900243E0FC04F074012CF582E434FE
:100B450000F583EDF0900241E0FD900243E0FC04E6
:100B5500F074012CF582E43400F583EDF00FBF004D
:0D0B6500010E8091E92403FD7F040209FECA
:10100100C2C7900084E024FD600814600F146015CD
:10101100802190FEFD7480F0D2A8801790FEFDE43F
:10102100F0C2A8800E900086E090023BF012128E72
:10103100120D197D087F061209FE7F147E00121120
:04104100DBD2C72215
:10072E00C2C79002447407F0900087E0900242F036
:10073E00900083E0FEA3E0FDEDFF900245EEF0A3F6
:10074E00EFF090020BEEF0A3EFF0900242E0C31335
:10075E00FF900246E02FFF900245E03400FE90022B
:10076E000BE0FCA3E0FDC39FEC9E400302081E902D
:10077E000244E02481F582E43400F583E0900240E7
:10078E00F0900244E02482F582E43400F583E09098
:10079E000241F0EC705FED14601D1460271460329E
:1007AE0014603D1460442405704B900241E09002A9
:1007BE0036F0120B72803E900241E0900237F0123A
:1007CE0011BA8031900241E0FF900238F01212DA35
:1007DE008023900241E0FF900239F012131D801524
:1007EE00900241E090023AF0800B900241E09002BC
:1007FE003BF012128E900244E02402F090020CE0C4
:10080E0004F0600302075890020BE004F002075850
:0C081E007D087F101209FE120E1ED2C7CA
:01082A0022AB
:0509FE0090020DEDF078
:100A0300EF24FC600F24FE604F24F66064240D6025
:100A130003020AB27B017A00790190020DE0FD1214
:100A2300002690020EEEF0A3EFF090020EE0FEA37C
:100A3300E0FD90020DE0FC2402F582E43400F5832E
:100A4300EDF0EEFF74012CF582E43400F583EFF052
:100A530090020DE02402805378017C007D017B012C
:100A63007A0079817E007F081204D390020DE08022
:100A73003A78017C007D017B017A0079817E007FD9
:100A8300061204D37B017A0079017D0612002690B9
:100A9300020EEEF0A3EFF090020EE0FEA3E0900052
:100AA30008F0EE900007F090020DE0900101F0D203
:100AB300847F027E001211DB4384027F017E0002E9
:020AC30011DB45
:05002600900210EDF056
:10002B0074FFA3F0A3F01204F9FF900211E0F0A308
:10003B00E06FF0E4FD900211E0FEA3E0FF30E01969
:10004B00EEC313FEEF13FFEE64A0FEEF6401FF900F
:10005B000211EEF0A3EFF0800B900211E0C313F04E
:10006B00A3E013F00DEDB408CC740129F9E43AFACE
:0E007B00900210E014F070AEA3E0FEA3E0FFD0
:010089002254
:03000000020C02ED
:0C0C0200787FE4F6D8FD758121020C49D2
:10040300E709F608DFFA8046E709F208DFFA803EDB
:1004130088828C83E709F0A3DFFA8032E309F608C8
:10042300DFFA8078E309F208DFFA807088828C8330
:10043300E309F0A3DFFA806489828A83E0A3F608E4
:10044300DFFA805889828A83E0A3F208DFFA804CBE
:1004530080D280FA80C680D4806980F28033801095
:1004630080A680EA809A80A880DA80E280CA8033FE
:1004730089828A83ECFAE493A3C8C582C8CCC58376
:10048300CCF0A3C8C582C8CCC583CCDFE9DEE78046
:100493000D89828A83E493A3F608DFF9ECFAA9F0C5
:1004A300EDFB2289828A83ECFAE0A3C8C582C8CC1B
:1004B300C583CCF0A3C8C582C8CCC583CCDFEADE34
:1004C300E880DB89828A83E493A3F208DFF980CC96
:1004D30088F0EF60010E4E60C388F0ED2402B4048F
:1004E3000050B9F582EB2402B4040050AF23234536
:0604F30082239004537304
:1004F900BB010689828A83E0225002E722BBFE0201
:09050900E32289828A83E4932233
:10051200BC000BBE0029EF8DF084FFADF022E4CCCD
:10052200F875F008EF2FFFEE33FEEC33FCEE9DEC96
:10053200984005FCEE9DFE0FD5F0E9E4CEFD22EDDC
:10054200F8F5F0EE8420D21CFEADF075F008EF2F26
:10055200FFED33FD4007985006D5F0F222C398FD17
:050562000FD5F0EA22B4
:10056700BB0110E58229F582E5833AF583E0F5F0D2
:10057700A3E0225009E92582F886F008E622BBFEAF
:100587000AE92582F8E2F5F008E222E5832AF583F5
:08059700E993F5F0A3E99322BA
:10009E00E508240EF582E43402F583E0050822908B
:1000AE00020B30070390020EE475F0011205DE021A
:1000BE0004F92000E97F2ED2008018EF540F24900F
:1000CE00D43440D4FF30040BEF24BFB41A005003D5
:1000DE002461FFE50960021509050CE50C700205A7
:1000EE000B30070E90020BE475F0011205DEEF02E5
:1000FE0005CC0213647403D2078003E4C207F5082B
:10010E0090020B1205F5E4F509F50BF50CE5096007
:10011E00077F201200E180F5750AFFC201C200C2FE
:10012E0002C203C205C206C2081200ADFF700D3036
:10013E0007057F001200F2AF0CAE0B22B4255FC292
:10014E00D5C2041200ADFF24D0B40A00501A75F0C7
:10015E000A780930D50508B6FF0106C6A426F62092
:10016E00D5047002D20380D924CFB41A00EF500404
:10017E00C2E5D2040202F3D20180C6D20080C0D200
:10018E000280BCD2D580BAD20580B47F201200E1A5
:10019E002002077401B5090040F112009EFF120003
:1001AE00E102011BD208D206809512009EFB1200BE
:1001BE009EFA12009EF94A4B700679C47A037BFFB1
:1001CE0020022EE509602A7E008E827583001205BC
:1001DE009F60060EEE650A70F0C2D5EBC0E0EAC075
:1001EE00E0E9C0E0EE12033AD0E0F9D0E0FAD0E058
:1001FE00FB1204F9FF60AAEBC0E0EAC0E0E9C0E040
:10020E001200E1D0E02401F9D0E03400FAD0E0FB96
:10021E00E50A0460DCD50AD980877BFF7A0379363C
:10022E00D202809C791080027908C206C20880082A
:10023E00D2D5790A8004790AC2D5E50A047002F58E
:10024E000AE4FAFDFEFF12009EFC7B082001131249
:10025E00009EFD7B1030000A12009EFE12009EFFD3
:10026E007B20EC3382D592D55013C3E43000069F29
:10027E00FFE49EFEE42001039DFDE49CFCE4CBF82C
:10028E00C201EC700CCFCECDCCE824F8F870F38020
:10029E0017C3EF33FFEE33FEED33FDEC33FCEB33E0
:1002AE00FB994002FB0FD8E9EB300105F8D0E0C412
:1002BE0048B201C0E00AEC4D4E4F78207B0070C270
:1002CE00EAB50A0040BCC0E012033CD0F0D0E020FA
:1002DE000104C4C0E0C4B201C0F01200CAD0F0D50F
:1002EE00F0EB02011B1205FE01B8530232580189D0
:1002FE004C01854202364F023E44023E49019E4366
:08030E000244550228460228B2
:100316004502284703E450018D2D01912E01B42B8F
:1003260001952301B22003CD2A014D48000001ACFE
:100336003F3F3F00790AA2D5200314300509B910C2
:10034600020404B9080104A2D520060250010420C3
:1003560002689202B509005034C0E07F20300319CC
:100366007F30A20272067205500F120393C202C2B8
:1003760006C205C2087F30800F300503E9C0E012CF
:1003860000E1300503D0E0F9D0E0B509CC3005171F
:100396007F30B9100C1200E17F583004077F788057
:1003A60003B908031200E13002057F2D0200E17F48
:1003B600202008F87F2B2006F322920280CF286E99
:1003C600756C6C2900D20112009E3001F8C20178CA
:1003D6000930D50108F602014D2D50434958120047
:1003E6009E2403B405004001E49003DF931200D27B
:0D03F600743A1200D2D203750904020232DB
:100C0E00021084E493A3F8E493A34003F68001F268
:100C1E0008DFF48029E493A3F85407240CC8C333E7
:100C2E00C4540F4420C8834004F456800146F6DFB6
:100C3E00E4800B0102040810204080900624E47E1C
:100C4E00019360BCA3FF543F30E509541FFEE493AB
:100C5E00A360010ECF54C025E060A840B8E493A372
:100C6E00FAE493A3F8E493A3C8C582C8CAC583CA9D
:100C7E00F0A3C8C582C8CAC583CADFE9DEE780BE55
:01072D0000CB
:10059F00BB010CE58229F582E5833AF583E0225011
:1005AF0006E92582F8E622BBFE06E92582F8E2225B
:0D05BF00E58229F582E5833AF583E4932275
:1005CC00BB010689828A83F0225002F722BBFE010E
:0205DC00F32208
:1005DE00F8E0FBA3A3E0F925F0F0E58215827002A6
:0705EE001583E0FA38F0224A
:0905F500EBF0A3EAF0A3E9F02207
:1005FE00D083D082F8E4937012740193700DA3A38C
:10060E0093F8740193F5828883E47374029368609F
:06061E00EFA3A3A380DF9F
:00000001FF
