:03000000020BC927
:0C0BC900787FE4F6D8FD758121020C1045
:10135100D3EF9400EE9400401600000075080B7561
:0F13610009BED509FDD508FAEF1F70E41E80E123
:01137000225A
:10158900D3EF9400EE9400400A000000EF1F70F0C2
:041599001E80ED22A1
:10138E0075941AE4F593F592F591F596F59575B277
:0C139E00FEF5B1F5B4F5B3F5CAF5C922AF
:1013AA003D3D3D3D3D3D20636F6465207374617230
:0C13BA0074203D3D3D3D3D3D200D0A00EE
:100CD40043BA8012138E1215121215B01215731224
:100CE400152B12159DD2AF9001827401F0900181F1
:100CF400F07F0212130912132F7FC8800B90015842
:100D0400E0700C1206E97F0A7E0012135180EE1285
:100D140014DE900154E0700F12111B120DC27F32C9
:100D24007E0012135180EB1211DE12121C7BFF7A2B
:100D34001379AA120109120DC21206E9120EF51254
:0B0D4400000E7F0A7E0012135180EBAE
:10159D00438E805389F0758ACD758CD4C28DD28CD3
:0315AD00D2A9229E
:1015B00053D1FDE4F5D575D4DC43D10843AF2022E7
:1015120053A23F759850438E01438E0475D7E875E8
:09152200D6FF438E1075A81022BB
:1015730075841043844043D12075D3E875D2FF436B
:06158300D18043AF1022ED
:040F5500410107004F
:10152B00E4900000F0900081F0900101F0F0A3F046
:09153B00A3F0A3F0A3F0C2842286
:03009300020C5507
:100C5500C0E0C083C082C0D075D000C007E5843035
:100C6500E12A5384FD900101E0601AA3E0FF04F03E
:100C750074012FF582E43400F583E0F585900101D8
:100C8500E014F08007900102E4F0C284E58430E0CE
:100C9500335384FE900000E07021900105E0D39469
:100CA500804002E4F0900105E02481F582E43400FF
:100CB500F583E585F0900105E004F0900103E4F08B
:0F0CC500A37405F0D007D0D0D082D083D0E03216
:03000B000211607F
:10116000C0E0C083C082C0D0900103E07002A3E061
:101170006024900104E024FFF0900103E034FFF0CC
:10118000E07002A3E0700F900105E0D394004006E8
:0F1190009000007401F0D0D0D082D083D0E03234
:030023000213C6FF
:1013C600C0E0C083C082309907C299900107E4F05B
:0C13D600309802C298D082D083D0E03260
:0B15C0008F99900107E070FA04F02200
:100F59004101590041015A0041015B00410166000C
:100F6900410167004101680041016900470146C329
:100F7900C6C7CACBCECF4A015CF505D39727B6F6CB
:030F890015F7B7A2
:1014DE00D285D286D287E4FF1212B4D2857F44120F
:0A14EE0012B4D2851211DE020003D1
:10132F00E4900151F090014DF0A3F0A3F0A304F06D
:10133F00900155F0E4900154F0900156F09001584F
:02134F00F0228A
:10130900EF24FE601204701DC281C2B7C2B6C2B515
:10131900C2B4C2B3C2B222D281C2B4D2B7D2B6D297
:06132900B5D2B2D2B322DE
:1011DE00E4FF12141AE4FF121436E4FF1213FEE4B5
:1011EE00FF12146EE4FF121452E490010BF0900102
:1011FE000BE0FFC39407501574462FF582E43401BB
:0D120E00F5831214FB90010BE004F080E169
:01121B0022B0
:080003007F931212B4D2852292
:0714F80090014AE0FFE4FD52
:1014FF0090010CEDF01212B490010CE0FF1212B437
:03150F00D2852260
:0512B40090010DEFF0B8
:1012B9007F327E00121589C285E4FFC28690010D36
:1012C900E0FE139287D286EEC313F00FEFB408EB5A
:0712D9007F327E000215893F
:0608040090010BEFF0F97A
:10080A00E0FF75F06484FDEF75F00A8475F00A84E0
:10081A00AFF0E975F00A84AEF0900167E4F0900158
:10082A0066E4F090015BE4F090015AE05408F0901D
:10083A000167E0FC745C2DF582E43401F583E0FB8A
:10084A00C4540FFAEC4A900167F0900166E04BF04D
:10085A0090015BE0FD745C2FF582E43401F583E0DE
:10086A00FFED4F90015BF090015AE0FF745C2EF5AA
:10087A0082E43401F583E0FEEF4E90015AF0E9C3B9
:10088A00940A501A90010BE0C3940040111214F814
:10089A009001491214FB900148E0FFE4804790015F
:1008AA000BE0FFC39464501AEFC3940A4014121465
:1008BA00F89001491214FB900148E0FF90015BE0B7
:1008CA00802390014AE0FF900167E0FD1214FF9037
:1008DA000149E0FF900166E0FD1214FF900148E033
:1008EA00FF90015BE0FD1214FF900147E0FF9001C9
:0608FA005AE0FD1214FF9C
:0109000022D4
:100D4F00AD07900169E05430F0EFB40700505790B1
:100D5F000D65F8282873020D7A020D81020D8A02A3
:100D6F000D93020D9C020DA5020DAE900169E0F0EE
:100D7F008034900169E04440F0802B900169E04499
:100D8F00C0F08022900169E044C8F0801990016999
:100D9F00E044CCF08010900169E044CEF0800790E1
:100DAF000169E044CFF090014CE0FF900169E0FD54
:030DBF000214FF1C
:10090100AD07900168E05480F0900167E4F0EDB428
:10091100080040030209B190091FF8282873020951
:100921003702094302095302096302097302098369
:100931000209930209A3900168E4F0900167E4F0D1
:10094100806E900168E04404F0900167E04440F05B
:10095100805E900168E04402F0900167E04420F07D
:10096100804E900168E04401F0900167E04410F08E
:10097100803E900168E04406F0900167E04460F039
:10098100802E900168E04405F0900167E04450F04A
:10099100801E900168E04403F0900167E04430F06C
:1009A100800E900168E04407F0900167E04470F028
:1009B10090014BE0FF900168E0FD1214FF90014AA5
:0A09C100E0FF900167E0FD0214FF63
:1013E200900168E054F7F0EFB40104E04408F09093
:0C13F200014BE0FF900168E0FD0214FFD9
:1013FE00900159E054EFF0EFB40104E04410F09086
:0C140E000146E0FF900159E0FD0214FFD0
:10141A00900159E054DFF0EFB40104E04420F09069
:0C142A000146E0FF900159E0FD0214FFB4
:10143600900159E054BFF0EFB40104E04440F0904D
:0C1446000146E0FF900159E0FD0214FF98
:10145200900159E0547FF0EFB40104E04480F09031
:0C1462000146E0FF900159E0FD0214FF7C
:10146E0090015AE054F7F0EFB40104E04408F09014
:0C147E000147E0FF90015AE0FD0214FF5E
:10148A00900169E054DFF0EFB40104E04420F090E9
:0C149A00014CE0FF900169E0FD0214FF2E
:1014A600900168E054EFF0EFB40104E04410F090CE
:0C14B600014BE0FF900168E0FD0214FF14
:1014C200900169E054EFF0EFB40104E04410F090B1
:0C14D200014CE0FF900169E0FD0214FFF6
:100EF500900156E070597F0112148A90014EE0D39B
:100F050094004041A3E06401701C7F011213FE9020
:100F15000153E0B4010280137F011214A6E4FF120D
:100F250014C2E4FF801CE4FF1213FE900155E0FF9C
:100F35001214A6900155E0FFC374019FFF1214C25D
:100F45007F010213E27F011214A6E4FF1214C222EC
:10121C0090014DE0FF12080490014EE0FF120D4FBB
:10122C00900151E0FF12090190014FE0FF1213FEF3
:10123C0090014FE0B40104E4FF80027F011213E23D
:0A124C007F0112146EE4FF02143655
:10125600313131200D0A00323232200D0A0033338B
:1012660033200D0A00343434200D0A00353535207C
:101276000D0A00363636200D0A00373737200D0A9C
:011286000067
:040F8C00410183009C
:1006E900900182E064016003020803F0A3E0700353
:1006F90002078814605224FD70030207CA14605669
:1007090024FC606024FC606A240B600302080390E7
:1007190001087464F0900183E0B40215900108E0C7
:10072900D39400400CE014F07F0A7E00121351802C
:10073900E4900108E07003FF80027F011212877BB9
:10074900FF7A1279560208007F011210C47BFF7AE2
:1007590012795D0208007F051210C47BFF7A1279B5
:10076900640208007F091212E07BFF7A12796B029A
:1007790008007F0D1212E07BFF7A1279728078905F
:1007890001097464F0900183E07015900109E0D3C8
:100799009400400CE014F07F0A7E0012135180E5AA
:1007A900900109E070051209CB800E900156E0B462
:1007B9000104E4F080031213717BFF7A12797980C6
:1007C9003690010A7464F0900183E0B40415900135
:1007D9000AE0D39400400CE014F07F0A7E00121363
:1007E9005180E490010AE07005121544800312104B
:0A07F9006A7BFF7A12798012010971
:0108030022D2
:10128700EFB40114900158E070227F011213099006
:1012970001587401F002100F7F02121309E4900144
:0D12A70058F0120FB47FE87E03121351229D
:1010C400EF64017023900156E0700F90014DE0C36E
:1010D40094645027E02405F08021900152E0C394E9
:1010E400785029E004F08024900156E070129001B9
:1010F4004DE0D394054004E024FBF090014D800FB3
:10110400900152E0D394284003E014F0900152E09F
:07111400FF120804020A9219
:1012E000EFB4090E90014EE0C394065011E004F0F3
:1012F000800C90014EE0D394004003E014F0900184
:091300004EE0FF120D4F020A92AB
:10137100900151E0B407057401F08006900151E03D
:0D13810004F0900151E0FF120901020A92F0
:10106A00900150E0C39406500AE004F0E0B406038D
:10107A007401F01211DE7F01121452900150E0FF48
:10108A001208047FF47E011213511211DEE4FF12DA
:10109A00145290014FE0FF1213FE90014DE0FF122F
:1010AA000804900151E0FF12090190014EE0FF127D
:0A10BA000D4F7F0112146E020E9418
:1009CB00120A927FF4020A7D900183E07003020AFF
:1009DB0085900157E0B40114E4FF12146E9001529C
:1009EB00E0FF1208047F01121436804D90014CE099
:1009FB00FFE4FD1214FF90014BE0FFE4FD1214FF26
:100A0B0090014AE0FFE4FD1214FF900149E0FFE47E
:100A1B00FD1214FF900148E0FFE4FD1214FF90015A
:100A2B0047E0FFE4FD1214FF900146E0FF7D40120A
:100A3B0014FF7F057E00121351900183E0B4011661
:100A4B00900152E0C394785003E004F0120A927FB5
:100A5B002C7E01121351900183E06405600302099F
:100A6B00D3900152E0D394284003E014F0120A9281
:100A7B007F2C7E011213510209D3120A9212121CFF
:070A8B007FE87E0302135116
:1015440090014FE0FFC374019FFFF01213FE120AD3
:08155400927FE87E03021351AF
:100F9000420176000042016A000042016C000042FA
:100FA000016E000042017000004201720000420127
:030FB000740000CA
:03009B00020597C4
:0D059700C0E0C083C082C0D075D000C00796
:1005A40090016BE004F0700690016AE004F0C390DF
:1005B400016BE0940590016AE09400400FE5A054BB
:1005C4000F900183F090016AE4F0A3F0900182E0BF
:1005D400702590016DE004F0700690016CE004F069
:1005E40090016CE07004A3E06414700B90016CF053
:1005F400A3F090018204F090016FE004F070069083
:10060400016EE004F090016EE07004A3E0640F70EA
:1006140011900155E0FFC374019FF090016EE4F066
:10062400A3F0900177E004F07006900176E004F006
:10063400900176E07004A3E06464700C90017F0480
:10064400F0900176E4F0A3F0900171E004F07006FC
:10065400900170E004F0900170E07004A3E0643253
:100664007011900157E0FFC374019FF0900170E492
:10067400F0A3F0900183E0B40F29900173E004F03B
:100684007006900172E004F0900172E0B4011FA3BF
:10069400E0B4F41A900158E0B4011390018074019D
:1006A400F0800B900172E4F0A3F0900180F09001CF
:1006B40081E07026900175E004F07006900174E00A
:1006C40004F0900174E07004A3E06402700C9001E3
:0A06D4008104F0900174E4F0A3F03B
:0B06DE00D007D0D0D082D083D0E03213
:10155C00747474200D0A00DC030000000645D7DC0F
:07156C0004000000024663C9
:100DC200900000E064017065F07B017A0079819007
:100DD2000105E024FEFD120E30AD07AC06900105C0
:100DE200E0FB247FF582E43400F583E0FE74802B7F
:100DF200F582E43400F583E0FBEBFFE4900105F0BB
:100E0200EDB50729ECB50625900081E0B4DC1EA300
:100E1200E024FC600F24FE600E24F6600D240D70A9
:0D0E22000C020B300200260215CB120091CD
:010E2F0022A0
:100B30007F03E4FDFCEC7078ED14602114602F1449
:100B4000603D14604B1460592405706474822FF565
:100B500082E43400F583E0900151F0805374822FD9
:100B6000F582E43400F583E090014FF08042748216
:100B70002FF582E43400F583E090014EF08031746B
:100B8000822FF582E43400F583E090014DF080205F
:100B900074822FF582E43400F583E0900152F080F6
:100BA0000F74822FF582E43400F583E0900150F059
:100BB0000F0F0DBD00010CED64064C6003020B35F8
:090BC0009001547401F002121CB2
:100026009001087403F0E4A3F0A3F0900109E0FE48
:10003600A3E0FFC39402EE9400504AEE7030EF1432
:100046006017047029900108E02482F582E43400E8
:10005600F583E0FF12141A8015900108E02482F55A
:1000660082E43400F583E0900153F0120EF590011E
:1000760008E02402F090010AE004F070AE90010955
:0A008600E004F080A6E4900181F090
:01009000224D
:0B15CB00900084E0B4050312111B2205
:01009100224C
:050E300090011EEDF031
:100E350074FFA3F0A3F01204F9FF90011FE0F0A3E3
:100E4500E06FF0E4FD90011FE0FEA3E0FF30E01944
:100E5500EEC313FEEF13FFEE64A0FEEF6401FF90F7
:100E6500011FEEF0A3EFF0800B90011FE0C313F01C
:100E7500A3E013F00DEDB408CC740129F9E43AFAB6
:0E0E850090011EE014F070AEA3E0FEA3E0FFAB
:010E9300223C
:10111B0078087C017D017BFF7A1579637E007F085F
:10112B001204D3900181E060FA78017C007D017B91
:10113B00017A0179087E007F081204D390010174B3
:10114B0008F0D2847F027E001213514384027F0188
:05115B007E00021351AB
:10119F0078087C017D017BFF7A15796B7E007F08D3
:1011AF001204D378017C007D017B017A0179087EDE
:1011BF00007F081204D39001017408F0D2847F02DB
:0F11CF007E001213514384027F017E00021351F0
:100E9400900181E060FA90010B74DCF0A37406F019
:100EA400E4A3F0A37405F0E4A3F0900150E09001F2
:100EB40010F07B017A01790B7D06120E30AC06EC42
:100EC400900111F0A3EFF078017C007D017A0179A3
:100ED4000B7E007F081204D39001017408F0D284C1
:100EE4007F027E001213514384027F0A7E000213A4
:010EF40051AC
:100A9200900181E060FA90010B74DCF0A37410F015
:100AA200E4A3F0A3F0A3F0A37405F0A3740AF0E4A6
:100AB200A3F0900151E0900113F0E4A3F090014FF4
:100AC200E0900115F0E4A3F090014EE0900117F0E0
:100AD200E4A3F090014DE0900119F0E4A3F090013D
:100AE20052E090011BF07B017A01790B7D11120E0D
:100AF20030AC06EC90011CF0A3EFF078017C007D95
:100B0200017A01790B7E007F131204D390010174E4
:100B120013F0D2847F027E001213514384027F01BC
:0E0B22007E001213517BFF7A15795C020109E7
:10000E0090017FE0B4010DA3E0B4010812119FE44A
:05001E0090017FF022BB
:100FB400900181E060FA90010B74DCF0A37406F0F8
:100FC400E4A3F0A37404F0E4A3F0A304F0FB7A0117
:100FD400790B7D06120E30AC06EC900111F0A3EFF4
:100FE400F078017C007D017A01790B7E007F081284
:100FF40004D39001017408F0D2847F027E0012139E
:0B100400514384027F017E0002135163
:10100F00900181E060FA90010B74DCF0A37406F09C
:10101F00E4A3F0A37403F0E4A3F0A304F0FB7A01BC
:10102F00790B7D06120E30AC06EC900111F0A3EF98
:10103F00F078017C007D017A01790B7E007F081228
:10104F0004D39001017408F0D2847F027E00121342
:0B105F00514384027F017E0002135108
:100BD500020CD4E493A3F8E493A34003F68001F256
:100BE50008DFF48029E493A3F85407240CC8C33321
:100BF500C4540F4420C8834004F456800146F6DFF0
:100C0500E4800B0102040810204080900F55E47E1B
:100C1500019360BCA3FF543F30E509541FFEE493E4
:100C2500A360010ECF54C025E060A840B8E493A3AB
:100C3500FAE493A3F8E493A3C8C582C8CAC583CAD6
:100C4500F0A3C8C582C8CAC583CADFE9DEE780BE8E
:010FB300003D
:10040300E709F608DFFA8046E709F208DFFA803EDB
:1004130088828C83E709F0A3DFFA8032E309F608C8
:10042300DFFA8078E309F208DFFA807088828C8330
:10043300E309F0A3DFFA806489828A83E0A3F608E4
:10044300DFFA805889828A83E0A3F208DFFA804CBE
:1004530080D280FA80C680D4806980F28033801095
:1004630080A680EA809A80A880DA80E280CA8033FE
:1004730089828A83ECFAE493A3C8C582C8CCC58376
:10048300CCF0A3C8C582C8CCC583CCDFE9DEE78046
:100493000D89828A83E493A3F608DFF9ECFAA9F0C5
:1004A300EDFB2289828A83ECFAE0A3C8C582C8CC1B
:1004B300C583CCF0A3C8C582C8CCC583CCDFEADE34
:1004C300E880DB89828A83E493A3F208DFF980CC96
:1004D30088F0EF60010E4E60C388F0ED2402B4048F
:1004E3000050B9F582EB2402B4040050AF23234536
:0604F30082239004537304
:1004F900BB010689828A83E0225002E722BBFE0201
:09050900E32289828A83E4932233
:10009E00E5082421F582E43401F583E00508229079
:1000AE00011E300703900121E475F0011205510283
:1000BE0004F92000E97F2ED2008018EF540F24900F
:1000CE00D43440D4FF30040BEF24BFB41A005003D5
:1000DE002461FFE50960021509050CE50C700205A7
:1000EE000B30070E90011EE475F001120551EF0260
:1000FE00053F0215C07403D2078003E4C207F5085A
:10010E0090011E120568E4F509F50BF50CE5096082
:10011E00077F201200E180F5750AFFC201C200C2FE
:10012E0002C203C205C206C2081200ADFF700D3036
:10013E0007057F001200F2AF0CAE0B22B4255FC292
:10014E00D5C2041200ADFF24D0B40A00501A75F0C7
:10015E000A780930D50508B6FF0106C6A426F62092
:10016E00D5047002D20380D924CFB41A00EF500404
:10017E00C2E5D2040202F3D20180C6D20080C0D200
:10018E000280BCD2D580BAD20580B47F201200E1A5
:10019E002002077401B5090040F112009EFF120003
:1001AE00E102011BD208D206809512009EFB1200BE
:1001BE009EFA12009EF94A4B700679C47A037BFFB1
:1001CE0020022EE509602A7E008E827583001205BC
:1001DE001260060EEE650A70F0C2D5EBC0E0EAC002
:1001EE00E0E9C0E0EE12033AD0E0F9D0E0FAD0E058
:1001FE00FB1204F9FF60AAEBC0E0EAC0E0E9C0E040
:10020E001200E1D0E02401F9D0E03400FAD0E0FB96
:10021E00E50A0460DCD50AD980877BFF7A0379363C
:10022E00D202809C791080027908C206C20880082A
:10023E00D2D5790A8004790AC2D5E50A047002F58E
:10024E000AE4FAFDFEFF12009EFC7B082001131249
:10025E00009EFD7B1030000A12009EFE12009EFFD3
:10026E007B20EC3382D592D55013C3E43000069F29
:10027E00FFE49EFEE42001039DFDE49CFCE4CBF82C
:10028E00C201EC700CCFCECDCCE824F8F870F38020
:10029E0017C3EF33FFEE33FEED33FDEC33FCEB33E0
:1002AE00FB994002FB0FD8E9EB300105F8D0E0C412
:1002BE0048B201C0E00AEC4D4E4F78207B0070C270
:1002CE00EAB50A0040BCC0E012033CD0F0D0E020FA
:1002DE000104C4C0E0C4B201C0F01200CAD0F0D50F
:1002EE00F0EB02011B12057101B85302325801895D
:1002FE004C01854202364F023E44023E49019E4366
:08030E000244550228460228B2
:100316004502284703E450018D2D01912E01B42B8F
:1003260001952301B22003CD2A014D48000001ACFE
:100336003F3F3F00790AA2D5200314300509B910C2
:10034600020404B9080104A2D520060250010420C3
:1003560002689202B509005034C0E07F20300319CC
:100366007F30A20272067205500F120393C202C2B8
:1003760006C205C2087F30800F300503E9C0E012CF
:1003860000E1300503D0E0F9D0E0B509CC3005171F
:100396007F30B9100C1200E17F583004077F788057
:1003A60003B908031200E13002057F2D0200E17F48
:1003B600202008F87F2B2006F322920280CF286E99
:1003C600756C6C2900D20112009E3001F8C20178CA
:1003D6000930D50108F602014D2D50434958120047
:1003E6009E2403B405004001E49003DF931200D27B
:0D03F600743A1200D2D203750904020232DB
:10051200BB010CE58229F582E5833AF583E022509E
:1005220006E92582F8E622BBFE06E92582F8E222E8
:0D053200E58229F582E5833AF583E4932202
:10053F00BB010689828A83F0225002F722BBFE019B
:02054F00F32295
:10055100F8E0FBA3A3E0F925F0F0E5821582700233
:070561001583E0FA38F022D7
:09056800EBF0A3EAF0A3E9F02294
:10057100D083D082F8E4937012740193700DA3A319
:1005810093F8740193F5828883E47374029368602D
:06059100EFA3A3A380DF2D
:00000001FF
