:10000000020D6A7F93121310D283220211E0900135
:100010007CE0C394645004E02405F090017CE0FF90
:100020000209D50213847F01121448900182E06412
:1000300001600690017EE0702290017DE0D3940083
:100040004015900184E0FF121464900184E0FFC326
:1000500074019FFF1214807F01800C7F01121464D1
:10006000E4FF121480E4FF1213A0220210EC759436
:1000700010E4F593F59275913B75961FF59575B261
:1000800082F5B175B410F5B375CA0875C9102202AE
:02009000121F3D
:03009300020E7BDF
:10009B00020EFAAD07900195E05430F0EFB4070073
:1000AB0050579000B4F82828730200C90200D00200
:1000BB0000D90200E20200EB0200F40200FD900105
:1000CB0095E0F08034900195E04440F0802B900156
:1000DB0095E044C0F08022900195E044C8F080196F
:1000EB00900195E044CCF08010900195E044CEF067
:1000FB008007900195E044CFF090017BE0FF9001E9
:06010B0095E0FD0214F175
:10011B0002006BE5082450F582E43401F583E00519
:10012B00082290014D300703900150E475F0011245
:10013B00065E0205792000E97F2ED2008018EF546D
:10014B000F2490D43440D4FF30040BEF24BFB41AE7
:10015B000050032461FFE50960021509050CE50C4D
:10016B007002050B30070E90014DE475F00112067D
:10017B005EEF02064C0215E47403D2078003E4C25F
:10018B0007F50890014D120675E4F509F50BF50C12
:10019B00E50960077F2012016180F5750AFFC20136
:1001AB00C200C202C203C205C206C20812012DFF61
:1001BB00700D3007057F00120172AF0CAE0B22B42D
:1001CB00255FC2D5C20412012DFF24D0B40A005002
:1001DB001A75F00A780930D50508B6FF0106C6A4D2
:1001EB0026F620D5047002D20380D924CFB41A008E
:1001FB00EF5004C2E5D204020373D20180C6D200D1
:10020B0080C0D20280BCD2D580BAD20580B47F2008
:10021B001201612002077401B5090040F112011EA1
:10022B00FF12016102019BD208D206809512011EBA
:10023B00FB12011EFA12011EF94A4B700679447A21
:10024B00047BFF20022EE509602A7E008E827583D7
:10025B000012061F60060EEE650A70F0C2D5EBC0E9
:10026B00E0EAC0E0E9C0E0EE1203BAD0E0F9D0E07A
:10027B00FAD0E0FB120579FF60AAEBC0E0EAC0E020
:10028B00E9C0E0120161D0E02401F9D0E03400FABA
:10029B00D0E0FBE50A0460DCD50AD980877BFF7AC6
:1002AB000379B6D202809C791080027908C206C20B
:1002BB00088008D2D5790A8004790AC2D5E50A04E8
:1002CB007002F50AE4FAFDFEFF12011EFC7B08200A
:1002DB00011312011EFD7B1030000A12011EFE12CB
:1002EB00011EFF7B20EC3382D592D55013C3E43033
:1002FB0000069FFFE49EFEE42001039DFDE49CFCB1
:10030B00E4CBF8C201EC700CCFCECDCCE824F8F8DE
:10031B0070F38017C3EF33FFEE33FEED33FDEC3399
:10032B00FCEB33FB994002FB0FD8E9EB300105F8EE
:10033B00D0E0C448B201C0E00AEC4D4E4F78207BB0
:10034B000070C2EAB50A0040BCC0E01203BCD0F09A
:10035B00D0E0200104C4C0E0C4B201C0F012014AD5
:10036B00D0F0D5F0EB02019B12067E02385302B29D
:10037B005802094C02054202B64F02BE4402BE4966
:10038B00021E4302C45502A84602A84502A8470410
:10039B006450020D2D02112E02342B021523023252
:1003AB0020044D2A01CD480000022C3F3F3F00792D
:1003BB000AA2D5200314300509B910020404B908A8
:1003CB000104A2D52006025001042002689202B556
:1003DB0009005034C0E07F203003197F30A2027235
:1003EB00067205500F120413C202C206C205C208E0
:1003FB007F30800F300503E9C0E012016130050347
:10040B00D0E0F9D0E0B509CC3005177F30B9100C2E
:10041B001201617F583004077F788003B9080312FB
:10042B0001613002057F2D0201617F202008F87FDA
:10043B002B2006F322920280CF286E756C6C29005C
:10044B00D20112011E3001F8C201780930D5010822
:10045B00F60201CD2D5043495812011E2403B40559
:10046B00004001E490045F93120152743A1201525E
:10047B00D2037509040202B2E709F608DFFA8046D7
:10048B00E709F208DFFA803E88828C83E709F0A344
:10049B00DFFA8032E309F608DFFA8078E309F20825
:1004AB00DFFA807088828C83E309F0A3DFFA806423
:1004BB0089828A83E0A3F608DFFA805889828A83CF
:1004CB00E0A3F208DFFA804C80D280FA80C680D499
:1004DB00806980F28033801080A680EA809A80A8A1
:1004EB0080DA80E280CA803389828A83ECFAE493D3
:1004FB00A3C8C582C8CCC583CCF0A3C8C582C8CC61
:10050B00C583CCDFE9DEE7800D89828A83E493A380
:10051B00F608DFF9ECFAA9F0EDFB2289828A83EC6D
:10052B00FAE0A3C8C582C8CCC583CCF0A3C8C582EA
:10053B00C8CCC583CCDFEADEE880DB89828A83E422
:10054B0093A3F208DFF980CC88F0EF60010E4E60C8
:10055B00C388F0ED2402B4040050B9F582EB2402F9
:10056B00B4040050AF23234582239004D373BB0103
:10057B000689828A83E0225002E722BBFE02E32235
:10058B0089828A83E49322C5F0F8A3E028F0C5F0B2
:10059B00F8E582158270021583E038F022EB9FF5A7
:1005AB00F0EA9E42F0E99D42F0EC6480C8648098CA
:1005BB0045F022EB9FF5F0EA9E42F0E99D42F0E810
:1005CB009C45F022E8600FECC313FCED13FDEE131A
:1005DB00FEEF13FFD8F122ECF0A3EDF0A3EEF0A3A6
:1005EB00EFF022A8828583F0D083D0821206051209
:1005FB000605120605120605E473E493A3C583C52D
:10060B00F0C583C8C582C8F0A3C583C5F0C583C830
:10061B00C582C822BB010CE58229F582E5833AF538
:10062B0083E0225006E92582F8E622BBFE06E92587
:10063B0082F8E222E58229F582E5833AF583E49399
:10064B0022BB010689828A83F0225002F722BBFE6D
:10065B0001F322F8E0FBA3A3E0F925F0F0E5821506
:10066B008270021583E0FA38F022EBF0A3EAF0A3D4
:10067B00E9F022D083D082F8E49370127401937066
:10068B000DA3A393F8740193F5828883E47374022A
:10069B00936860EFA3A3A380DFE490014DF0F0908B
:1006AB00014DE0FFC3940640030208B0EFC394036F
:1006BB0040030207A3E025E02408F582E43401F5AA
:1006CB0083E0FEA3E0FBAA0690014DE025E025E0C8
:1006DB002422F582E43401F583E0FCA3E0FDA3E0E2
:1006EB00FEA3E0C39BFBEE9AFAED9400F9EC9400A9
:1006FB00F890014DE025E0243AF582E43401F583CE
:10070B00E0FEA3E0FFE4FCFDD31205BE40299001FF
:10071B004DE025E02414F582E43401F583E0FEA3DB
:10072B00E0FFE4FCFD7B607AEAF9F8D31205A850F0
:10073B00030208A702081F90014DE0FF25E02414D7
:10074B00F582E43401F583E0FCA3E0D39400EC9450
:10075B0000401E7E007401A807088005C333CE330A
:10076B00CED8F9FF900120E04EF0A3E04FF0020845
:10077B009490014DE0FF7E007401A807088005C32B
:10078B0033CE33CED8F9F4FFEEF4FE900120E05EC9
:10079B00F0A3E05FF002089490014DE0FB25E0240C
:1007AB0008F582E43401F583E0FEA3E0FFE4FCFDF1
:1007BB00EB25E025E02422F582E43401F583E0F813
:1007CB00A3E0F9A3E0FAA3E02FFBEA3EFAED39F937
:1007DB00EC38F890014DE025E0243AF582E4340141
:1007EB00F583E0FEA3E0FFE4C31205BE503E90018B
:1007FB004DE025E02414F582E43401F583E0FEA3FB
:10080B00E0FFE4FCFD7B607AEAF9F8D31205A8500F
:10081B00030208A790014DE025E02414F582E4348F
:10082B0001F583E475F001120592807090014DE0A3
:10083B00FF25E02414F582E43401F583E0FCA3E00A
:10084B00D39400EC9400401D7E007401A80708802F
:10085B0005C333CE33CED8F9FF900120E04EF0A381
:10086B00E04FF0802490014DE0FF7E007401A8075B
:10087B00088005C333CE33CED8F9F4FFEEF4FE90E7
:10088B000120E05EF0A3E05FF090014DE025E02455
:10089B0014F582E43401F583E4F0A3F090014DE00C
:1008AB0004F00206AA22E490014EF090FB48F0906F
:1008BB00FB40743FF0A3E4F0A37473F0A37402F055
:1008CB0090FB4574A0F043AF80D2AFF07F647E0005
:1008DB00121364E490014DF090014DE0FFC39406B8
:1008EB00501DEF25E025E02422F582E43401F58349
:1008FB001205EE0000000090014DE004F080D9904D
:10090B00014EE0C39406506B30095FE490014DF04B
:10091B0090014DE0FF25E025E02422F582E434012F
:10092B00F583C083C082E0F8A3E0F9A3E0FAA3E06B
:10093B00FBEF25E0243AF582E43401F583E0FEA3D6
:10094B00E0FFE4FCFDEB2FFFEA3EFEED39FDEC385A
:10095B00FCD082D0831205E290014DE004F0E0B4AC
:10096B0006AEC20990014EE004F07F327E001213F6
:10097B0064808CE490014DF090014DE0FFC3940630
:10098B005047EF25E025E02422F582E43401F5837E
:10099B00C083C082E0FCA3E0FDA3E0FEA3E0FF78F0
:1009AB00031205CFD082D0831205E290014DE025D2
:1009BB00E02408F582E43401F5837405F0A374DCBC
:1009CB00F090014DE004F080AF2290014DEFF0F973
:1009DB00E0FF75F06484FDEF75F00A8475F00A840E
:1009EB00AFF0E975F00A84AEF0900193E4F090015A
:1009FB0092E4F0900187E4F0900186E05408F090C7
:100A0B000193E0FC74882DF582E43401F583E0FB5F
:100A1B00C4540FFAEC4A900193F0900192E04BF022
:100A2B00900187E0FD74882FF582E43401F583E0B3
:100A3B00FFED4F900187F0900186E0FF74882EF553
:100A4B0082E43401F583E0FEEF4E900186F0E9C3BA
:100A5B00940A501A90014DE0C3940040111214EA0D
:100A6B009001781214ED900177E0FFE4804790013C
:100A7B004DE0FFC39464501AEFC3940A4014121450
:100A8B00EA9001781214ED900177E0FF900187E076
:100A9B008023900179E0FF900193E0FD1214F19017
:100AAB000178E0FF900192E0FD1214F1900177E0E4
:100ABB00FF900187E0FD1214F1900176E0FF9001A9
:100ACB0086E0FD1214F122AD07900194E05480F002
:100ADB00900193E4F0ED14B407004003020B7B90FC
:100AEB000AF875F003A4C58325F0C58373020B0DBB
:100AFB00020B1D020B2D020B3D020B4D020B5D0277
:100B0B000B6D900194E04404F0900193E04440F0AD
:100B1B00805E900194E04402F0900193E04420F059
:100B2B00804E900194E04401F0900193E04410F06A
:100B3B00803E900194E04406F0900193E04460F015
:100B4B00802E900194E04405F0900193E04450F026
:100B5B00801E900194E04403F0900193E04430F048
:100B6B00800E900194E04407F0900193E04470F004
:100B7B0090017AE0FF900194E0FD1214F19001795D
:100B8B00E0FF900193E0FD0214F11206A47F031223
:100B9B000DF6BF020612149C120CDB7F01120DF630
:100BAB00BF020D900147E0B4010612000E120CDBE0
:100BBB00E4FF120DF6BF020D900148E0B4010612DE
:100BCB00154F120CDB7F04120DF6BF020D90014A7C
:100BDB00E0B401061211451210917F05120DF6EFCC
:100BEB006405703F900147F0A3F090014AF07F013C
:100BFB00120DF6BF0206121564120CDBE4FF120D88
:100C0B00F6BF0206121578120CDB7F04120DF6BF2D
:100C1B00021190017EE0FFC374019FFFF01213BC21
:100C2B00120CDB7F05120DF6EF700B90014704F0F1
:100C3B00A3F090014AF0227F03E4FDFCEC7078ED09
:100C4B0014602114602F14603D14604B1460592400
:100C5B0005706474822FF582E43400F583E0900113
:100C6B0080F0805374822FF582E43400F583E0909A
:100C7B00017EF0804274822FF582E43400F583E02C
:100C8B0090017DF0803174822FF582E43400F5837E
:100C9B00E090017CF0802074822FF582E43400F523
:100CAB0083E0900181F0800F74822FF582E4340091
:100CBB00F583E090017FF00F0F0DBD00010CED648B
:100CCB00064C6003020C479001837401F00212DBA7
:100CDB0090014D74DCF0A37410F0E4A3F0A3F0A327
:100CEB00F0A37405F0A3740AF0E4A3F0900180E084
:100CFB00900155F0E4A3F090017EE0900157F0E4F1
:100D0B00A3F090017DE0900159F0E4A3F090017CF9
:100D1B00E090015BF0E4A3F0900181E090015DF0C5
:100D2B007B017A01794D7D11120FCAAC06EC900153
:100D3B005EF0A3EFF078017C007D017A01794D7EA6
:100D4B00007F131205539001017413F0D2847F02BC
:100D5B007E001213644384027F017E0002136478C9
:100D6B007FE4F6D8FD758135020DB102102EE493A8
:100D7B00A3F8E493A34003F68001F208DFF4802983
:100D8B00E493A3F85407240CC8C333C4540F442072
:100D9B00C8834004F456800146F6DFE4800B010261
:100DAB0004081020408090119CE47E019360BCA34A
:100DBB00FF543F30E509541FFEE493A360010ECFAF
:100DCB0054C025E060A840B8E493A3FAE493A3F8D9
:100DDB00E493A3C8C582C8CAC583CAF0A3C8C58299
:100DEB00C8CAC583CADFE9DEE780BEEF25E024145D
:100DFB00F582E43401F583E0FCA3E0FDD39400EC31
:100E0B009400404AED9403EC940050037F0122EFD1
:100E1B0025E02414F582E43401F583E0FCA3E0FD26
:100E2B0064034C70037F0222C3ED9496EC94005044
:100E3B00037F0322EF25E02414F582E43401F583CC
:100E4B00E0FCA3E064964C7F0570247F04227E00B7
:100E5B007401A807088005C333CE33CED8F9FF90B1
:100E6B000120E05EFEA3E05F4E7F0060027F062262
:100E7B00C0E0C083C082C0D075D000C007E584300D
:100E8B00E12A5384FD900101E0601AA3E0FF04F016
:100E9B0074012FF582E43400F583E0F585900101B0
:100EAB00E014F08007900102E4F0C284E58430E0A6
:100EBB00335384FE900000E07021900105E0D39441
:100ECB00804002E4F0900105E02481F582E43400D7
:100EDB00F583E585F0900105E004F0900103E4F063
:100EEB00A37405F0D007D0D0D082D083D0E032C02D
:100EFB00E0C083C082C0D075D000C00790019FE0D6
:100F0B0004F0700690019EE004F090019EE07004E6
:100F1B00A3E0640F7011900184E0FFC374019FF094
:100F2B0090019EE4F0A3F09001A1E004F070069014
:100F3B0001A0E004F09001A0E07004A3E0646470F1
:100F4B000C90019D04F09001A0E4F0A3F0D007D029
:100F5B00D0D082D083D0E032900000E06401705E8C
:100F6B00F07B017A007981900105E024FEFD120FE0
:100F7B00CAAD07AC06900105E0FB247FF582E43493
:100F8B0000F583E0FE74802BF582E43400F583E0FA
:100F9B00FBEBFFE4900105F0EDB50722ECB5061E67
:100FAB00900081E0B4DC17A3E024FC600B24FE600E
:100FBB000A24037009020C4202133C12008F229088
:100FCB000160EDF074FFA3F0A3F0120579FF90011F
:100FDB0061E0F0A3E06FF0E4FD900161E0FEA3E0BF
:100FEB00FF30E019EEC313FEEF13FFEE64A0FEEF2C
:100FFB006401FF900161EEF0A3EFF0800B900161B3
:10100B00E0C313F0A3E013F00DEDB408CC74012989
:10101B00F9E43AFA900160E014F070AEA3E0FEA39D
:10102B00E0FF22E490014CF043BA8012006E1215DF
:10103B00041215C412151D1215361215A0D2AFC20B
:10104B00C41214D01214B6900183E0700F12121F49
:10105B00120F637F327E0012136480EB12129D120B
:10106B0012DB1208B11215B37BFF7A1579EF12015F
:10107B0089120F63120B951200261215D47F0A7E6C
:10108B000012136480EB90014D74DCF0A37406F036
:10109B00E4A3F0A37405F0E4A3F090017FE09001CA
:1010AB0052F07B017A01794D7D06120FCAAC06EC2A
:1010BB00900153F0A3EFF078017C007D017A017968
:1010CB004D7E007F081205539001017408F0D28405
:1010DB007F027E001213644384027F017E000213A1
:1010EB0064C0E0C083C082C0D075D000C004C0050E
:1010FB00C00790FB47E0FF30E604E04440F0EF30E0
:10110B00E729540FFF90FB47E04480F090FB49E048
:10111B00FCA3E0FDEF25E0243AF582E43401F583EE
:10112B00ECF0A3EDF0EFB40502D209D007D005D057
:10113B0004D0D0D082D083D0E03290017FE0C39432
:10114B0006500AE004F0E0B406037401F012129D9D
:10115B007F0112141090017FE0FF1209D57FF47EFE
:10116B000112136412129DE4FF12141090017EE021
:10117B00FF1213BC90017CE0FF1209D5900180E0B7
:10118B00FF120AD290017DE0FF12009E7F01021434
:10119B002CC18941010700410185004101860041B5
:1011AB0001870041019200410193004101940041EC
:1011BB00019500470175C3C6C7CACBCECF4A01887C
:1011CB00F505D39727B6F615F7B742019E000042F7
:1011DB0001A0000000C0E0C083C082C0D09001031A
:1011EB00E07002A3E06024900104E024FFF0900182
:1011FB0003E034FFF0E07002A3E0700F900105E014
:10120B00D3940040069000007401F0D0D0D082D06F
:10121B0083D0E032784D7C017D017BFF7A16790B10
:10122B007E007F0812055378017C007D017B017ADB
:10123B0001794D7E007F081205539001017408F06F
:10124B00D2847F027E001213644384027F017E00EE
:10125B00021364784D7C017D017BFF7A1679137E36
:10126B00007F0812055378017C007D017B017A0118
:10127B00794D7E007F081205539001017408F0D25E
:10128B00847F027E001213644384027F017E00027E
:10129B001364E4FF1213D8E4FF1213F4E4FF1213E8
:1012AB00BCE4FF12142CE4FF121410E490014DF077
:1012BB0090014DE0FFC39407501574752FF582E430
:1012CB003401F5831214ED90014DE004F080E1221E
:1012DB0090017CE0FF1209D590017DE0FF12009E8A
:1012EB00900180E0FF120AD290017EE0FF1213BC46
:1012FB0090017EE0B40104E4FF80027F011213A091
:10130B007F0102142C90014FEFF07F327E001215FB
:10131B008CC283E4FFC28290014FE0FE139281D214
:10132B0082EEC313F00FEFB408EB7F327E00021591
:10133B008C7F03E4FDFCED7012EC700F74822FF5C3
:10134B0082E43400F583E0900182F00F0F0DBD00B5
:10135B00010CED64014C70DE22D3EF9400EE94008F
:10136B00401600000075080B7509BED509FDD508A0
:10137B00FAEF1F70E41E80E122C0E0C083C0823010
:10138B009907C299900107E4F0309802C298D08275
:10139B00D083D0E032900194E054F7F0EFB4010425
:1013AB00E04408F090017AE0FF900194E0FD021414
:1013BB00F1900185E054EFF0EFB40104E04410F03C
:1013CB00900175E0FF900185E0FD0214F19001851D
:1013DB00E054DFF0EFB40104E04420F0900175E03D
:1013EB00FF900185E0FD0214F1900185E054BFF000
:1013FB00EFB40104E04440F0900175E0FF900185EB
:10140B00E0FD0214F1900185E0547FF0EFB401048C
:10141B00E04480F0900175E0FF900185E0FD02143F
:10142B00F1900186E054F7F0EFB40104E04408F0CA
:10143B00900176E0FF900186E0FD0214F19001959A
:10144B00E054DFF0EFB40104E04420F090017BE0C6
:10145B00FF900195E0FD0214F1900194E054EFF040
:10146B00EFB40104E04410F090017AE0FF90019496
:10147B00E0FD0214F1900195E054EFF0EFB401049C
:10148B00E04410F090017BE0FF900195E0FD021429
:10149B00F1900180E0B407057401F08006900180A3
:1014AB00E004F0900180E0FF020AD2D283D282D214
:1014BB0081E4FF121310D2837F44121310D28312D4
:1014CB00129D020003E4900180F090017CF0A3F0E8
:1014DB00A3F0A304F0900184F0E4900183F0229038
:1014EB000179E0FFE4FD90014EEDF0121310900135
:1014FB004EE0FF121310D2832253A23F7598504334
:10150B008E01438E0475D7E875D6FF438E1075A8F0
:10151B00102243BA0475841043844043D12075D301
:10152B00E875D2FF43D18043AF1022E4900000F066
:10153B00900081F0900101F0F0A3F0A3F0A3F0A3D1
:10154B00F0C2842290017CE0D394054004E024FB9C
:10155B00F090017CE0FF0209D590017DE0C3940679
:10156B005003E004F090017DE0FF02009E90017DAE
:10157B00E0D394004003E014F090017DE0FF020003
:10158B009ED3EF9400EE9400400A000000EF1F7012
:10159B00F01E80ED22438E805389F0758ACD758CB9
:1015AB00D4C28DD28CD2A9229001467401F0A3F043
:1015BB00A3F0A3F0A3F0A3F02253D1FDE4F5D5756E
:1015CB00D4DC43D10843AF202290019DE0B4010845
:1015DB0012125EE490019DF0228F99900107E0704A
:1015EB00FA04F0223D3D3D3D3D3D20636F64652097
:1015FB007374617274203D3D3D3D3D3D200D0A00ED
:10160B00DC030000000645D7DC0400000001472383
:00000001FF
