:10000000020E9E7F931215D9D28322020026900100
:10001000A1E0B4010DA3E0B401081214C8E49001FA
:10002000A1F022021698C0E0C083C082C0D0900127
:1000300003E07002A3E06024900104E024FFF0904C
:100040000103E034FFF0E07002A3E0700F900105BF
:10005000E0D3940040069000007401F0D0D0D0822C
:05006000D083D0E03266
:10006B00021234E4900181F090017DF0A3F0A3F033
:10007B00A304F0900185F0E4900184F0900186F0E8
:05008B00A3F0A3F02228
:03009300020FAFAA
:10009B00020D79E490014CF043BA801216571217F7
:1000AB00FE1218A9121817121830121885D2AF7F2A
:1000BB000212163112006E1209EE12189890018876
:1000CB00E0700C1208B17F0A7E0012167880EE12D7
:1000DB0017CA900184E0700F1214891210A17F329D
:1000EB007E0012167880EB1215071215457BFF7AEE
:1000FB001879CB1201891210A11208B112128D12AC
:0E010B00000E12133C7F0A7E0012167880E868
:10011B0002006BE5082450F582E43401F583E00519
:10012B00082290014D300703900150E475F0011245
:10013B00065E0205792000E97F2ED2008018EF546D
:10014B000F2490D43440D4FF30040BEF24BFB41AE7
:10015B000050032461FFE50960021509050CE50C4D
:10016B007002050B30070E90014DE475F00112067D
:10017B005EEF02064C0218B97403D2078003E4C287
:10018B0007F50890014D120675E4F509F50BF50C12
:10019B00E50960077F2012016180F5750AFFC20136
:1001AB00C200C202C203C205C206C20812012DFF61
:1001BB00700D3007057F00120172AF0CAE0B22B42D
:1001CB00255FC2D5C20412012DFF24D0B40A005002
:1001DB001A75F00A780930D50508B6FF0106C6A4D2
:1001EB0026F620D5047002D20380D924CFB41A008E
:1001FB00EF5004C2E5D204020373D20180C6D200D1
:10020B0080C0D20280BCD2D580BAD20580B47F2008
:10021B001201612002077401B5090040F112011EA1
:10022B00FF12016102019BD208D206809512011EBA
:10023B00FB12011EFA12011EF94A4B700679447A21
:10024B00047BFF20022EE509602A7E008E827583D7
:10025B000012061F60060EEE650A70F0C2D5EBC0E9
:10026B00E0EAC0E0E9C0E0EE1203BAD0E0F9D0E07A
:10027B00FAD0E0FB120579FF60AAEBC0E0EAC0E020
:10028B00E9C0E0120161D0E02401F9D0E03400FABA
:10029B00D0E0FBE50A0460DCD50AD980877BFF7AC6
:1002AB000379B6D202809C791080027908C206C20B
:1002BB00088008D2D5790A8004790AC2D5E50A04E8
:1002CB007002F50AE4FAFDFEFF12011EFC7B08200A
:1002DB00011312011EFD7B1030000A12011EFE12CB
:1002EB00011EFF7B20EC3382D592D55013C3E43033
:1002FB0000069FFFE49EFEE42001039DFDE49CFCB1
:10030B00E4CBF8C201EC700CCFCECDCCE824F8F8DE
:10031B0070F38017C3EF33FFEE33FEED33FDEC3399
:10032B00FCEB33FB994002FB0FD8E9EB300105F8EE
:10033B00D0E0C448B201C0E00AEC4D4E4F78207BB0
:10034B000070C2EAB50A0040BCC0E01203BCD0F09A
:10035B00D0E0200104C4C0E0C4B201C0F012014AD5
:10036B00D0F0D5F0EB02019B12067E02385302B29D
:10037B005802094C02054202B64F02BE4402BE4966
:10038B00021E4302C45502A84602A84502A8470410
:10039B006450020D2D02112E02342B021523023252
:1003AB0020044D2A01CD480000022C3F3F3F00792D
:1003BB000AA2D5200314300509B910020404B908A8
:1003CB000104A2D52006025001042002689202B556
:1003DB0009005034C0E07F203003197F30A2027235
:1003EB00067205500F120413C202C206C205C208E0
:1003FB007F30800F300503E9C0E012016130050347
:10040B00D0E0F9D0E0B509CC3005177F30B9100C2E
:10041B001201617F583004077F788003B9080312FB
:10042B0001613002057F2D0201617F202008F87FDA
:10043B002B2006F322920280CF286E756C6C29005C
:10044B00D20112011E3001F8C201780930D5010822
:10045B00F60201CD2D5043495812011E2403B40559
:10046B00004001E490045F93120152743A1201525E
:10047B00D2037509040202B2E709F608DFFA8046D7
:10048B00E709F208DFFA803E88828C83E709F0A344
:10049B00DFFA8032E309F608DFFA8078E309F20825
:1004AB00DFFA807088828C83E309F0A3DFFA806423
:1004BB0089828A83E0A3F608DFFA805889828A83CF
:1004CB00E0A3F208DFFA804C80D280FA80C680D499
:1004DB00806980F28033801080A680EA809A80A8A1
:1004EB0080DA80E280CA803389828A83ECFAE493D3
:1004FB00A3C8C582C8CCC583CCF0A3C8C582C8CC61
:10050B00C583CCDFE9DEE7800D89828A83E493A380
:10051B00F608DFF9ECFAA9F0EDFB2289828A83EC6D
:10052B00FAE0A3C8C582C8CCC583CCF0A3C8C582EA
:10053B00C8CCC583CCDFEADEE880DB89828A83E422
:10054B0093A3F208DFF980CC88F0EF60010E4E60C8
:10055B00C388F0ED2402B4040050B9F582EB2402F9
:10056B00B4040050AF23234582239004D373BB0103
:10057B000689828A83E0225002E722BBFE02E32235
:10058B0089828A83E49322C5F0F8A3E028F0C5F0B2
:10059B00F8E582158270021583E038F022EB9FF5A7
:1005AB00F0EA9E42F0E99D42F0EC6480C8648098CA
:1005BB0045F022EB9FF5F0EA9E42F0E99D42F0E810
:1005CB009C45F022E8600FECC313FCED13FDEE131A
:1005DB00FEEF13FFD8F122ECF0A3EDF0A3EEF0A3A6
:1005EB00EFF022A8828583F0D083D0821206051209
:1005FB000605120605120605E473E493A3C583C52D
:10060B00F0C583C8C582C8F0A3C583C5F0C583C830
:10061B00C582C822BB010CE58229F582E5833AF538
:10062B0083E0225006E92582F8E622BBFE06E92587
:10063B0082F8E222E58229F582E5833AF583E49399
:10064B0022BB010689828A83F0225002F722BBFE6D
:10065B0001F322F8E0FBA3A3E0F925F0F0E5821506
:10066B008270021583E0FA38F022EBF0A3EAF0A3D4
:10067B00E9F022D083D082F8E49370127401937066
:10068B000DA3A393F8740193F5828883E47374022A
:10069B00936860EFA3A3A380DFE490014DF0F0908B
:1006AB00014DE0FFC3940640030208B0EFC394036F
:1006BB0040030207A3E025E02408F582E43401F5AA
:1006CB0083E0FEA3E0FBAA0690014DE025E025E0C8
:1006DB002422F582E43401F583E0FCA3E0FDA3E0E2
:1006EB00FEA3E0C39BFBEE9AFAED9400F9EC9400A9
:1006FB00F890014DE025E0243AF582E43401F583CE
:10070B00E0FEA3E0FFE4FCFDD31205BE40299001FF
:10071B004DE025E02414F582E43401F583E0FEA3DB
:10072B00E0FFE4FCFD7B607AEAF9F8D31205A850F0
:10073B00030208A702081F90014DE0FF25E02414D7
:10074B00F582E43401F583E0FCA3E0D39400EC9450
:10075B0000401E7E007401A807088005C333CE330A
:10076B00CED8F9FF900120E04EF0A3E04FF0020845
:10077B009490014DE0FF7E007401A807088005C32B
:10078B0033CE33CED8F9F4FFEEF4FE900120E05EC9
:10079B00F0A3E05FF002089490014DE0FB25E0240C
:1007AB0008F582E43401F583E0FEA3E0FFE4FCFDF1
:1007BB00EB25E025E02422F582E43401F583E0F813
:1007CB00A3E0F9A3E0FAA3E02FFBEA3EFAED39F937
:1007DB00EC38F890014DE025E0243AF582E4340141
:1007EB00F583E0FEA3E0FFE4C31205BE503E90018B
:1007FB004DE025E02414F582E43401F583E0FEA3FB
:10080B00E0FFE4FCFD7B607AEAF9F8D31205A8500F
:10081B00030208A790014DE025E02414F582E4348F
:10082B0001F583E475F001120592807090014DE0A3
:10083B00FF25E02414F582E43401F583E0FCA3E00A
:10084B00D39400EC9400401D7E007401A80708802F
:10085B0005C333CE33CED8F9FF900120E04EF0A381
:10086B00E04FF0802490014DE0FF7E007401A8075B
:10087B00088005C333CE33CED8F9F4FFEEF4FE90E7
:10088B000120E05EF0A3E05FF090014DE025E02455
:10089B0014F582E43401F583E4F0A3F090014DE00C
:1008AB0004F00206AA221206A47F02120F2ABF022C
:1008BB0014900188E0700E7F01121631900188743C
:1008CB0001F01213E77F02120F2ABF05199001885E
:1008DB00E0B401127F02121631E4900188F012137A
:1008EB0092E49001A2F0900188E064016003020998
:1008FB00ED7F03120F2ABF0226900149E0B4011FBE
:10090B00E49001A2F0900186E0B40107E4F0121527
:10091B004580061217B0120E0F9001A27401F07FE2
:10092B0001120F2ABF0212900147E0B4010BE490B1
:10093B0001A2F012157F120E0FE4FF120F2ABF0255
:10094B0012900148E0B4010BE49001A2F01215AC37
:10095B00120E0F7F04120F2ABF021990014AE0B446
:10096B000112E49001A2F01212E51211D97F647EFC
:10097B00001216787F05120F2AEF64057051900153
:10098B00A2F0900147F0A3F0A3F0A3F07F01120FA8
:10099B002ABF0206121849120E0FE4FF120F2ABFCC
:1009AB00020612185D120E0F7F03120F2ABF0206EA
:1009BB009001867401F07F04120F2ABF021190017F
:1009CB007FE0FFC374019FFFF01216D0120E0F7F52
:1009DB0005120F2AEF700B90014704F0A3F0A3F060
:1009EB00A3F022E490014EF090FB48F090FB407492
:1009FB003FF0A3E4F0A37473F0A37402F090FB45F3
:100A0B0074A0F043AF80D2AFF07F647E00121678F3
:100A1B00E490014DF090014DE0FFC39406501DEFA3
:100A2B0025E025E02422F582E43401F5831205EE5E
:100A3B000000000090014DE004F080D990014EE0E1
:100A4B00C39406506B30095FE490014DF090014D5B
:100A5B00E0FF25E025E02422F582E43401F583C094
:100A6B0083C082E0F8A3E0F9A3E0FAA3E0FBEF2553
:100A7B00E0243AF582E43401F583E0FEA3E0FFE4E1
:100A8B00FCFDEB2FFFEA3EFEED39FDEC38FCD0828E
:100A9B00D0831205E290014DE004F0E0B406AEC243
:100AAB000990014EE004F07F327E00121678808CA4
:100ABB00E490014DF090014DE0FFC394065047EFD9
:100ACB0025E025E02422F582E43401F583C083C0C0
:100ADB0082E0FCA3E0FDA3E0FEA3E0FF7803120598
:100AEB00CFD082D0831205E290014DE025E024089F
:100AFB00F582E43401F5837405F0A374DCF0900106
:100B0B004DE004F080AF2290014DEFF0F9E0FF755E
:100B1B00F06484FDEF75F00A8475F00A84AFF0E998
:100B2B0075F00A84AEF0900197E4F0900196E4F032
:100B3B0090018BE4F090018AE05408F0900197E06B
:100B4B00FC748C2DF582E43401F583E0FBC4540F67
:100B5B00FAEC4A900197F0900196E04BF090018BE4
:100B6B00E0FD748C2FF582E43401F583E0FFED4F4B
:100B7B0090018BF090018AE0FF748C2EF582E434A7
:100B8B0001F583E0FEEF4E90018AF0E9C3940A5021
:100B9B001A90014DE0C3940040111217E4900179B3
:100BAB001217E7900178E0FFE4804790014DE0FFDA
:100BBB00C39464501AEFC3940A40141217E49001C3
:100BCB00791217E7900178E0FF90018BE08023907A
:100BDB00017AE0FF900197E0FD1217EB900179E0AD
:100BEB00FF900196E0FD1217EB900178E0FF90016A
:100BFB008BE0FD1217EB900177E0FF90018AE0FD8F
:100C0B001217EB22AD07900198E05480F0900197FA
:100C1B00E4F0EDB408004003020CBF900C2DF82853
:100C2B002873020C45020C51020C61020C71020C70
:100C3B0081020C91020CA1020CB1900198E4F0908E
:100C4B000197E4F0806E900198E04404F0900197D6
:100C5B00E04440F0805E900198E04402F0900197F0
:100C6B00E04420F0804E900198E04401F090019711
:100C7B00E04410F0803E900198E04406F09001971C
:100C8B00E04460F0802E900198E04405F0900197CD
:100C9B00E04450F0801E900198E04403F0900197DF
:100CAB00E04430F0800E900198E04407F0900197FB
:100CBB00E04470F090017BE0FF900198E0FD12178B
:100CCB00EB90017AE0FF900197E0FD0217EB7F03B9
:100CDB00E4FDFCEC7078ED14602114602F14603D82
:100CEB0014604B1460592405706474822FF582E4F0
:100CFB003400F583E0900181F0805374822FF582EC
:100D0B00E43400F583E090017FF0804274822FF58C
:100D1B0082E43400F583E090017EF0803174822F01
:100D2B00F582E43400F583E090017DF0802074823D
:100D3B002FF582E43400F583E0900182F0800F748C
:100D4B00822FF582E43400F583E0900180F00F0FE1
:100D5B000DBD00010CED64064C6003020CDE90012E
:100D6B00847401F01215459001A27401F022C0E0C9
:100D7B00C083C082C0D075D000C0079001A4E0042E
:100D8B00F070069001A3E004F09001A3E07004A3BF
:100D9B00E0640F7011900185E0FFC374019FF09028
:100DAB0001A3E4F0A3F09001A8E004F07006900119
:100DBB00A7E004F09001A7E07004A3E06464700E58
:100DCB009001A104F0A3F09001A7E4F0A3F090012F
:100DDB00A6E004F070069001A5E004F09001A5E0F8
:100DEB007004A3E064327011900187E0FFC37401BB
:100DFB009FF09001A5E4F0A3F0D007D0D0D082D023
:100E0B0083D0E03290014D74DCF0A37410F0E4A3B6
:100E1B00F0A3F0A3F0A37405F0A3740AF0E4A3F01D
:100E2B00900181E0900155F0E4A3F090017FE090F8
:100E3B000157F0E4A3F090017EE0900159F0E4A398
:100E4B00F090017DE090015BF0E4A3F0900182E073
:100E5B0090015DF07B017A01794D7D11121175AC1A
:100E6B0006EC90015EF0A3EFF078017C007D017A37
:100E7B0001794D7E007F131205539001017413F01D
:100E8B00D2847F027E001216784384027F017E009B
:100E9B00021678787FE4F6D8FD758135020EE502EF
:100EAB00009EE493A3F8E493A34003F68001F208B9
:100EBB00DFF48029E493A3F85407240CC8C333C48C
:100ECB00540F4420C8834004F456800146F6DFE4F7
:100EDB00800B010204081020408090143CE47E013A
:100EEB009360BCA3FF543F30E509541FFEE493A36A
:100EFB0060010ECF54C025E060A840B8E493A3FA7C
:100F0B00E493A3F8E493A3C8C582C8CAC583CAF007
:100F1B00A3C8C582C8CAC583CADFE9DEE780BEEFB6
:100F2B0025E02414F582E43401F583E0FCA3E0FD15
:100F3B00D39400EC9400404AED9403EC94005003DE
:100F4B007F0122EF25E02414F582E43401F583E0E0
:100F5B00FCA3E0FD64034C70037F0222C3ED9428D5
:100F6B00EC940050037F0322EF25E02414F582E478
:100F7B003401F583E0FCA3E064284C7F0570247FEB
:100F8B0004227E007401A807088005C333CE33CE3C
:100F9B00D8F9FF900120E05EFEA3E05F4E7F00607A
:100FAB00027F0622C0E0C083C082C0D075D000C0D3
:100FBB0007E58430E12A5384FD900101E0601AA318
:100FCB00E0FF04F074012FF582E43400F583E0F5C3
:100FDB0085900101E014F08007900102E4F0C284D7
:100FEB00E58430E0335384FE900000E070219001E3
:100FFB0005E0D394804002E4F0900105E02481F5F4
:10100B0082E43400F583E585F0900105E004F0906F
:10101B000103E4F0A37405F0D007D0D0D082D083C5
:10102B00D0E032AD07900199E05430F0EFB40700F7
:10103B005057901044F82828730210590210600280
:10104B00106902107202107B02108402108D900145
:10105B0099E0F08034900199E04440F0802B9001AE
:10106B0099E044C0F08022900199E044C8F08019C7
:10107B00900199E044CCF08010900199E044CEF0BF
:10108B008007900199E044CFF090017CE0FF900144
:10109B0099E0FD0217EB900000E064017065F07BB6
:1010AB00017A007981900105E024FEFD121175ADE6
:1010BB0007AC06900105E0FB247FF582E43400F5D4
:1010CB0083E0FE74802BF582E43400F583E0FBEBC8
:1010DB00FFE4900105F0EDB50729ECB5062590006E
:1010EB0081E0B4DC1EA3E024FC600F24FE600E2420
:1010FB00F6600D240D700C020CD902110F021605AF
:10110B001218C42290014D7403F0E4A3F0A3F090E5
:10111B00014EE0FEA3E0FFC39402EE9400504AEEB2
:10112B007030EF14601704702990014DE02482F5A4
:10113B0082E43400F583E0FF1216EC801590014D2C
:10114B00E02482F582E43400F583E0900183F01211
:10115B00128D90014DE02402F090014FE004F070ED
:10116B00AE90014EE004F080A622900160EDF07489
:10117B00FFA3F0A3F0120579FF900161E0F0A3E06B
:10118B006FF0E4FD900161E0FEA3E0FF30E019EEAB
:10119B00C313FEEF13FFEE64A0FEEF6401FF90019B
:1011AB0061EEF0A3EFF0800B900161E0C313F0A3AD
:1011BB00E013F00DEDB408CC740129F9E43AFA9080
:1011CB000160E014F070AEA3E0FEA3E0FF229001FB
:1011DB004D74DCF0A37406F0E4A3F0A37405F0E403
:1011EB00A3F0900180E0900152F07B017A01794DE0
:1011FB007D06121175AC06EC900153F0A3EFF0785D
:10120B00017C007D017A01794D7E007F0812055328
:10121B009001017408F0D2847F027E00121678438D
:10122B0084027F0A7E00021678C0E0C083C082C0B1
:10123B00D075D000C004C005C00790FB47E0FF305D
:10124B00E604E04440F0EF30E729540FFF90FB47F2
:10125B00E04480F090FB49E0FCA3E0FDEF25E024A7
:10126B003AF582E43401F583ECF0A3EDF0EFB4052D
:10127B0002D209D007D005D004D0D0D082D083D0F1
:10128B00E032900186E070517F0112175C90017E75
:10129B00E0D394004034A3E0640170107F01121678
:1012AB00D0900183E0B401028007801EE4FF121688
:1012BB00D0900185E0FF121778900185E0FFC37491
:1012CB00019FFF1217947F01800C7F01121778E4A6
:1012DB00FF121794E4FF1216B422900180E0C3941E
:1012EB0006500AE004F0E0B406037401F01215078F
:1012FB007F01121724900180E0FF120B127FF47E06
:10130B0001121678121507E4FF12172490017FE0E3
:10131B00FF1216D090017DE0FF120B12900181E0BD
:10132B00FF120C0F90017EE0FF12102E7F010217AF
:10133B0040900187E0FF900175E06F604990018656
:10134B00E064017039EFB4010F900182E0FF120BE2
:10135B00127F011217088026121507E4FF12177867
:10136B00E4FF121794E4FF12175C7F01121708E4D5
:10137B00FF1216B4E4FF12102EE4FF120C0F9001B3
:10138B0087E0900175F02290014D74DCF0A3740698
:10139B00F0E4A3F0A37404F0E4A3F0A304F0FB7A4D
:1013AB0001794D7D06121175AC06EC900153F0A33B
:1013BB00EFF078017C007D017A01794D7E007F088A
:1013CB001205539001017408F0D2847F027E001243
:1013DB0016784384027F017E0002167890014D74CB
:1013EB00DCF0A37406F0E4A3F0A37403F0E4A3F021
:1013FB00A304F0FB7A01794D7D06121175AC06EC56
:10140B00900153F0A3EFF078017C007D017A017914
:10141B004D7E007F081205539001017408F0D284B1
:10142B007F027E001216784384027F017E00021633
:10143B0078C189410107004101890041018A0041BE
:10144B00018B004101960041019700410198004139
:10145B00019900470176C3C6C7CACBCECF4A018CD0
:10146B00F505D39727B6F615F7B74101750042017D
:10147B00A700004201A300004201A5000000784D27
:10148B007C017D017BFF7A1879E77E007F081205CE
:10149B005378017C007D017B017A01794D7E007FC1
:1014AB00081205539001017408F0D2847F027E006C
:1014BB001216784384027F017E00021678784D7CE9
:1014CB00017D017BFF7A1879EF7E007F08120553AF
:1014DB0078017C007D017B017A01794D7E007F08CC
:1014EB001205539001017408F0D2847F027E001222
:1014FB0016784384027F017E00021678E4FF1216F1
:10150B00ECE4FF121708E4FF1216D0E4FF121740A9
:10151B00E4FF121724E490014DF090014DE0FFC35E
:10152B009407501574762FF582E43401F583121766
:10153B00E790014DE004F080E12290017DE0FF1285
:10154B000B1290017EE0FF12102E900181E0FF1232
:10155B000C0F90017FE0FF1216D090017FE0B401D9
:10156B0004E4FF80027F011216B47F01121740E4DE
:10157B00FF021708900186E0701290017DE0C39482
:10158B00645004E02405F090017D800F900182E00F
:10159B00C394785003E004F0900182E0FF120B1229
:1015AB0022900186E0701290017DE0D394054004F7
:1015BB00E024FBF090017D800F900182E0D3942812
:1015CB004003E014F0900182E0FF120B1222900115
:1015DB0051EFF07F327E00121871C283E4FFC2829A
:1015EB00900151E0FE139281D282EEC313F00FEF04
:1015FB00B408EB7F327E00021871900084E0B405D2
:10160B00171214897F147E001216781214897F1416
:10161B007E00121678121489900084E0B4030690B1
:10162B0001A27401F022EF24FE601204701DC2C4EB
:10163B00C2B7C2A0C2A1C2A2C2A3C2A422D2C4C2B8
:10164B00A2D2B7D2A0D2A1D2A4D2A322759410E475
:10165B00F593F59275913B75961FF59575B282F5DD
:10166B00B175B410F5B375CA0875C91022D3EF94D0
:10167B0000EE9400401600000075080B7509BED5EE
:10168B0009FDD508FAEF1F70E41E80E122C0E0C00F
:10169B0083C082309907C299900107E4F030980219
:1016AB00C298D082D083D0E032900198E054F7F00A
:1016BB00EFB40104E04408F090017BE0FF90019847
:1016CB00E0FD0217EB900189E054EFF0EFB4010459
:1016DB00E04410F0900176E0FF900189E0FD0217E5
:1016EB00EB900189E054DFF0EFB40104E04420F00B
:1016FB00900176E0FF900189E0FD0217EB900189E4
:10170B00E054BFF0EFB40104E04440F0900176E008
:10171B00FF900189E0FD0217EB900189E0547FF007
:10172B00EFB40104E04480F0900176E0FF90018972
:10173B00E0FD0217EB90018AE054F7F0EFB40104DF
:10174B00E04408F0900177E0FF90018AE0FD02177A
:10175B00EB900199E054DFF0EFB40104E04420F08A
:10176B0090017CE0FF900199E0FD0217EB9001984E
:10177B00E054EFF0EFB40104E04410F090017BE093
:10178B00FF900198E0FD0217EB900199E054EFF008
:10179B00EFB40104E04410F090017CE0FF9001995C
:1017AB00E0FD0217EB900181E0B407057401F080B6
:1017BB0006900181E004F0900181E0FF020C0FD252
:1017CB0083D282D281E4FF1215D9D2837F441215C2
:1017DB00D9D28312150702000390017AE0FFE4FDD2
:1017EB00900150EDF01215D9900150E0FF1215D970
:1017FB00D2832253A23F759850438E01438E0475BA
:10180B00D7E875D6FF438E1075A8102243BA04751E
:10181B00841043844043D12075D3E875D2FF43D164
:10182B008043AF1022E4900000F0900081F0900113
:10183B0001F0F0A3F0A3F0A3F0A3F0C28422900177
:10184B007EE0C394065003E004F090017EE0FF02BB
:10185B00102E90017EE0D394004003E014F0900131
:10186B007EE0FF02102ED3EF9400EE9400400A00AE
:10187B000000EF1F70F01E80ED22438E805389F025
:10188B00758ACD758CD4C28DD28CD2A9229001468B
:10189B007401F0A3F0A3F0A3F0A3F0A3F02253D1B3
:1018AB00FDE4F5D575D4DC43D10843AF20228F99E5
:1018BB00900107E070FA04F0229001A27401F0226B
:1018CB003D3D3D3D3D3D20636F646520737461720A
:1018DB0074203D3D3D3D3D3D200D0A00DC030000E5
:0C18EB00000645D7DC0400000002466344
:00000001FF
