:10000000020B947F93120E0FD28322020026D3EFAD
:100010009400EE9400400A000000EF1F70F01E8074
:02002000ED22CF
:10002300020E3BC0E0C083C082C0D0900103E070E9
:1000330002A3E06024900104E024FFF0900103E0B8
:1000430034FFF0E07002A3E0700F900105E0D39459
:100053000040069000007401F0D0D0D082D083D04D
:02006300E03289
:10006B00020D12D3EF9400EE9400401600000075C1
:10007B00080B7509BED509FDD508FAEF1F70E41EF4
:03008B0080E122EF
:10009300020C20EF25E02428F582E43401F583E007
:1000A300FCA3E0FDD39400EC9400404AED9403ECF0
:1000B300940050037F0122EF25E02428F582E434E5
:1000C30001F583E0FCA3E0FD64034C70037F02228F
:1000D300C3ED9496EC940050037F0322EF25E024B4
:1000E30028F582E43401F583E0FCA3E064964C7FB9
:1000F3000570247F04227E007401A807088005C3CD
:1001030033CE33CED8F9FF900148E05EFEA3E05F23
:100113004E7F0060027F062202006BE50824AEF5E5
:1001230082E43401F583E00508229001AB30070334
:100133009001AEE475F00112065E0205792000E934
:100143007F2ED2008018EF540F2490D43440D4FF74
:1001530030040BEF24BFB41A0050032461FFE509F8
:1001630060021509050CE50C7002050B30070E90B3
:1001730001ABE475F00112065EEF02064C020F9725
:100183007403D2078003E4C207F5089001AB12069B
:1001930075E4F509F50BF50CE50960077F201201FD
:1001A3006180F5750AFFC201C200C202C203C20523
:1001B300C206C20812012DFF700D3007057F001221
:1001C3000172AF0CAE0B22B4255FC2D5C20412017B
:1001D3002DFF24D0B40A00501A75F00A780930D5DF
:1001E3000508B6FF0106C6A426F620D5047002D280
:1001F3000380D924CFB41A00EF5004C2E5D204021D
:100203000373D20180C6D20080C0D20280BCD2D593
:1002130080BAD20580B47F201201612002077401E5
:10022300B5090040F112011EFF12016102019BD2C8
:1002330008D206809512011EFB12011EFA12011E3E
:10024300F94A4B700679447A047BFF20022EE509B4
:10025300602A7E008E8275830012061F60060EEEF2
:10026300650A70F0C2D5EBC0E0EAC0E0E9C0E0EE99
:100273001203BAD0E0F9D0E0FAD0E0FB120579FF1F
:1002830060AAEBC0E0EAC0E0E9C0E0120161D0E09F
:100293002401F9D0E03400FAD0E0FBE50A0460DC85
:1002A300D50AD980877BFF7A0379B6D202809C79FD
:1002B3001080027908C206C2088008D2D5790A8064
:1002C30004790AC2D5E50A047002F50AE4FAFDFED0
:1002D300FF12011EFC7B0820011312011EFD7B107F
:1002E30030000A12011EFE12011EFF7B20EC338236
:1002F300D592D55013C3E43000069FFFE49EFEE47D
:100303002001039DFDE49CFCE4CBF8C201EC700CDE
:10031300CFCECDCCE824F8F870F38017C3EF33FFCA
:10032300EE33FEED33FDEC33FCEB33FB994002FB84
:100333000FD8E9EB300105F8D0E0C448B201C0E0C2
:100343000AEC4D4E4F78207B0070C2EAB50A00409C
:10035300BCC0E01203BCD0F0D0E0200104C4C0E074
:10036300C4B201C0F012014AD0F0D5F0EB02019BF8
:1003730012067E02385302B25802094C02054202A9
:10038300B64F02BE4402BE49021E4302C45502A830
:100393004602A84502A847046450020D2D02112EFF
:1003A30002342B021523023220044D2A01CD4800CA
:1003B30000022C3F3F3F00790AA2D52003143005E9
:1003C30009B910020404B9080104A2D52006025099
:1003D30001042002689202B509005034C0E07F2076
:1003E3003003197F30A20272067205500F120413F4
:1003F300C202C206C205C2087F30800F300503E97E
:10040300C0E0120161300503D0E0F9D0E0B509CCBA
:100413003005177F30B9100C1201617F5830040783
:100423007F788003B908031201613002057F2D0232
:1004330001617F202008F87F2B2006F3229202809F
:10044300CF286E756C6C2900D20112011E3001F8A1
:10045300C201780930D50108F60201CD2D50434978
:100463005812011E2403B405004001E490045F9375
:10047300120152743A120152D2037509040202B2F4
:10048300E709F608DFFA8046E709F208DFFA803E5B
:1004930088828C83E709F0A3DFFA8032E309F60848
:1004A300DFFA8078E309F208DFFA807088828C83B0
:1004B300E309F0A3DFFA806489828A83E0A3F60864
:1004C300DFFA805889828A83E0A3F208DFFA804C3E
:1004D30080D280FA80C680D4806980F28033801015
:1004E30080A680EA809A80A880DA80E280CA80337E
:1004F30089828A83ECFAE493A3C8C582C8CCC583F6
:10050300CCF0A3C8C582C8CCC583CCDFE9DEE780C5
:100513000D89828A83E493A3F608DFF9ECFAA9F044
:10052300EDFB2289828A83ECFAE0A3C8C582C8CC9A
:10053300C583CCF0A3C8C582C8CCC583CCDFEADEB3
:10054300E880DB89828A83E493A3F208DFF980CC15
:1005530088F0EF60010E4E60C388F0ED2402B4040E
:100563000050B9F582EB2402B4040050AF232345B5
:1005730082239004D373BB010689828A83E02250CD
:1005830002E722BBFE02E32289828A83E49322C527
:10059300F0F8A3E028F0C5F0F8E5821582700215A3
:1005A30083E038F022EB9FF5F0EA9E42F0E99D42AA
:1005B300F0EC6480C864809845F022EB9FF5F0EA84
:1005C3009E42F0E99D42F0E89C45F022E8600FEC82
:1005D300C313FCED13FDEE13FEEF13FFD8F122EC72
:1005E300F0A3EDF0A3EEF0A3EFF022A8828583F051
:1005F300D083D082120605120605120605120605DF
:10060300E473E493A3C583C5F0C583C8C582C8F06A
:10061300A3C583C5F0C583C8C582C822BB010CE549
:100623008229F582E5833AF583E0225006E92582A3
:10063300F8E622BBFE06E92582F8E222E58229F5E7
:1006430082E5833AF583E49322BB010689828A8398
:10065300F0225002F722BBFE01F322F8E0FBA3A332
:10066300E0F925F0F0E582158270021583E0FA388F
:10067300F022EBF0A3EAF0A3E9F022D083D082F8D2
:10068300E4937012740193700DA3A393F874019310
:10069300F5828883E4737402936860EFA3A3A38055
:1006A300DFE49001ACF04391385392C743C9105330
:1006B300CAEF90FB48F090FB40743CF0A3E4F0A336
:1006C3007473F0A37402F090FB4574A0F043AF8001
:1006D300D2AFF07F647E0012006EE49001ABF09025
:1006E30001ABE0FFC39410501DEF25E025E0244A41
:1006F300F582E43401F5831205EE00000000900159
:10070300ABE004F080D99001ACE0C39408506B30A7
:10071300095FE49001ABF09001ABE0FF25E025E039
:10072300244AF582E43401F583C083C082E0F8A350
:10073300E0F9A3E0FAA3E0FBEF25E0248AF582E4E5
:100743003401F583E0FEA3E0FFE4FCFDEB2FFFEAB9
:100753003EFEED39FDEC38FCD082D0831205E290E9
:1007630001ABE004F0E0B410AEC2099001ACE004C8
:10077300F07F327E0012006E808CE49001ABF0902B
:1007830001ABE0FFC394105047EF25E025E0244A76
:10079300F582E43401F583C083C082E0FCA3E0FD6D
:1007A300A3E0FEA3E0FF78031205CFD082D083122B
:1007B30005E29001ABE025E02408F582E43401F57D
:1007C300837405F0A374DCF09001ABE004F080AF18
:1007D30022E49001ABF0F09001ABE0FFC394104032
:1007E300030208F7EF25E02408F582E43401F583DA
:1007F300E0FEA3E0FBAA069001ABE025E025E024A0
:100803004AF582E43401F583E0FCA3E0FDA3E0FEB6
:10081300A3E0C39BFBEE9AFAED9400F9EC9400F885
:100823009001ABE025E0248AF582E43401F583E00E
:10083300FEA3E0FFE4FCFDD31205BE403E9001ABF6
:10084300E025E02428F582E43401F583E0FEA3E00B
:10085300FFE4FCFD7B607AEAF9F8D31205A85003A4
:100863000208EE9001ABE025E02428F582E4340190
:10087300F583E475F00112059280709001ABE0FFFF
:1008830025E02428F582E43401F583E0FCA3E0D3DA
:100893009400EC9400401D7E007401A807088005B5
:1008A300C333CE33CED8F9FF900148E04EF0A3E036
:1008B3004FF080249001ABE0FF7E007401A807088D
:1008C3008005C333CE33CED8F9F4FFEEF4FE9001A6
:1008D30048E05EF0A3E05FF09001ABE025E0242860
:1008E300F582E43401F583E4F0A3F09001ABE00476
:1008F300F00207DA229001ABEFF0F9E0FF75F06444
:1009030084FDEF75F00A8475F00A84AFF0E975F0A1
:100913000A84AEF09001E8E4F09001E7E4F090017E
:10092300DCE4F09001DBE4F09001E8E0FC74DD2D01
:10093300F582E43401F583E0FBC4540FFAEC4A90EA
:1009430001E8F09001E7E04BF09001DCE0FD74DD9D
:100953002FF582E43401F583E0FFED4F9001DCF0E5
:100963009001DBE0FF74DD2EF582E43401F583E0D2
:10097300FEEF4E9001DBF0E9C3940A501A9001ABED
:10098300E0C394004011120F649001D6120F6790D8
:1009930001D5E0FFE480479001ABE0FFC3946450CE
:1009A3001AEFC3940A4014120F649001D6120F6712
:1009B3009001D5E0FF9001DCE080239001D7E0FFB8
:1009C3009001E8E0FD120F6B9001D6E0FF9001E784
:1009D300E0FD120F6B9001D5E0FF9001DCE0FD120A
:1009E3000F6B9001D4E0FF9001DBE0FD120F6B224F
:1009F300E49001AAF043BA80C2B3C2B4C2C0F59373
:100A0300759407F591759230F59575961075B282C8
:100A1300F5B1F5B375B401F5C9F5CAF5CBF5CCF568
:100A2300E1F5E2120F7ED2AFC2C4120F4A120D6B70
:100A33001206A47BFF7A0F79A21201891207D47FD1
:100A430001120096BF020BC2A47BFF7A0F79BE127C
:100A530001897F02120096BF020BC2A47BFF7A0FAB
:100A630079C51201897F03120096BF020BC2A47BD2
:100A7300FF7A0F79CC1201897F04120096BF020B13
:100A8300C2A47BFF7A0F79D31201897F05120096E6
:100A9300BF020BC2A47BFF7A0F79DA1201897F06AA
:100AA300120096BF020BC2A47BFF7A0F79E11201F9
:100AB300897F07120096BF020BC2A47BFF7A0F79CE
:100AC300E81201897F0A7E0012006E020A3FAD0719
:100AD3009001E9E05480F09001E8E4F0ED14B407EC
:100AE300004003020B7A900AF775F003A4C583252F
:100AF300F0C58373020B0C020B1C020B2C020B3C84
:100B0300020B4C020B5C020B6C9001E9E04404F015
:100B13009001E8E04440F0805E9001E9E04402F097
:100B23009001E8E04420F0804E9001E9E04401F0B8
:100B33009001E8E04410F0803E9001E9E04406F0C3
:100B43009001E8E04460F0802E9001E9E04403F076
:100B53009001E8E04430F0801E9001E9E04405F0A4
:100B63009001E8E04450F0800E9001E9E04407F082
:100B73009001E8E04470F09001D8E0FF9001E9E0D3
:100B8300FD120F6B9001D7E0FF9001E8E0FD020F2B
:100B93006B787FE4F6D8FD758135020BDB0209F330
:100BA300E493A3F8E493A34003F68001F208DFF48F
:100BB3008029E493A3F85407240CC8C333C4540F07
:100BC3004420C8834004F456800146F6DFE4800BDA
:100BD3000102040810204080900DA7E47E01936079
:100BE300BCA3FF543F30E509541FFEE493A3600107
:100BF3000ECF54C025E060A840B8E493A3FAE49371
:100C0300A3F8E493A3C8C582C8CAC583CAF0A3C81E
:100C1300C582C8CAC583CADFE9DEE780BEC0E0C0BB
:100C230083C082C0D075D000C007E58430E12A5369
:100C330084FD900101E0601AA3E0FF04F074012F2A
:100C4300F582E43400F583E0F585900101E014F0CA
:100C53008007900102E4F0C284E58430E0335384DA
:100C6300FE900000E07021900105E0D394804002E3
:100C7300E4F0900105E02481F582E43400F583E596
:100C830085F0900105E004F0900103E4F0A37405FE
:100C9300F0D007D0D0D082D083D0E032AD0790011E
:100CA300EAE05430F0EFB407005057900CB5F82841
:100CB3002873020CCA020CD1020CDA020CE3020CF8
:100CC300EC020CF5020CFE9001EAE0F08034900196
:100CD300EAE04440F0802B9001EAE044C0F0802237
:100CE3009001EAE044C8F080199001EAE044CCF0B6
:100CF30080109001EAE044CEF080079001EAE044DE
:100D0300CFF09001D9E0FF9001EAE0FD020F6BC044
:100D1300E0C083C082C0D075D000C004C005C00746
:100D230090FB47E0FF30E604E04440F0EF30E72972
:100D3300540FFF90FB47E04480F090FB49E0FCA395
:100D4300E0FDEF25E0248AF582E43401F583ECF03D
:100D5300A3EDF0EFB40502D209D007D005D004D03B
:100D6300D0D082D083D0E0327F641208F87F05129E
:100D73000C9F7F03120AD1D200120E57D200120E1B
:100D830072D200120E8DD200120EA8D200120EC320
:100D9300D200120EDED200120EF9D200120F14D2BC
:100DA30000020F2FC189410107004101DA0041010F
:100DB300DB004101DC004101E7004101E8004101A2
:100DC300E9004101EA004701D3C3C6C7CACBCECF6E
:100DD3004A01DDF505D39727B6F615F7B700E4907A
:100DE30001ABF09001ABE0FFC39407501E74D32F07
:100DF300F582E43401F583E0FF120E0FE4FF120ED7
:100E03000FD2839001ABE004F080D8229001ADEFC4
:100E1300F07F327E0012000EC283E4FFC282900193
:100E2300ADE0FE139281D282EEC313F00FEFB4084C
:100E3300EB7F327E0002000EC0E0C083C082309997
:100E430007C299900107E4F0309802C298D082D08B
:100E530083D0E0329001E9E054F7F0300004E0443D
:100E630008F09001D8E0FF9001E9E0FD020F6B90DC
:100E730001DAE054EFF0300004E04410F09001D3C5
:100E8300E0FF9001DAE0FD020F6B9001DAE054DF3E
:100E9300F0300004E04420F09001D3E0FF9001DA49
:100EA300E0FD020F6B9001DAE054BFF0300004E084
:100EB3004440F09001D3E0FF9001DAE0FD020F6BB4
:100EC3009001DAE0547FF0300004E04480F09001B8
:100ED300D3E0FF9001DAE0FD020F6B9001DBE054F9
:100EE300F7F0300004E04408F09001D4E0FF9001F3
:100EF300DBE0FD020F6B9001EAE054DFF030000409
:100F0300E04420F09001D9E0FF9001EAE0FD020FF8
:100F13006B9001E9E054EFF0300004E04410F090EE
:100F230001D8E0FF9001E9E0FD020F6B9001EAE0D8
:100F330054EFF0300004E04410F09001D9E0FF904A
:100F430001EAE0FD020F6BD283D282D281E4FF1269
:100F53000E0FD2837F44120E0FD283120DE10200D3
:100F6300039001D7E0FFE4FD9001ACEDF0120E0F0A
:100F73009001ACE0FF120E0FD2832253A23F75986B
:100F830050438E01438E0475D7E875D6FF438E1008
:100F930075A810228F99900107E070FA04F0223DA2
:100FA3003D3D3D3D3D20636F646520737461727404
:100FB300203D3D3D3D3D3D200D0A00313131200DA9
:100FC3000A00323232200D0A00333333200D0A0077
:100FD300343434200D0A00353535200D0A003636F9
:0C0FE30036200D0A00373737200D0A00B9
:00000001FF
