:10000000020DA17F93121239D2832202114E900168
:100010007DE0C394645004E02405F090017DE0FF8E
:100020000209D5021285C1894101070041018400FE
:10003000410185004101860041019100410192008A
:100040004101930041019400470176C3C6C7CACB62
:10005000CECF4A0187F505D39727B6F615F7B742F5
:06006000019C00000022DB
:10006B00021053759410E4F593F59275913B7596C8
:10007B001FF59575B282F5B175B410F5B375CA0855
:04008B0075C9102201
:03009300020EB2A8
:10009B000211CCAD07900194E05430F0EFB407009F
:1000AB0050579000B4F82828730200C90200D00200
:1000BB0000D90200E20200EB0200F40200FD900105
:1000CB0094E0F08034900194E04440F0802B900158
:1000DB0094E044C0F08022900194E044C8F0801971
:1000EB00900194E044CCF08010900194E044CEF069
:1000FB008007900194E044CFF090017CE0FF9001E9
:0E010B0094E0FD0213CFDC030000000645D790
:10011B0002006BE5082451F582E43401F583E00518
:10012B00082290014E300703900151E475F0011243
:10013B00065E0205792000E97F2ED2008018EF546D
:10014B000F2490D43440D4FF30040BEF24BFB41AE7
:10015B000050032461FFE50960021509050CE50C4D
:10016B007002050B30070E90014EE475F00112067C
:10017B005EEF02064C0214CA7403D2078003E4C27A
:10018B0007F50890014E120675E4F509F50BF50C11
:10019B00E50960077F2012016180F5750AFFC20136
:1001AB00C200C202C203C205C206C20812012DFF61
:1001BB00700D3007057F00120172AF0CAE0B22B42D
:1001CB00255FC2D5C20412012DFF24D0B40A005002
:1001DB001A75F00A780930D50508B6FF0106C6A4D2
:1001EB0026F620D5047002D20380D924CFB41A008E
:1001FB00EF5004C2E5D204020373D20180C6D200D1
:10020B0080C0D20280BCD2D580BAD20580B47F2008
:10021B001201612002077401B5090040F112011EA1
:10022B00FF12016102019BD208D206809512011EBA
:10023B00FB12011EFA12011EF94A4B700679447A21
:10024B00047BFF20022EE509602A7E008E827583D7
:10025B000012061F60060EEE650A70F0C2D5EBC0E9
:10026B00E0EAC0E0E9C0E0EE1203BAD0E0F9D0E07A
:10027B00FAD0E0FB120579FF60AAEBC0E0EAC0E020
:10028B00E9C0E0120161D0E02401F9D0E03400FABA
:10029B00D0E0FBE50A0460DCD50AD980877BFF7AC6
:1002AB000379B6D202809C791080027908C206C20B
:1002BB00088008D2D5790A8004790AC2D5E50A04E8
:1002CB007002F50AE4FAFDFEFF12011EFC7B08200A
:1002DB00011312011EFD7B1030000A12011EFE12CB
:1002EB00011EFF7B20EC3382D592D55013C3E43033
:1002FB0000069FFFE49EFEE42001039DFDE49CFCB1
:10030B00E4CBF8C201EC700CCFCECDCCE824F8F8DE
:10031B0070F38017C3EF33FFEE33FEED33FDEC3399
:10032B00FCEB33FB994002FB0FD8E9EB300105F8EE
:10033B00D0E0C448B201C0E00AEC4D4E4F78207BB0
:10034B000070C2EAB50A0040BCC0E01203BCD0F09A
:10035B00D0E0200104C4C0E0C4B201C0F012014AD5
:10036B00D0F0D5F0EB02019B12067E02385302B29D
:10037B005802094C02054202B64F02BE4402BE4966
:10038B00021E4302C45502A84602A84502A8470410
:10039B006450020D2D02112E02342B021523023252
:1003AB0020044D2A01CD480000022C3F3F3F00792D
:1003BB000AA2D5200314300509B910020404B908A8
:1003CB000104A2D52006025001042002689202B556
:1003DB0009005034C0E07F203003197F30A2027235
:1003EB00067205500F120413C202C206C205C208E0
:1003FB007F30800F300503E9C0E012016130050347
:10040B00D0E0F9D0E0B509CC3005177F30B9100C2E
:10041B001201617F583004077F788003B9080312FB
:10042B0001613002057F2D0201617F202008F87FDA
:10043B002B2006F322920280CF286E756C6C29005C
:10044B00D20112011E3001F8C201780930D5010822
:10045B00F60201CD2D5043495812011E2403B40559
:10046B00004001E490045F93120152743A1201525E
:10047B00D2037509040202B2E709F608DFFA8046D7
:10048B00E709F208DFFA803E88828C83E709F0A344
:10049B00DFFA8032E309F608DFFA8078E309F20825
:1004AB00DFFA807088828C83E309F0A3DFFA806423
:1004BB0089828A83E0A3F608DFFA805889828A83CF
:1004CB00E0A3F208DFFA804C80D280FA80C680D499
:1004DB00806980F28033801080A680EA809A80A8A1
:1004EB0080DA80E280CA803389828A83ECFAE493D3
:1004FB00A3C8C582C8CCC583CCF0A3C8C582C8CC61
:10050B00C583CCDFE9DEE7800D89828A83E493A380
:10051B00F608DFF9ECFAA9F0EDFB2289828A83EC6D
:10052B00FAE0A3C8C582C8CCC583CCF0A3C8C582EA
:10053B00C8CCC583CCDFEADEE880DB89828A83E422
:10054B0093A3F208DFF980CC88F0EF60010E4E60C8
:10055B00C388F0ED2402B4040050B9F582EB2402F9
:10056B00B4040050AF23234582239004D373BB0103
:10057B000689828A83E0225002E722BBFE02E32235
:10058B0089828A83E49322C5F0F8A3E028F0C5F0B2
:10059B00F8E582158270021583E038F022EB9FF5A7
:1005AB00F0EA9E42F0E99D42F0EC6480C8648098CA
:1005BB0045F022EB9FF5F0EA9E42F0E99D42F0E810
:1005CB009C45F022E8600FECC313FCED13FDEE131A
:1005DB00FEEF13FFD8F122ECF0A3EDF0A3EEF0A3A6
:1005EB00EFF022A8828583F0D083D0821206051209
:1005FB000605120605120605E473E493A3C583C52D
:10060B00F0C583C8C582C8F0A3C583C5F0C583C830
:10061B00C582C822BB010CE58229F582E5833AF538
:10062B0083E0225006E92582F8E622BBFE06E92587
:10063B0082F8E222E58229F582E5833AF583E49399
:10064B0022BB010689828A83F0225002F722BBFE6D
:10065B0001F322F8E0FBA3A3E0F925F0F0E5821506
:10066B008270021583E0FA38F022EBF0A3EAF0A3D4
:10067B00E9F022D083D082F8E49370127401937066
:10068B000DA3A393F8740193F5828883E47374022A
:10069B00936860EFA3A3A380DFE490014EF0F0908A
:1006AB00014EE0FFC3940640030208B0EFC394036E
:1006BB0040030207A3E025E02408F582E43401F5AA
:1006CB0083E0FEA3E0FBAA0690014EE025E025E0C7
:1006DB002422F582E43401F583E0FCA3E0FDA3E0E2
:1006EB00FEA3E0C39BFBEE9AFAED9400F9EC9400A9
:1006FB00F890014EE025E0243AF582E43401F583CD
:10070B00E0FEA3E0FFE4FCFDD31205BE40299001FF
:10071B004EE025E02414F582E43401F583E0FEA3DA
:10072B00E0FFE4FCFD7B607AEAF9F8D31205A850F0
:10073B00030208A702081F90014EE0FF25E02414D6
:10074B00F582E43401F583E0FCA3E0D39400EC9450
:10075B0000401E7E007401A807088005C333CE330A
:10076B00CED8F9FF900120E04EF0A3E04FF0020845
:10077B009490014EE0FF7E007401A807088005C32A
:10078B0033CE33CED8F9F4FFEEF4FE900120E05EC9
:10079B00F0A3E05FF002089490014EE0FB25E0240B
:1007AB0008F582E43401F583E0FEA3E0FFE4FCFDF1
:1007BB00EB25E025E02422F582E43401F583E0F813
:1007CB00A3E0F9A3E0FAA3E02FFBEA3EFAED39F937
:1007DB00EC38F890014EE025E0243AF582E4340140
:1007EB00F583E0FEA3E0FFE4C31205BE503E90018B
:1007FB004EE025E02414F582E43401F583E0FEA3FA
:10080B00E0FFE4FCFD7B607AEAF9F8D31205A8500F
:10081B00030208A790014EE025E02414F582E4348E
:10082B0001F583E475F001120592807090014EE0A2
:10083B00FF25E02414F582E43401F583E0FCA3E00A
:10084B00D39400EC9400401D7E007401A80708802F
:10085B0005C333CE33CED8F9FF900120E04EF0A381
:10086B00E04FF0802490014EE0FF7E007401A8075A
:10087B00088005C333CE33CED8F9F4FFEEF4FE90E7
:10088B000120E05EF0A3E05FF090014EE025E02454
:10089B0014F582E43401F583E4F0A3F090014EE00B
:1008AB0004F00206AA22E490014FF090FB48F0906E
:1008BB00FB40743FF0A3E4F0A37473F0A37402F055
:1008CB0090FB4574A0F043AF80D2AFF07F647E0005
:1008DB00121265E490014EF090014EE0FFC39406B6
:1008EB00501DEF25E025E02422F582E43401F58349
:1008FB001205EE0000000090014EE004F080D9904C
:10090B00014FE0C39406506B30095FE490014EF049
:10091B0090014EE0FF25E025E02422F582E434012E
:10092B00F583C083C082E0F8A3E0F9A3E0FAA3E06B
:10093B00FBEF25E0243AF582E43401F583E0FEA3D6
:10094B00E0FFE4FCFDEB2FFFEA3EFEED39FDEC385A
:10095B00FCD082D0831205E290014EE004F0E0B4AB
:10096B0006AEC20990014FE004F07F327E001212F6
:10097B0065808CE490014EF090014EE0FFC394062D
:10098B005047EF25E025E02422F582E43401F5837E
:10099B00C083C082E0FCA3E0FDA3E0FEA3E0FF78F0
:1009AB00031205CFD082D0831205E290014EE025D1
:1009BB00E02408F582E43401F5837405F0A374DCBC
:1009CB00F090014EE004F080AF2290014EEFF0F971
:1009DB00E0FF75F06484FDEF75F00A8475F00A840E
:1009EB00AFF0E975F00A84AEF0900192E4F090015B
:1009FB0091E4F0900186E4F0900185E4F09001928F
:100A0B00E0FC74872DF582E43401F583E0FBC454DC
:100A1B000FFAEC4A900192F0900191E04BF09001AB
:100A2B0086E0FD74872FF582E43401F583E0FFED5A
:100A3B004F900186F0900185E0FF74872EF582E4DC
:100A4B003401F583E0FEEF4E900185F0E9C3940A83
:100A5B00501A90014EE0C3940040111213C890013C
:100A6B00791213CB900178E0FFE4804790014EE0C0
:100A7B00FFC39464501AEFC3940A40141213C89026
:100A8B0001791213CB900178E0FF900186E080236F
:100A9B0090017AE0FF900192E0FD1213CF90017963
:100AAB00E0FF900191E0FD1213CF900178E0FF90F1
:100ABB000186E0FD1213CF900177E0FF900185E0F6
:100ACB00FD1213CF22AD07900193E05480F09001FB
:100ADB0092E4F0ED14B407004003020B79900AF690
:100AEB0075F003A4C58325F0C58373020B0B020BB2
:100AFB001B020B2B020B3B020B4B020B5B020B6B18
:100B0B00900193E04404F0900192E04440F0805E49
:100B1B00900193E04402F0900192E04420F0804E6B
:100B2B00900193E04401F0900192E04410F0803E7C
:100B3B00900193E04406F0900192E04460F0802E27
:100B4B00900193E04403F0900192E04430F0801E5A
:100B5B00900193E04405F0900192E04450F0800E38
:100B6B00900193E04407F0900192E04470F0900103
:100B7B007BE0FF900193E0FD1213CF90017AE0FF31
:100B8B00900192E0FD0213CF90014CE064016003F1
:100B9B00020C4D1206A47F03120E2DBF0206121378
:100BAB0094120D077F01120E2DBF020D900147E02D
:100BBB00B4010612000E120D07E4FF120E2DBF0238
:100BCB000D900148E0B40106121443120D077F0487
:100BDB00120E2DBF020D90014AE0B401061210ACAB
:100BEB0012118D7F05120E2DEF6405704290014797
:100BFB00F0A3F090014AF07F01120E2DBF020612F6
:100C0B001458120D07E4FF120E2DBF020612146CBE
:100C1B00120D077F04120E2DBF021490017FE0FF0F
:100C2B00C374019FF024FF92001212BC120D077FB8
:100C3B0005120E2DEF700B90014704F0A3F09001FD
:100C4B004AF0227F03E4FDFCEC7078ED1460211474
:100C5B00602F14603D14604B14605924057064744C
:100C6B00822FF582E43400F583E0900181F080530C
:100C7B0074822FF582E43400F583E090017FF080DD
:100C8B004274822FF582E43400F583E090017EF00C
:100C9B00803174822FF582E43400F583E090017D7E
:100CAB00F0802074822FF582E43400F583E090010C
:100CBB0082F0800F74822FF582E43400F583E0908C
:100CCB000180F00F0F0DBD00010CED64064C6003AD
:100CDB00020C539001837401F090017DE0FF120927
:100CEB00D590017EE0FF12009E900181E0FF120A79
:100CFB00D090017FE024FF92000212BC90014E7451
:100D0B00DCF0A37410F0E4A3F0A3F0A3F0A374063B
:100D1B00F0A3740CF0E4A3F0900181E0900156F085
:100D2B00E4A3F090017FE0900158F0E4A3F0900170
:100D3B007EE090015AF0E4A3F090017DE090015C1D
:100D4B00F0E4A3F0900182E090015EF0E4A3F09058
:100D5B000180E0900160F07B017A01794E7D1312E6
:100D6B000F95AC06EC900161F0A3EFF078017C00DD
:100D7B007D017A01794E7E007F151205539001019A
:100D8B007415F0D2847F027E001212654384027FB9
:100D9B00017E00021265787FE4F6D8FD758135027D
:100DAB000DE8020FF9E493A3F8E493A34003F68054
:100DBB0001F208DFF48029E493A3F85407240CC84C
:100DCB00C333C4540F4420C8834004F456800146F7
:100DDB00F6DFE4800B01020408102040809000260F
:100DEB00E47E019360BCA3FF543F30E509541FFE22
:100DFB00E493A360010ECF54C025E060A840B8E493
:100E0B0093A3FAE493A3F8E493A3C8C582C8CAC515
:100E1B0083CAF0A3C8C582C8CAC583CADFE9DEE7A7
:100E2B0080BEEF25E02414F582E43401F583E0FC69
:100E3B00A3E0FDD39400EC9400404AED9403EC94B2
:100E4B000050037F0122EF25E02414F582E43401E6
:100E5B00F583E0FCA3E0FD64034C70037F0222C327
:100E6B00ED9496EC940050037F0322EF25E02414BD
:100E7B00F582E43401F583E0FCA3E064964C7F0536
:100E8B0070247F04227E007401A807088005C333F9
:100E9B00CE33CED8F9FF900120E05EFEA3E05F4E8B
:100EAB007F0060027F0622C0E0C083C082C0D07585
:100EBB00D000C007E58430E12A5384FD900101E0A6
:100ECB00601AA3E0FF04F074012FF582E43400F5FF
:100EDB0083E0F585900101E014F08007900102E4B6
:100EEB00F0C284E58430E0335384FE900000E07060
:100EFB0021900105E0D394804002E4F0900105E0DD
:100F0B002481F582E43400F583E585F0900105E05A
:100F1B0004F0900103E4F0A37405F0D007D0D0D017
:100F2B0082D083D0E032900000E06401705BF07BF4
:100F3B00017A007981900105E024FEFD120F95AD39
:100F4B0007AC06900105E0FB247FF582E43400F545
:100F5B0083E0FE74802BF582E43400F583E0FBEB39
:100F6B00FFE4900105F0EDB5071FECB5061B9000F3
:100F7B0081E0B4DC14A3E024FC600B24F4600724B0
:100F8B000D7006020C4E12006522900163EDF07499
:100F9B00FFA3F0A3F0120579FF900164E0F0A3E04A
:100FAB006FF0E4FD900164E0FEA3E0FF30E019EE8A
:100FBB00C313FEEF13FFEE64A0FEEF6401FF90017D
:100FCB0064EEF0A3EFF0800B900164E0C313F0A389
:100FDB00E013F00DEDB408CC740129F9E43AFA9062
:100FEB000163E014F070AEA3E0FEA3E0FF22E490F7
:100FFB00014DF043BA8012006E1213E21214BA12B2
:10100B0013FB1214141214A7D2AFC2C412142D1254
:10101B0013AE900183E0700F12118D120F317F32DE
:10102B007E0012126580EB1211031208B112149498
:10103B007BFF7A1479D5120189120F31120B937F32
:10104B000A7E0012126580F1C0E0C083C082C0D05E
:10105B0075D000C004C005C00790FB47E0FF30E629
:10106B0004E04440F0EF30E729540FFF90FB47E0DA
:10107B004480F090FB49E0FCA3E0FDEF25E0243A2F
:10108B00F582E43401F583ECF0A3EDF0EFB4050247
:10109B00D209D007D005D004D0D0D082D083D0E0F5
:1010AB0032900180E0C39406500AE004F0E0B406ED
:1010BB00037401F0121205D20012130D900180E09F
:1010CB00FF1209D57FF47E01121265121205C200C0
:1010DB0012130D90017FE024FF92001212BC9001BD
:1010EB007DE0FF1209D57F03120AD0D2001213281C
:1010FB0090017EE0FF02009E90017DE0FF1209D57A
:10110B0090017EE0FF12009E900181E0FF120AD059
:10111B0090017FE024FF92001212BCD2001212A1A8
:10112B00D2001212D7D2001212F2D20012130DD229
:10113B0000121328D200121343D20012135ED200F6
:10114B00021379C0E0C083C082C0D0900103E0706D
:10115B0002A3E06024900104E024FFF0900103E07F
:10116B0034FFF0E07002A3E0700F900105E0D39420
:10117B000040069000007401F0D0D0D082D083D014
:10118B00E032784E7C017D017BFF7A0179117E0084
:10119B007F0812055378017C007D017B017A017970
:1011AB004E7E007F081205539001017408F0D28423
:1011BB007F027E001212654384027F017E000212C1
:1011CB0065C0E0C083C08290014CE0702690019D09
:1011DB00E004F0700690019CE004F090019CE0703C
:1011EB0004A3E06402700C90014C04F090019CE4A9
:1011FB00F0A3F0D082D083D0E032C2001212D7C25B
:10120B00001212F2C2001212BCE490014EF09001D7
:10121B004EE0FFC39407501574762FF582E434012A
:10122B00F5831213CB90014EE004F080E122900184
:10123B0050EFF07F327E00121480C283E4FFC28233
:10124B00900150E0FE139281D282EEC313F00FEFA8
:10125B00B408EB7F327E00021480D3EF9400EE943F
:10126B0000401600000075080B7509BED509FDD5A9
:10127B0008FAEF1F70E41E80E122C0E0C083C08239
:10128B00309907C299900107E4F0309802C298D0C8
:10129B0082D083D0E032900193E054F7F030000419
:1012AB00E04408F090017BE0FF900193E0FD021316
:1012BB00CF900184E054EFF0300004E04410F09044
:1012CB000176E0FF900184E0FD0213CF900184E0F2
:1012DB0054DFF0300004E04420F0900176E0FF9002
:1012EB000184E0FD0213CF900184E054BFF0300085
:1012FB0004E04440F0900176E0FF900184E0FD02B1
:10130B0013CF900184E0547FF0300004E04480F070
:10131B00900176E0FF900184E0FD0213CF900185F0
:10132B00E054F7F0300004E04408F0900177E0FF60
:10133B00900185E0FD0213CF900194E054DFF03073
:10134B000004E04420F090017CE0FF900194E0FD6C
:10135B000213CF900193E054EFF0300004E04410FF
:10136B00F090017BE0FF900193E0FD0213CF900121
:10137B0094E054EFF0300004E04410F090017CE076
:10138B00FF900194E0FD0213CF900181E0B40705BB
:10139B007401F08006900181E004F0900181E0FF80
:1013AB00020AD0D283D282D281E4FF121239D283C5
:1013BB007F44121239D28312120502000390017A74
:1013CB00E0FFE4FD90014FEDF012123990014FE078
:1013DB00FF121239D2832253A23F759850438E01CC
:1013EB00438E0475D7E875D6FF438E1075A810226F
:1013FB0043BA0475841043844043D12075D3E875F8
:10140B00D2FF43D18043AF1022E4900000F0900054
:10141B0081F0900101F0F0A3F0A3F0A3F0A3F0C2D0
:10142B008422E4900181F090017DF0A3F0A3F0A35E
:10143B0004F0E4900183F02290017DE0D39400400E
:10144B0004E024FBF090017DE0FF0209D590017EC2
:10145B00E0C394065003E004F090017EE0FF02002D
:10146B009E90017EE0D394004003E014F090017E47
:10147B00E0FF02009ED3EF9400EE9400400A0000C0
:10148B0000EF1F70F01E80ED229001467401F0A357
:10149B00F0A3F0A3F0A3F0A3F0A3F022438E8053AC
:1014AB0089F0758ACD758CD4C28DD28CD2A922537A
:1014BB00D1FDE4F5D575D4DC43D10843AF20228FA1
:1014CB0099900107E070FA04F0223D3D3D3D3D3D12
:1014DB0020636F6465207374617274203D3D3D3DE4
:0614EB003D3D200D0A004A
:00000001FF
