:10000000020C377F93120F1BD28322020EAE900197
:100010007EE0C394645004E02405F090017EE0FF8C
:100020000209D5020F6790017EE0FF1209D5900109
:100030007FE0FF120D427F03120AD0D200120F831D
:10004000A20A9200120F9ED200120FB9D200120F14
:10005000D4D200120FEFD20012100AD200121025D3
:0A006000D200121040D20002105B23
:10006B00020E15E4F594F593F59275913B75961F79
:10007B00F59575B282F5B175B410F5B375CA0875FF
:03008B00C9102277
:10009300020CC3EF25E02415F582E43401F583E077
:1000A300FCA3E0FDD39400EC9400404AED9403ECF0
:1000B300940050037F0122EF25E02415F582E434F8
:1000C30001F583E0FCA3E0FD64034C70037F02228F
:1000D300C3ED9496EC940050037F0322EF25E024B4
:1000E30015F582E43401F583E0FCA3E064964C7FCC
:1000F3000570247F04227E007401A807088005C3CD
:1001030033CE33CED8F9FF900121E05EFEA3E05F4A
:100113004E7F0060027F062202006BE5082452F541
:1001230082E43401F583E005082290014F30070390
:10013300900152E475F00112065E0205792000E990
:100143007F2ED2008018EF540F2490D43440D4FF74
:1001530030040BEF24BFB41A0050032461FFE509F8
:1001630060021509050CE50C7002050B30070E90B3
:10017300014FE475F00112065EEF02064C02112EE8
:100183007403D2078003E4C207F50890014F1206F7
:1001930075E4F509F50BF50CE50960077F201201FD
:1001A3006180F5750AFFC201C200C202C203C20523
:1001B300C206C20812012DFF700D3007057F001221
:1001C3000172AF0CAE0B22B4255FC2D5C20412017B
:1001D3002DFF24D0B40A00501A75F00A780930D5DF
:1001E3000508B6FF0106C6A426F620D5047002D280
:1001F3000380D924CFB41A00EF5004C2E5D204021D
:100203000373D20180C6D20080C0D20280BCD2D593
:1002130080BAD20580B47F201201612002077401E5
:10022300B5090040F112011EFF12016102019BD2C8
:1002330008D206809512011EFB12011EFA12011E3E
:10024300F94A4B700679447A047BFF20022EE509B4
:10025300602A7E008E8275830012061F60060EEEF2
:10026300650A70F0C2D5EBC0E0EAC0E0E9C0E0EE99
:100273001203BAD0E0F9D0E0FAD0E0FB120579FF1F
:1002830060AAEBC0E0EAC0E0E9C0E0120161D0E09F
:100293002401F9D0E03400FAD0E0FBE50A0460DC85
:1002A300D50AD980877BFF7A0379B6D202809C79FD
:1002B3001080027908C206C2088008D2D5790A8064
:1002C30004790AC2D5E50A047002F50AE4FAFDFED0
:1002D300FF12011EFC7B0820011312011EFD7B107F
:1002E30030000A12011EFE12011EFF7B20EC338236
:1002F300D592D55013C3E43000069FFFE49EFEE47D
:100303002001039DFDE49CFCE4CBF8C201EC700CDE
:10031300CFCECDCCE824F8F870F38017C3EF33FFCA
:10032300EE33FEED33FDEC33FCEB33FB994002FB84
:100333000FD8E9EB300105F8D0E0C448B201C0E0C2
:100343000AEC4D4E4F78207B0070C2EAB50A00409C
:10035300BCC0E01203BCD0F0D0E0200104C4C0E074
:10036300C4B201C0F012014AD0F0D5F0EB02019BF8
:1003730012067E02385302B25802094C02054202A9
:10038300B64F02BE4402BE49021E4302C45502A830
:100393004602A84502A847046450020D2D02112EFF
:1003A30002342B021523023220044D2A01CD4800CA
:1003B30000022C3F3F3F00790AA2D52003143005E9
:1003C30009B910020404B9080104A2D52006025099
:1003D30001042002689202B509005034C0E07F2076
:1003E3003003197F30A20272067205500F120413F4
:1003F300C202C206C205C2087F30800F300503E97E
:10040300C0E0120161300503D0E0F9D0E0B509CCBA
:100413003005177F30B9100C1201617F5830040783
:100423007F788003B908031201613002057F2D0232
:1004330001617F202008F87F2B2006F3229202809F
:10044300CF286E756C6C2900D20112011E3001F8A1
:10045300C201780930D50108F60201CD2D50434978
:100463005812011E2403B405004001E490045F9375
:10047300120152743A120152D2037509040202B2F4
:10048300E709F608DFFA8046E709F208DFFA803E5B
:1004930088828C83E709F0A3DFFA8032E309F60848
:1004A300DFFA8078E309F208DFFA807088828C83B0
:1004B300E309F0A3DFFA806489828A83E0A3F60864
:1004C300DFFA805889828A83E0A3F208DFFA804C3E
:1004D30080D280FA80C680D4806980F28033801015
:1004E30080A680EA809A80A880DA80E280CA80337E
:1004F30089828A83ECFAE493A3C8C582C8CCC583F6
:10050300CCF0A3C8C582C8CCC583CCDFE9DEE780C5
:100513000D89828A83E493A3F608DFF9ECFAA9F044
:10052300EDFB2289828A83ECFAE0A3C8C582C8CC9A
:10053300C583CCF0A3C8C582C8CCC583CCDFEADEB3
:10054300E880DB89828A83E493A3F208DFF980CC15
:1005530088F0EF60010E4E60C388F0ED2402B4040E
:100563000050B9F582EB2402B4040050AF232345B5
:1005730082239004D373BB010689828A83E02250CD
:1005830002E722BBFE02E32289828A83E49322C527
:10059300F0F8A3E028F0C5F0F8E5821582700215A3
:1005A30083E038F022EB9FF5F0EA9E42F0E99D42AA
:1005B300F0EC6480C864809845F022EB9FF5F0EA84
:1005C3009E42F0E99D42F0E89C45F022E8600FEC82
:1005D300C313FCED13FDEE13FEEF13FFD8F122EC72
:1005E300F0A3EDF0A3EEF0A3EFF022A8828583F051
:1005F300D083D082120605120605120605120605DF
:10060300E473E493A3C583C5F0C583C8C582C8F06A
:10061300A3C583C5F0C583C8C582C822BB010CE549
:100623008229F582E5833AF583E0225006E92582A3
:10063300F8E622BBFE06E92582F8E222E58229F5E7
:1006430082E5833AF583E49322BB010689828A8398
:10065300F0225002F722BBFE01F322F8E0FBA3A332
:10066300E0F925F0F0E582158270021583E0FA388F
:10067300F022EBF0A3EAF0A3E9F022D083D082F8D2
:10068300E4937012740193700DA3A393F874019310
:10069300F5828883E4737402936860EFA3A3A38055
:1006A300DFE490014FF0F090014FE0FFC394064068
:1006B300030208B0EFC3940340030207A3E025E05D
:1006C3002409F582E43401F583E0FEA3E0FBAA06E6
:1006D30090014FE025E025E02423F582E43401F581
:1006E30083E0FCA3E0FDA3E0FEA3E0C39BFBEE9A43
:1006F300FAED9400F9EC9400F890014FE025E02422
:100703003BF582E43401F583E0FEA3E0FFE4FCFD66
:10071300D31205BE402990014FE025E02415F58250
:10072300E43401F583E0FEA3E0FFE4FCFD7B607AA3
:10073300EAF9F8D31205A850030208A702081F908C
:10074300014FE0FF25E02415F582E43401F583E051
:10075300FCA3E0D39400EC9400401E7E007401A837
:1007630007088005C333CE33CED8F9FF900121E0CB
:100773004EF0A3E04FF002089490014FE0FF7E009B
:100783007401A807088005C333CE33CED8F9F4FF2C
:10079300EEF4FE900121E05EF0A3E05FF002089426
:1007A30090014FE0FB25E02409F582E43401F58351
:1007B300E0FEA3E0FFE4FCFDEB25E025E02423F5C8
:1007C30082E43401F583E0F8A3E0F9A3E0FAA3E0BF
:1007D3002FFBEA3EFAED39F9EC38F890014FE025AA
:1007E300E0243BF582E43401F583E0FEA3E0FFE47B
:1007F300C31205BE503E90014FE025E02415F5825B
:10080300E43401F583E0FEA3E0FFE4FCFD7B607AC2
:10081300EAF9F8D31205A850030208A790014FE0A4
:1008230025E02415F582E43401F583E475F0011223
:100833000592807090014FE0FF25E02415F582E4D6
:100843003401F583E0FCA3E0D39400EC9400401D55
:100853007E007401A807088005C333CE33CED8F9D0
:10086300FF900121E04EF0A3E04FF0802490014F70
:10087300E0FF7E007401A807088005C333CE33CEA2
:10088300D8F9F4FFEEF4FE900121E05EF0A3E05FFF
:10089300F090014FE025E02415F582E43401F5835F
:1008A300E4F0A3F090014FE004F00206AA22E490E2
:1008B3000150F090FB48F090FB40743FF0A3E4F04C
:1008C300A37473F0A37402F090FB4574A0F043AFDC
:1008D30080D2AFF07F647E00120F47E490014FF0A7
:1008E30090014FE0FFC39406501DEF25E025E0245F
:1008F30023F582E43401F5831205EE000000009035
:10090300014FE004F080D9900150E0C39406506B8E
:1009130030095FE490014FF090014FE0FF25E0259F
:10092300E02423F582E43401F583C083C082E0F838
:10093300A3E0F9A3E0FAA3E0FBEF25E0243BF58273
:10094300E43401F583E0FEA3E0FFE4FCFDEB2FFFBD
:10095300EA3EFEED39FDEC38FCD082D0831205E28D
:1009630090014FE004F0E0B406AEC209900150E0FC
:1009730004F07F327E00120F47808CE490014FF029
:1009830090014FE0FFC394065047EF25E025E02494
:1009930023F582E43401F583C083C082E0FCA3E045
:1009A300FDA3E0FEA3E0FF78031205CFD082D0833E
:1009B3001205E290014FE025E02409F582E43401B9
:1009C300F5837405F0A374DCF090014FE004F0802C
:1009D300AF2290014FEFF0F9E0FF75F06484FDEF73
:1009E30075F00A8475F00A84AFF0E975F00A84AEF5
:1009F300F090018EE4F090018DE4F0900182E4F038
:100A0300900181E4F090018EE0FC74832DF582E483
:100A13003401F583E0FBC4540FFAEC4A90018EF0E5
:100A230090018DE04BF0900182E0FD74832FF582FD
:100A3300E43401F583E0FFED4F900182F0900181F2
:100A4300E0FF74832EF582E43401F583E0FEEF4E7C
:100A5300900181F0E9C3940A501A90014FE0C394C6
:100A63000040111210AA90017A1210AD900179E0A2
:100A7300FFE4804790014FE0FFC39464501AEFC333
:100A8300940A40141210AA90017A1210AD900179C1
:100A9300E0FF900182E0802390017BE0FF90018ED4
:100AA300E0FD1210B190017AE0FF90018DE0FD129C
:100AB30010B1900179E0FF900182E0FD1210B19036
:100AC3000178E0FF900181E0FD1210B122AD0790A3
:100AD300018FE05480F090018EE4F0ED14B4070030
:100AE3004003020B79900AF675F003A4C58325F041
:100AF300C58373020B0B020B1B020B2B020B3B0276
:100B03000B4B020B5B020B6B90018FE04404F090E4
:100B1300018EE04440F0805E90018FE04402F0904B
:100B2300018EE04420F0804E90018FE04401F0906C
:100B3300018EE04410F0803E90018FE04406F09077
:100B4300018EE04460F0802E90018FE04403F0902A
:100B5300018EE04430F0801E90018FE04405F09058
:100B6300018EE04450F0800E90018FE04407F09036
:100B7300018EE04470F090017CE0FF90018FE0FD76
:100B83001210B190017BE0FF90018EE0FD0210B1E5
:100B930090014DE064016003020C361206A47F034A
:100BA300120096BF02031210767F01120096BF0255
:100BB3000A900148E0B4010312000EE4FF1200960C
:100BC300BF020A900149E0B401031210DD7F041251
:100BD3000096BF021090014BE0B40109B20AA20AC9
:100BE3009200120F837F05120096EF640570319017
:100BF3000148F0A3F090014BF07F01120096BF0271
:100C0300031210F2E4FF120096BF02031211067FD3
:100C130004120096BF0209B20AA20A9200120F9EA2
:100C23007F05120096EF700B90014804F0A3F0903B
:100C3300014BF022787FE4F6D8FD758135020C7EF6
:100C4300020DB5E493A3F8E493A34003F68001F205
:100C530008DFF48029E493A3F85407240CC8C333B2
:100C6300C4540F4420C8834004F456800146F6DF81
:100C7300E4800B0102040810204080900E6EE47E95
:100C8300019360BCA3FF543F30E509541FFEE49376
:100C9300A360010ECF54C025E060A840B8E493A33D
:100CA300FAE493A3F8E493A3C8C582C8CAC583CA68
:100CB300F0A3C8C582C8CAC583CADFE9DEE780BE20
:100CC300C0E0C083C082C0D075D000C007E58430C7
:100CD300E12A5384FD900101E0601AA3E0FF04F0D0
:100CE30074012FF582E43400F583E0F5859001016A
:100CF300E014F08007900102E4F0C284E58430E060
:100D0300335384FE900000E07021900105E0D394FA
:100D1300804002E4F0900105E02481F582E4340090
:100D2300F583E585F0900105E004F0900103E4F01C
:100D3300A37405F0D007D0D0D082D083D0E032ADF9
:100D430007900190E05430F0EFB407005057900D36
:100D530058F8282873020D6D020D74020D7D020DE3
:100D630086020D8F020D98020DA1900190E0F08094
:100D730034900190E04440F0802B900190E044C017
:100D8300F08022900190E044C8F08019900190E037
:100D930044CCF08010900190E044CEF080079001A5
:100DA30090E044CFF090017DE0FF900190E0FD02E0
:100DB30010B1E490014EF043BA8012006E1210C4D9
:100DC300D2AFC2C41210901211391200261208B108
:100DD3009001477401F0A3F0A3F0A3F0A3F0A3F0F4
:100DE300A3F07BFF7A1179441201897F05120096E3
:100DF30090014EEFF07BFF7A117960900152E4F09D
:100E0300A3EFF0120189120B937F0A7E00120F47A2
:100E130080D9C0E0C083C082C0D075D000C004C0F8
:100E230005C00790FB47E0FF30E604E04440F0EFE5
:100E330030E729540FFF90FB47E04480F090FB49D3
:100E4300E0FCA3E0FDEF25E0243BF582E43401F56B
:100E530083ECF0A3EDF0EFB40502D209D007D0057F
:100E6300D004D0D0D082D083D0E032C189410108F0
:100E730000410107004101800041018100410182DD
:100E83000041018D0041018E0041018F004101901D
:100E930000470177C3C6C7CACBCECF4A0183F50546
:100EA300D39727B6F615F7B7C10A00C0E0C083C0D1
:100EB30082C0D0900103E07002A3E060249001049B
:100EC300E024FFF0900103E034FFF0E07002A3E0C0
:100ED300700F900105E0D394004006900000740168
:100EE300F0D0D0D082D083D0E032E490014FF090A4
:100EF300014FE0FFC39407501E74772FF582E4344B
:100F030001F583E0FF120F1BE4FF120F1BD2839046
:100F1300014FE004F080D822900151EFF07F327E40
:100F23000012111AC283E4FFC282900151E0FE1342
:100F33009281D282EEC313F00FEFB408EB7F327EBF
:100F43000002111AD3EF9400EE9400401600000043
:100F530075080B7509BED509FDD508FAEF1F70E4B6
:100F63001E80E122C0E0C083C082309907C29990FD
:100F73000107E4F0309802C298D082D083D0E032E7
:100F830090018FE054F7F0300004E04408F0900142
:100F93007CE0FF90018FE0FD0210B1900180E054EE
:100FA300EFF0300004E04410F0900177E0FF90018F
:100FB30080E0FD0210B1900180E054DFF0300004C6
:100FC300E04420F0900177E0FF900180E0FD021003
:100FD300B1900180E054BFF0300004E04440F09051
:100FE3000177E0FF900180E0FD0210B1900180E005
:100FF300547FF0300004E04480F0900177E0FF90EC
:101003000180E0FD0210B1900181E054F7F030005F
:1010130004E04408F0900178E0FF900181E0FD02D4
:1010230010B1900190E054DFF0300004E04420F070
:1010330090017DE0FF900190E0FD0210B190018FDF
:10104300E054EFF0300004E04410F090017CE0FF46
:1010530090018FE0FD0210B1900190E054EFF03069
:101063000004E04410F090017DE0FF900190E0FD6A
:101073000210B1900108E0B407057401F0800690F6
:101083000108E004F0900108E0FF020AD0D283D205
:1010930082D281E4FF120F1BD2837F44120F1BD233
:1010A30083120EED02000390017BE0FFE4FD90014B
:1010B30050EDF0120F1B900150E0FF120F1BD28373
:1010C3002253A23F759850438E01438E0475D7E88F
:1010D30075D6FF438E1075A8102290017EE0D3943D
:1010E300004004E024FBF090017EE0FF0209D5906C
:1010F300017FE0C394065003E004F090017FE0FF1A
:10110300020D4290017FE0D394004003E014F0907D
:10111300017FE0FF020D42D3EF9400EE9400400AFA
:10112300000000EF1F70F01E80ED228F99900107E1
:10113300E070FA04F02290017E7432F0A37403F09D
:10114300223D3D3D3D3D3D20636F646520737461E9
:101153007274203D3D3D3D3D3D200D0A00546865C0
:101163002076616C7565206973202564200D0A0063
:00000001FF
