:10000000020E8F7F93121557D28322020026900191
:10001000A1E0B4010DA3E0B40108121446E490017C
:10002000A1F022021612C0E0C083C082C0D09001AD
:1000300003E07002A3E06024900104E024FFF0904C
:100040000103E034FFF0E07002A3E0700F900105BF
:10005000E0D3940040069000007401F0D0D0D0822C
:05006000D083D0E03266
:10006B000211BFE4900181F090017DF0A3F0A3F0A9
:10007B00A304F0900185F0E4900184F0900186F0E8
:05008B00A3F0A3F02228
:03009300020FA0B9
:10009B00020D6CE490014CF043BA801215D112178B
:1000AB007812183B1217911217AA121817D2AF7F9A
:1000BB00021215AB12006E1209E112182A90018878
:1000CB00E0700C1208B17F0A7E001215F280EE125E
:1000DB001744900184E0700F1214071210927F32B4
:1000EB007E001215F280EB1214851214C37BFF7A7B
:1000FB0018795D1201891210921208B11213BC12F9
:0E010B00000E12126F7F0A7E001215F280E8BD
:10011B0002006BE5082450F582E43401F583E00519
:10012B00082290014D300703900150E475F0011245
:10013B00065E0205792000E97F2ED2008018EF546D
:10014B000F2490D43440D4FF30040BEF24BFB41AE7
:10015B000050032461FFE50960021509050CE50C4D
:10016B007002050B30070E90014DE475F00112067D
:10017B005EEF02064C02184B7403D2078003E4C2F5
:10018B0007F50890014D120675E4F509F50BF50C12
:10019B00E50960077F2012016180F5750AFFC20136
:1001AB00C200C202C203C205C206C20812012DFF61
:1001BB00700D3007057F00120172AF0CAE0B22B42D
:1001CB00255FC2D5C20412012DFF24D0B40A005002
:1001DB001A75F00A780930D50508B6FF0106C6A4D2
:1001EB0026F620D5047002D20380D924CFB41A008E
:1001FB00EF5004C2E5D204020373D20180C6D200D1
:10020B0080C0D20280BCD2D580BAD20580B47F2008
:10021B001201612002077401B5090040F112011EA1
:10022B00FF12016102019BD208D206809512011EBA
:10023B00FB12011EFA12011EF94A4B700679447A21
:10024B00047BFF20022EE509602A7E008E827583D7
:10025B000012061F60060EEE650A70F0C2D5EBC0E9
:10026B00E0EAC0E0E9C0E0EE1203BAD0E0F9D0E07A
:10027B00FAD0E0FB120579FF60AAEBC0E0EAC0E020
:10028B00E9C0E0120161D0E02401F9D0E03400FABA
:10029B00D0E0FBE50A0460DCD50AD980877BFF7AC6
:1002AB000379B6D202809C791080027908C206C20B
:1002BB00088008D2D5790A8004790AC2D5E50A04E8
:1002CB007002F50AE4FAFDFEFF12011EFC7B08200A
:1002DB00011312011EFD7B1030000A12011EFE12CB
:1002EB00011EFF7B20EC3382D592D55013C3E43033
:1002FB0000069FFFE49EFEE42001039DFDE49CFCB1
:10030B00E4CBF8C201EC700CCFCECDCCE824F8F8DE
:10031B0070F38017C3EF33FFEE33FEED33FDEC3399
:10032B00FCEB33FB994002FB0FD8E9EB300105F8EE
:10033B00D0E0C448B201C0E00AEC4D4E4F78207BB0
:10034B000070C2EAB50A0040BCC0E01203BCD0F09A
:10035B00D0E0200104C4C0E0C4B201C0F012014AD5
:10036B00D0F0D5F0EB02019B12067E02385302B29D
:10037B005802094C02054202B64F02BE4402BE4966
:10038B00021E4302C45502A84602A84502A8470410
:10039B006450020D2D02112E02342B021523023252
:1003AB0020044D2A01CD480000022C3F3F3F00792D
:1003BB000AA2D5200314300509B910020404B908A8
:1003CB000104A2D52006025001042002689202B556
:1003DB0009005034C0E07F203003197F30A2027235
:1003EB00067205500F120413C202C206C205C208E0
:1003FB007F30800F300503E9C0E012016130050347
:10040B00D0E0F9D0E0B509CC3005177F30B9100C2E
:10041B001201617F583004077F788003B9080312FB
:10042B0001613002057F2D0201617F202008F87FDA
:10043B002B2006F322920280CF286E756C6C29005C
:10044B00D20112011E3001F8C201780930D5010822
:10045B00F60201CD2D5043495812011E2403B40559
:10046B00004001E490045F93120152743A1201525E
:10047B00D2037509040202B2E709F608DFFA8046D7
:10048B00E709F208DFFA803E88828C83E709F0A344
:10049B00DFFA8032E309F608DFFA8078E309F20825
:1004AB00DFFA807088828C83E309F0A3DFFA806423
:1004BB0089828A83E0A3F608DFFA805889828A83CF
:1004CB00E0A3F208DFFA804C80D280FA80C680D499
:1004DB00806980F28033801080A680EA809A80A8A1
:1004EB0080DA80E280CA803389828A83ECFAE493D3
:1004FB00A3C8C582C8CCC583CCF0A3C8C582C8CC61
:10050B00C583CCDFE9DEE7800D89828A83E493A380
:10051B00F608DFF9ECFAA9F0EDFB2289828A83EC6D
:10052B00FAE0A3C8C582C8CCC583CCF0A3C8C582EA
:10053B00C8CCC583CCDFEADEE880DB89828A83E422
:10054B0093A3F208DFF980CC88F0EF60010E4E60C8
:10055B00C388F0ED2402B4040050B9F582EB2402F9
:10056B00B4040050AF23234582239004D373BB0103
:10057B000689828A83E0225002E722BBFE02E32235
:10058B0089828A83E49322C5F0F8A3E028F0C5F0B2
:10059B00F8E582158270021583E038F022EB9FF5A7
:1005AB00F0EA9E42F0E99D42F0EC6480C8648098CA
:1005BB0045F022EB9FF5F0EA9E42F0E99D42F0E810
:1005CB009C45F022E8600FECC313FCED13FDEE131A
:1005DB00FEEF13FFD8F122ECF0A3EDF0A3EEF0A3A6
:1005EB00EFF022A8828583F0D083D0821206051209
:1005FB000605120605120605E473E493A3C583C52D
:10060B00F0C583C8C582C8F0A3C583C5F0C583C830
:10061B00C582C822BB010CE58229F582E5833AF538
:10062B0083E0225006E92582F8E622BBFE06E92587
:10063B0082F8E222E58229F582E5833AF583E49399
:10064B0022BB010689828A83F0225002F722BBFE6D
:10065B0001F322F8E0FBA3A3E0F925F0F0E5821506
:10066B008270021583E0FA38F022EBF0A3EAF0A3D4
:10067B00E9F022D083D082F8E49370127401937066
:10068B000DA3A393F8740193F5828883E47374022A
:10069B00936860EFA3A3A380DFE490014DF0F0908B
:1006AB00014DE0FFC3940640030208B0EFC394036F
:1006BB0040030207A3E025E02408F582E43401F5AA
:1006CB0083E0FEA3E0FBAA0690014DE025E025E0C8
:1006DB002422F582E43401F583E0FCA3E0FDA3E0E2
:1006EB00FEA3E0C39BFBEE9AFAED9400F9EC9400A9
:1006FB00F890014DE025E0243AF582E43401F583CE
:10070B00E0FEA3E0FFE4FCFDD31205BE40299001FF
:10071B004DE025E02414F582E43401F583E0FEA3DB
:10072B00E0FFE4FCFD7B607AEAF9F8D31205A850F0
:10073B00030208A702081F90014DE0FF25E02414D7
:10074B00F582E43401F583E0FCA3E0D39400EC9450
:10075B0000401E7E007401A807088005C333CE330A
:10076B00CED8F9FF900120E04EF0A3E04FF0020845
:10077B009490014DE0FF7E007401A807088005C32B
:10078B0033CE33CED8F9F4FFEEF4FE900120E05EC9
:10079B00F0A3E05FF002089490014DE0FB25E0240C
:1007AB0008F582E43401F583E0FEA3E0FFE4FCFDF1
:1007BB00EB25E025E02422F582E43401F583E0F813
:1007CB00A3E0F9A3E0FAA3E02FFBEA3EFAED39F937
:1007DB00EC38F890014DE025E0243AF582E4340141
:1007EB00F583E0FEA3E0FFE4C31205BE503E90018B
:1007FB004DE025E02414F582E43401F583E0FEA3FB
:10080B00E0FFE4FCFD7B607AEAF9F8D31205A8500F
:10081B00030208A790014DE025E02414F582E4348F
:10082B0001F583E475F001120592807090014DE0A3
:10083B00FF25E02414F582E43401F583E0FCA3E00A
:10084B00D39400EC9400401D7E007401A80708802F
:10085B0005C333CE33CED8F9FF900120E04EF0A381
:10086B00E04FF0802490014DE0FF7E007401A8075B
:10087B00088005C333CE33CED8F9F4FFEEF4FE90E7
:10088B000120E05EF0A3E05FF090014DE025E02455
:10089B0014F582E43401F583E4F0A3F090014DE00C
:1008AB0004F00206AA221206A47F02120F1BBF023B
:1008BB0014900188E0700E7F011215AB90018874C3
:1008CB0001F012131A7F02120F1BBF05199001883A
:1008DB00E0B401127F021215ABE4900188F0121202
:1008EB00C5E49001A2F0900188E064016003020965
:1008FB00E07F03120F1BBF0220900149E0B40119E6
:10090B00E49001A2F0900186E0B40107E4F0121428
:10091B00C3800612172A120E007F01120F1BBF0293
:10092B0012900147E0B4010BE49001A2F01214FD08
:10093B00120E00E4FF120F1BBF0212900148E0B42D
:10094B00010BE49001A2F012152A120E007F041283
:10095B000F1BBF021290014AE0B4010BE49001A2FD
:10096B00F01212181211647F05120F1BEF64057041
:10097B00519001A2F0900147F0A3F0A3F0A3F07FF8
:10098B0001120F1BBF02061217DB120E00E4FF123F
:10099B000F1BBF02061217EF120E007F03120F1B65
:1009AB00BF02069001867401F07F04120F1BBF0279
:1009BB001190017FE0FFC374019FFFF012164A12E2
:1009CB000E007F05120F1BEF700B90014704F0A375
:1009DB00F0A3F0A3F022E490014EF090FB48F090CE
:1009EB00FB40743FF0A3E4F0A37473F0A37402F024
:1009FB0090FB4574A0F043AF80D2AFF07F647E00D4
:100A0B001215F2E490014DF090014DE0FFC39406F6
:100A1B00501DEF25E025E02422F582E43401F58317
:100A2B001205EE0000000090014DE004F080D9901B
:100A3B00014EE0C39406506B30095FE490014DF01A
:100A4B0090014DE0FF25E025E02422F582E43401FE
:100A5B00F583C083C082E0F8A3E0F9A3E0FAA3E03A
:100A6B00FBEF25E0243AF582E43401F583E0FEA3A5
:100A7B00E0FFE4FCFDEB2FFFEA3EFEED39FDEC3829
:100A8B00FCD082D0831205E290014DE004F0E0B47B
:100A9B0006AEC20990014EE004F07F327E001215C3
:100AAB00F2808CE490014DF090014DE0FFC3940671
:100ABB005047EF25E025E02422F582E43401F5834D
:100ACB00C083C082E0FCA3E0FDA3E0FEA3E0FF78BF
:100ADB00031205CFD082D0831205E290014DE025A1
:100AEB00E02408F582E43401F5837405F0A374DC8B
:100AFB00F090014DE004F080AF2290014DEFF0F942
:100B0B00E0FF75F06484FDEF75F00A8475F00A84DC
:100B1B00AFF0E975F00A84AEF0900197E4F0900124
:100B2B0096E4F090018BE4F090018AE05408F09089
:100B3B000197E0FC748C2DF582E43401F583E0FB26
:100B4B00C4540FFAEC4A900197F0900196E04BF0E9
:100B5B0090018BE0FD748C2FF582E43401F583E07A
:100B6B00FFED4F90018BF090018AE0FF748C2EF516
:100B7B0082E43401F583E0FEEF4E90018AF0E9C385
:100B8B00940A501A90014DE0C39400401112175E65
:100B9B00900179121761900178E0FFE48047900192
:100BAB004DE0FFC39464501AEFC3940A401412171C
:100BBB005E900179121761900178E0FF90018BE054
:100BCB00802390017AE0FF900197E0FD121765906A
:100BDB000179E0FF900196E0FD121765900178E036
:100BEB00FF90018BE0FD121765900177E0FF9001FC
:100BFB008AE0FD12176522AD07900198E05480F052
:100C0B00900197E4F0EDB408004003020CB2900C95
:100C1B0020F8282873020C38020C44020C54020CE6
:100C2B0064020C74020C84020C94020CA4900198C4
:100C3B00E4F0900197E4F0806E900198E04404F0AA
:100C4B00900197E04440F0805E900198E04402F000
:100C5B00900197E04420F0804E900198E04401F021
:100C6B00900197E04410F0803E900198E04406F02C
:100C7B00900197E04460F0802E900198E04405F0DD
:100C8B00900197E04450F0801E900198E04403F0EF
:100C9B00900197E04430F0800E900198E04407F00B
:100CAB00900197E04470F090017BE0FF900198E099
:100CBB00FD12176590017AE0FF900197E0FD021796
:100CCB00657F03E4FDFCEC7078ED14602114602F5C
:100CDB0014603D14604B1460592405706474822FAA
:100CEB00F582E43400F583E0900181F08053748247
:100CFB002FF582E43400F583E090017FF08042749D
:100D0B00822FF582E43400F583E090017EF0803190
:100D1B0074822FF582E43400F583E090017DF0803E
:100D2B002074822FF582E43400F583E0900182F089
:100D3B00800F74822FF582E43400F583E0900180FC
:100D4B00F00F0F0DBD00010CED64064C6003020C9F
:100D5B00D19001847401F01214C39001A27401F0BC
:100D6B0022C0E0C083C082C0D075D000C007900104
:100D7B00A4E004F070069001A3E004F09001A3E05E
:100D8B007004A3E0640F7011900185E0FFC3740140
:100D9B009FF09001A3E4F0A3F09001A6E004F070A3
:100DAB00069001A5E004F09001A5E07004A3E064B7
:100DBB0064700C9001A104F09001A5E4F0A3F090F5
:100DCB0001A8E004F070069001A7E004F09001A7E1
:100DDB00E07004A3E064327011900187E0FFC374EC
:100DEB00019FF09001A7E4F0A3F0D007D0D0D08200
:100DFB00D083D0E03290014D74DCF0A37410F0E49A
:100E0B00A3F0A3F0A3F0A37405F0A3740AF0E4A37A
:100E1B00F0900181E0900155F0E4A3F090017FE0A8
:100E2B00900157F0E4A3F090017EE0900159F0E4BB
:100E3B00A3F090017DE090015BF0E4A3F0900182C0
:100E4B00E090015DF07B017A01794D7D111211006B
:100E5B00AC06EC90015EF0A3EFF078017C007D0115
:100E6B007A01794D7E007F131205539001017413A3
:100E7B00F0D2847F027E001215F24384027F017E42
:100E8B00000215F2787FE4F6D8FD758135020ED697
:100E9B0002009EE493A3F8E493A34003F68001F2CF
:100EAB0008DFF48029E493A3F85407240CC8C33358
:100EBB00C4540F4420C8834004F456800146F6DF27
:100ECB00E4800B010204081020408090136FE47E35
:100EDB00019360BCA3FF543F30E509541FFEE4931C
:100EEB00A360010ECF54C025E060A840B8E493A3E3
:100EFB00FAE493A3F8E493A3C8C582C8CAC583CA0E
:100F0B00F0A3C8C582C8CAC583CADFE9DEE780BEC5
:100F1B00EF25E02414F582E43401F583E0FCA3E033
:100F2B00FDD39400EC9400404AED9403EC940050F4
:100F3B00037F0122EF25E02414F582E43401F583CD
:100F4B00E0FCA3E0FD64034C70037F0222C3ED942D
:100F5B0050EC940050037F0322EF25E02414F5821C
:100F6B00E43401F583E0FCA3E064504C7F0570246E
:100F7B007F04227E007401A807088005C333CE339B
:100F8B00CED8F9FF900120E05EFEA3E05F4E7F001C
:100F9B0060027F0622C0E0C083C082C0D075D00043
:100FAB00C007E58430E12A5384FD900101E0601A0B
:100FBB00A3E0FF04F074012FF582E43400F583E025
:100FCB00F585900101E014F08007900102E4F0C276
:100FDB0084E58430E0335384FE900000E070219070
:100FEB000105E0D394804002E4F0900105E02481F8
:100FFB00F582E43400F583E585F0900105E004F01B
:10100B00900103E4F0A37405F0D007D0D0D082D0C8
:10101B0083D0E032AD07900199E05430F0EFB40784
:10102B00005057901035F828287302104A021051BF
:10103B0002105A02106302106C02107502107E909F
:10104B000199E0F08034900199E04440F0802B90BE
:10105B000199E044C0F08022900199E044C8F080EF
:10106B0019900199E044CCF08010900199E044CEA6
:10107B00F08007900199E044CFF090017CE0FF9065
:10108B000199E0FD021765900000E064017065F0C6
:10109B007B017A007981900105E024FEFD1211009D
:1010AB00AD07AC06900105E0FB247FF582E434002C
:1010BB00F583E0FE74802BF582E43400F583E0FBCE
:1010CB00EBFFE4900105F0EDB50729ECB506259093
:1010DB000081E0B4DC1EA3E024FC600F24FE600E54
:1010EB0024F6600D240D700C020CCC021583021734
:1010FB00C312185622900160EDF074FFA3F0A3F019
:10110B00120579FF900161E0F0A3E06FF0E4FD9030
:10111B000161E0FEA3E0FF30E019EEC313FEEF1315
:10112B00FFEE64A0FEEF6401FF900161EEF0A3EF10
:10113B00F0800B900161E0C313F0A3E013F00DED11
:10114B00B408CC740129F9E43AFA900160E014F088
:10115B0070AEA3E0FEA3E0FF2290014D74DCF0A380
:10116B007406F0E4A3F0A37405F0E4A3F0900180FF
:10117B00E0900152F07B017A01794D7D061211004E
:10118B00AC06EC900153F0A3EFF078017C007D01ED
:10119B007A01794D7E007F08120553900101740886
:1011AB00F0D2847F027E001215F24384027F017E0F
:1011BB00000215F2C0E0C083C082C0D075D000C061
:1011CB0004C005C00790FB47E0FF30E604E0444055
:1011DB00F0EF30E729540FFF90FB47E04480F0908D
:1011EB00FB49E0FCA3E0FDEF25E0243AF582E43473
:1011FB0001F583ECF0A3EDF0EFB40502D209D007B3
:10120B00D005D004D0D0D082D083D0E032900180F2
:10121B00E0C39406500AE004F0E0B406037401F056
:10122B001214857F0112169E900180E0FF120B05B0
:10123B007FF47E011215F2121485E4FF12169E90B4
:10124B00017FE0FF12164A90017DE0FF120B059023
:10125B000181E0FF120C0290017EE0FF12101F7F54
:10126B00010216BA900187E0FF900175E06F6049AB
:10127B00900186E064017039EFB4010F900182E0B8
:10128B00FF120B057F011216828026121485E4FFD4
:10129B001216F2E4FF12170EE4FF1216D67F01129C
:1012AB001682E4FF12162EE4FF12101FE4FF120C3D
:1012BB0002900187E0900175F02290014D74DCF0F3
:1012CB00A37406F0E4A3F0A37404F0E4A3F0A30466
:1012DB00F0FB7A01794D7D06121100AC06EC900102
:1012EB0053F0A3EFF078017C007D017A01794D7EFC
:1012FB00007F081205539001017408F0D2847F021D
:10130B007E001215F24384027F017E000215F290DB
:10131B00014D74DCF0A37406F0E4A3F0A37403F0A6
:10132B00E4A3F0A304F0FB7A01794D7D06121100C2
:10133B00AC06EC900153F0A3EFF078017C007D013B
:10134B007A01794D7E007F081205539001017408D4
:10135B00F0D2847F027E001215F24384027F017E5D
:10136B00000215F2C18941010700410189004101C9
:10137B008A0041018B004101960041019700410118
:10138B00980041019900470176C3C6C7CACBCECF9F
:10139B004A018CF505D39727B6F615F7B7410175BA
:1013AB00004201A300004201A500004201A700007A
:1013BB0000900186E070447F011216D6900183E005
:1013CB006401600690017FE0702290017EE0D3946F
:1013DB00004015900185E0FF1216F2900185E0FFA9
:1013EB00C374019FFF12170E7F01800C7F01121631
:1013FB00F2E4FF12170EE4FF12162E22784D7C0139
:10140B007D017BFF7A1879797E007F08120553786E
:10141B00017C007D017B017A01794D7E007F0812F2
:10142B0005539001017408F0D2847F027E001215DF
:10143B00F24384027F017E000215F2784D7C017D20
:10144B00017BFF7A1879817E007F081205537801A2
:10145B007C007D017B017A01794D7E007F081205AE
:10146B00539001017408F0D2847F027E001215F2B2
:10147B004384027F017E000215F2E4FF121666E43C
:10148B00FF121682E4FF12164AE4FF1216BAE4FFAB
:10149B0012169EE490014DF090014DE0FFC39407AE
:1014AB00501574762FF582E43401F5831217619091
:1014BB00014DE004F080E12290017DE0FF120B056D
:1014CB0090017EE0FF12101F900181E0FF120C02D1
:1014DB0090017FE0FF12164A90017FE0B40104E413
:1014EB00FF80027F0112162E7F011216BAE4FF0253
:1014FB001682900186E0701290017DE0C3946450D7
:10150B0004E02405F090017D800F900182E0C394EC
:10151B00785003E004F0900182E0FF120B0522905B
:10152B000186E0701290017DE0D394054004E02425
:10153B00FBF090017D800F900182E0D39428400353
:10154B00E014F0900182E0FF120B052290014FEFA7
:10155B00F07F327E00121803C283E4FFC282900137
:10156B004FE0FE139281D282EEC313F00FEFB4085B
:10157B00EB7F327E000218037F03E4FDFCED70125B
:10158B00EC700F74822FF582E43400F583E0900148
:10159B0083F00F0F0DBD00010CED64014C70DE22CA
:1015AB00EF24FE601204701DC2C4C2B7C2A0C2A158
:1015BB00C2A2C2A3C2A422D2C4C2A2D2B7D2A0D208
:1015CB00A1D2A4D2A322759410E4F593F592759150
:1015DB003B75961FF59575B282F5B175B410F5B3E1
:1015EB0075CA0875C91022D3EF9400EE940040160B
:1015FB0000000075080B7509BED509FDD508FAEF7B
:10160B001F70E41E80E122C0E0C083C082309907C6
:10161B00C299900107E4F0309802C298D082D0832F
:10162B00D0E032900198E054F7F0EFB40104E044BD
:10163B0008F090017BE0FF900198E0FD02176590A8
:10164B000189E054EFF0EFB40104E04410F0900195
:10165B0076E0FF900189E0FD021765900189E05467
:10166B00DFF0EFB40104E04420F0900176E0FF904E
:10167B000189E0FD021765900189E054BFF0EFB4DA
:10168B000104E04440F0900176E0FF900189E0FD19
:10169B00021765900189E0547FF0EFB40104E04438
:1016AB0080F0900176E0FF900189E0FD02176590D4
:1016BB00018AE054F7F0EFB40104E04408F0900124
:1016CB0077E0FF90018AE0FD021765900199E054E5
:1016DB00DFF0EFB40104E04420F090017CE0FF90D8
:1016EB000199E0FD021765900198E054EFF0EFB41B
:1016FB000104E04410F090017BE0FF900198E0FDC5
:10170B00021765900199E054EFF0EFB40104E04447
:10171B0010F090017CE0FF900199E0FD02176590BD
:10172B000181E0B407057401F08006900181E004AB
:10173B00F0900181E0FF020C02D283D282D281E4CD
:10174B00FF121557D2837F44121557D2831214857B
:10175B0002000390017AE0FFE4FD90014EEDF012E0
:10176B00155790014EE0FF121557D2832253A23F1B
:10177B00759850438E01438E0475D7E875D6FF4399
:10178B008E1075A8102243BA04758410438440430D
:10179B00D12075D3E875D2FF43D18043AF1022E43B
:1017AB00900000F0900081F0900101F0F0A3F0A305
:1017BB00F0A3F0A3F0C28422900084E0B4050312DE
:1017CB001407900084E0B403069001A27401F02288
:1017DB0090017EE0C394065003E004F090017EE09C
:1017EB00FF02101F90017EE0D394004003E014F041
:1017FB0090017EE0FF02101FD3EF9400EE940040A7
:10180B000A000000EF1F70F01E80ED22438E805304
:10181B0089F0758ACD758CD4C28DD28CD2A92290C9
:10182B0001467401F0A3F0A3F0A3F0A3F0A3F02200
:10183B0053D1FDE4F5D575D4DC43D10843AF202259
:10184B008F99900107E070FA04F0229001A27401C5
:10185B00F0223D3D3D3D3D3D20636F64652073743B
:10186B00617274203D3D3D3D3D3D200D0A00DC0382
:0E187B000000000645D7DC04000000014723F2
:00000001FF
