:03000000020B18D8
:0C0B1800787FE4F6D8FD758121020B5FA8
:10006E00D3EF9400EE9400401600000075080B7557
:0F007E0009BED509FDD508FAEF1F70E41E80E119
:01008D002250
:10000E00D3EF9400EE9400400A000000EF1F70F052
:04001E001E80ED2231
:100F2700E4F594F593F59275913B75961FF59575D4
:100F3700B282F5B175B410F5B375CA0875C9102238
:100E73003D3D3D3D3D3D20636F646520737461726C
:100E830074203D3D3D3D3D3D200D0A003131310093
:100E930032323200333333003434340035353500E5
:040EA30036363600A9
:1008B10043BA80120F2712108A1210BC1210A31211
:1008C10010D21210E57F01120F011210561207BF4C
:1008D100D2AF7F01120F011210567F641206C47F3E
:1008E10005120CAA7F03120A55D200120F63D2001F
:1008F100120F7ED200120F99D200120FB4D2001241
:100901000FCFD200120FEAD200121005D20012103E
:1009110020D20012103B7BFF7A0E79731201011273
:100921000D811205BB7F02120BA4BF02097BFF7A66
:100931000E798F1201017F02120BA4BF02097BFF06
:100941007A0E79931201017F02120BA4BF02097B77
:10095100FF7A0E79971201017F02120BA4BF0209DF
:100961007BFF7A0E799B1201017F02120BA4BF0259
:10097100097BFF7A0E799F1201017F02120BA4BF3E
:0D098100029D7BFF7A0E79A3120101809286
:1010D200438E805389F0758ACD758CD4C28DD28CA3
:0310E200D2A9226E
:1010E50053D1FDE4F5D575D4DC43D10843AF2022B7
:10108A0053A23F759850438E01438E0475D7E87575
:09109A00D6FF438E1075A8102248
:1010BC0075841043844043D12075D3E875D2FF4327
:0610CC00D18043AF1022A9
:040E3900410107006C
:1010A300E4900000F0900081F0900101F0F0A3F0D3
:0910B300A3F0A3F0A3F0C2842213
:03009300020C2B31
:100C2B00C0E0C083C082C0D075D000C007E584305F
:100C3B00E12A5384FD900101E0601AA3E0FF04F068
:100C4B0074012FF582E43400F583E0F58590010102
:100C5B00E014F08007900102E4F0C284E58430E0F8
:100C6B00335384FE900000E07021900105E0D39493
:100C7B00804002E4F0900105E02481F582E4340029
:100C8B00F583E585F0900105E004F0900103E4F0B5
:0F0C9B00A37405F0D007D0D0D082D083D0E03240
:03000B00020026CA
:10002600C0E0C083C082C0D0900103E07002A3E0AC
:100036006024900104E024FFF0900103E034FFF017
:10004600E07002A3E0700F900105E0D39400400633
:0F0056009000007401F0D0D0D082D083D0E0327F
:03002300020F4782
:100F4700C0E0C083C082309907C299900107E4F0DE
:0C0F5700309802C298D082D083D0E032E3
:0B110D008F99900107E070FA04F022B7
:100E3D004101B9004101BA004101BB004101C600A9
:100E4D004101C7004101C8004101C9004701B2C3BA
:100E5D00C6C7CACBCECF4A01BCF505D39727B6F688
:030E6D0015F7B7BF
:10105600D283D282D281E4FF120ED5D2837F44128C
:0A1066000ED5D283120EA70200037C
:100F0100EF24FE601204701DC2C4C2B7C2A0C2A108
:100F1100C2A2C2A3C2A422C2C4C2A4D2B7D2A0D2C6
:060F2100A1D2A2D2A3221E
:100EA700E490018AF090018AE0FFC39407501E7412
:100EB700B22FF582E43401F583E0FF120ED5E4FF8B
:0D0EC700120ED5D28390018AE004F080D88D
:010ED40022FB
:080003007F93120ED5D2832277
:071070009001B6E0FFE4FD72
:1010770090018BEDF0120ED590018BE0FF120ED58B
:03108700D28322EF
:050ED50090018CEFF01C
:100EDA007F327E0012000EC283E4FFC28290018C30
:100EEA00E0FE139281D282EEC313F00FEFB408EB47
:070EFA007F327E0002000EB2
:0606C40090018AEFF0F93D
:1006CA00E0FF75F06484FDEF75F00A8475F00A8422
:1006DA00AFF0E975F00A84AEF09001C7E4F090013A
:1006EA00C6E4F09001BBE4F09001BAE4F09001C7CF
:1006FA00E0FC74BC2DF582E43401F583E0FBC454BC
:10070A000FFAEC4A9001C7F09001C6E04BF0900155
:10071A00BBE0FD74BC2FF582E43401F583E0FFED04
:10072A004F9001BBF09001BAE0FF74BC2EF582E451
:10073A003401F583E0FEEF4E9001BAF0E9C3940A62
:10074A00501A90018AE0C39400401112107090016F
:10075A00B51210739001B4E0FFE4804790018AE07B
:10076A00FFC39464501AEFC3940A40141210709095
:10077A0001B51210739001B4E0FF9001BBE0802331
:10078A009001B6E0FF9001C7E0FD1210779001B525
:10079A00E0FF9001C6E0FD1210779001B4E0FF90EF
:1007AA0001BBE0FD1210779001B3E0FF9001BAE0BF
:0407BA00FD121077A5
:0107BE002218
:100CAA00AD079001C9E05430F0EFB40700505790F7
:100CBA000CC0F8282873020CD5020CDC020CE502E1
:100CCA000CEE020CF7020D00020D099001C9E0F0CA
:100CDA0080349001C9E04440F0802B9001C9E0447F
:100CEA00C0F080229001C9E044C8F080199001C97F
:100CFA00E044CCF080109001C9E044CEF080079027
:100D0A0001C9E044CFF09001B8E0FF9001C9E0FDCD
:030D1A000210774D
:100A5500AD079001C8E05480F09001C7E4F0ED14B3
:100A6500B407004003020AFE900A7B75F003A4C593
:100A75008325F0C58373020A90020AA0020AB00218
:100A85000AC0020AD0020AE0020AF09001C8E04456
:100A950004F09001C7E04440F0805E9001C8E04456
:100AA50002F09001C7E04420F0804E9001C8E04478
:100AB50001F09001C7E04410F0803E9001C8E04489
:100AC50006F09001C7E04460F0802E9001C8E04434
:100AD50003F09001C7E04430F0801E9001C8E04467
:100AE50005F09001C7E04450F0800E9001C8E04445
:100AF50007F09001C7E04470F09001B7E0FF900166
:100B0500C8E0FD1210779001B6E0FF9001C7E0FD47
:030B150002107754
:100F63009001C8E054F7F0300004E04408F0900129
:0B0F7300B7E0FF9001C8E0FD0210771E
:100F7E009001B9E054EFF0300004E04410F090011D
:0B0F8E00B2E0FF9001B9E0FD02107717
:100F99009001B9E054DFF0300004E04420F0900102
:0B0FA900B2E0FF9001B9E0FD021077FC
:100FB4009001B9E054BFF0300004E04440F09001E7
:0B0FC400B2E0FF9001B9E0FD021077E1
:100FCF009001B9E0547FF0300004E04480F09001CC
:0B0FDF00B2E0FF9001B9E0FD021077C6
:100FEA009001BAE054F7F0300004E04408F09001B0
:0B0FFA00B3E0FF9001BAE0FD021077A9
:101005009001C9E054DFF0300004E04420F0900185
:0B101500B8E0FF9001C9E0FD02107779
:101020009001C8E054EFF0300004E04410F090016B
:0B103000B7E0FF9001C8E0FD02107760
:10103B009001C9E054EFF0300004E04410F090014F
:0B104B00B8E0FF9001C9E0FD02107743
:020E7000C18936
:1007BF00E490018BF090FB48F090FB40743FF09079
:1007CF00FB427473F0A37402F090FB4574A0F043E6
:1007DF00AF80F07F647E0012006EE490018AF0908B
:1007EF00018AE0FFC394105018EF25E0244AF582E8
:1007FF00E43401F583E4F0A3F090018AE004F08083
:10080F00DE90018BE0C39408504A30093EE490011A
:10081F008AF090018AE0FF25E0246AF582E4340132
:10082F00F583E0FCA3E0FDEF25E0244AF582E434F4
:10083F0001F583EC8DF012050A90018AE004F0E0D7
:10084F00B410CFC20990018BE004F07F327E00120A
:10085F00006E80ADE490018AF090018AE0FD25E002
:10086F00244AF582E43401F583C083C082E0FEA3FD
:10087F00E07803CEC313CE13D8F9FFD082D083EE26
:10088F00F0A3EFF0ED25E02408F582E43401F583C1
:10089F007405F0A374DCF090018AE004F0E0B4106A
:0108AF00B890
:0108B0002225
:1005BB00E490018AF0F090018AE0FFC394104003AD
:1005CB000206C3E0FE25E02408F582E43401F5833E
:1005DB00E0FCA3E0FDEE25E0244AF582E43401F5CE
:1005EB0083E0FAA3E0C39DFDEA9CFCEF25E0246ABF
:1005FB00F582E43401F583E0FEA3E0C39DEE9C504D
:10060B003E90018AE025E02428F582E43401F5834D
:10061B00E0FEA3E0FFE4FCFD7B607AEAF9F8D3127D
:10062B00052050030206BA90018AE025E02428F544
:10063B0082E43401F583E475F00112050A807090B1
:10064B00018AE0FF25E02428F582E43401F583E0FC
:10065B00FCA3E0D39400EC9400401D7E007401A831
:10066B0007088005C333CE33CED8F9FF900148E09D
:10067B004EF0A3E04FF0802490018AE0FF7E0074DF
:10068B0001A807088005C333CE33CED8F9F4FFEEAB
:10069B00F4FE900148E05EF0A3E05FF090018AE089
:1006AB0025E02428F582E43401F583E4F0A3F090EF
:0806BB00018AE004F00205C110
:0106C3002214
:100BA400EF25E02428F582E43401F583E0FCA3E09A
:100BB400FDD39400EC9400404BED9403EC9400506E
:100BC400037F0122EF25E02428F582E43401F58334
:100BD400E0FCA3E0FD64034C70037F0222C3ED94A8
:100BE40096EC940050037F0322EF25E02428F5823D
:100BF400E43401F583E0FCA3E064964C70037F04C5
:100C0400227F05227E007401A807088005C333CE25
:100C140033CED8F9FF900148E05EFEA3E05F4E605A
:070C2400037F06227F00227E
:03006B00020DE0A3
:100DE000C0E0C083C082C0D075D000C004C005C0C0
:010DF00007FB
:100DF10090FB47E0FF30E604E04440F0EF30E729A4
:100E0100540FFF90FB47E04480F090FB49E0FCA3C6
:100E1100E0FDEF25E0246AF582E43401F583ECF08E
:090E2100A3EDF0EFB40502D209C3
:0F0E2A00D007D005D004D0D0D082D083D0E03212
:100D8100900000E064017056F07B017A0079819057
:100D91000105E024FEFD120D1DAD07AC0690010515
:100DA100E0FB247FF582E43400F583E0FE74802BC0
:100DB100F582E43400F583E0FBEBFFE4900105F0FC
:100DC100EDB5071AECB50616900081E0B4DC0FA36F
:0E0DD100E024FC60060470060210F512110109
:010DDF0022F1
:0B10F5007F03E4FE0F0F0EEEB406F9BF
:0111000022CC
:0B1101007F03E4FE0F0F0EEEB405F9B3
:01110C0022C0
:05098E009001D1EDF025
:10099300EF24FC600F24FE604F24F66064240D6096
:1009A30003020A427B017A0079019001D1E0FD1232
:1009B3000D1D9001D2EEF0A3EFF09001D2E0FEA363
:1009C300E0FD9001D1E0FC2402F582E43400F583DC
:1009D300EDF0EEFF74012CF582E43400F583EFF0C3
:1009E3009001D1E02402805378017C007D017B01DA
:1009F3007A0079817E007F081204CB9001D1E080D8
:100A03003A78017C007D017B017A0079817E007F49
:100A1300061204CB7B017A0079017D06120D1D902D
:100A230001D2EEF0A3EFF09001D2E0FEA3E090003C
:100A330008F0EE900007F09001D1E0900101F0D2B0
:100A4300847F027E0012006E4384027F017E0002D7
:020A5300006E33
:050D1D0090018AEDF0D9
:100D220074FFA3F0A3F01204F1FF90018BE0F0A393
:100D3200E06FF0E4FD90018BE0FEA3E0FF30E019EC
:100D4200EEC313FEEF13FFEE64A0FEEF6401FF900B
:100D5200018BEEF0A3EFF0800B90018BE0C313F058
:100D6200A3E013F00DEDB408CC740129F9E43AFACA
:0E0D720090018AE014F070AEA3E0FEA3E0FF53
:010D80002250
:100B24000208B1E493A3F8E493A34003F68001F22E
:100B340008DFF48029E493A3F85407240CC8C333D2
:100B4400C4540F4420C8834004F456800146F6DFA1
:100B5400E4800B0102040810204080900E39E47EEA
:100B6400019360BCA3FF543F30E509541FFEE49396
:100B7400A360010ECF54C025E060A840B8E493A35D
:100B8400FAE493A3F8E493A3C8C582C8CAC583CA88
:100B9400F0A3C8C582C8CAC583CADFE9DEE780BE40
:010E7200007F
:1003FB00E709F608DFFA8046E709F208DFFA803EE4
:10040B0088828C83E709F0A3DFFA8032E309F608D0
:10041B00DFFA8078E309F208DFFA807088828C8338
:10042B00E309F0A3DFFA806489828A83E0A3F608EC
:10043B00DFFA805889828A83E0A3F208DFFA804CC6
:10044B0080D280FA80C680D4806980F2803380109D
:10045B0080A680EA809A80A880DA80E280CA803306
:10046B0089828A83ECFAE493A3C8C582C8CCC5837E
:10047B00CCF0A3C8C582C8CCC583CCDFE9DEE7804E
:10048B000D89828A83E493A3F608DFF9ECFAA9F0CD
:10049B00EDFB2289828A83ECFAE0A3C8C582C8CC23
:1004AB00C583CCF0A3C8C582C8CCC583CCDFEADE3C
:1004BB00E880DB89828A83E493A3F208DFF980CC9E
:1004CB0088F0EF60010E4E60C388F0ED2402B40497
:1004DB000050B9F582EB2402B4040050AF2323453E
:0604EB00822390044B7314
:1004F100BB010689828A83E0225002E722BBFE0209
:09050100E32289828A83E493223B
:10050A00C5F0F8A3E028F0C5F0F8E582158270027C
:06051A001583E038F02219
:10052000EB9FF5F0EA9E42F0E99D42F0EC6480C852
:0605300064809845F022F2
:10009600E508248DF582E43401F583E00508229015
:1000A600018A30070390018DE475F001120575028F
:1000B60004F12000E97F2ED2008018EF540F24901F
:1000C600D43440D4FF30040BEF24BFB41A005003DD
:1000D6002461FFE50960021509050CE50C700205AF
:1000E6000B30070E90018AE475F001120575EF02D8
:1000F600056302110D7403D2078003E4C207F508F5
:1001060090018A12058CE4F509F50BF50CE50960FA
:10011600077F201200D980F5750AFFC201C200C20E
:1001260002C203C205C206C2081200A5FF700D3046
:1001360007057F001200EAAF0CAE0B22B4255FC2A2
:10014600D5C2041200A5FF24D0B40A00501A75F0D7
:100156000A780930D50508B6FF0106C6A426F6209A
:10016600D5047002D20380D924CFB41A00EF50040C
:10017600C2E5D2040202EBD20180C6D20080C0D210
:100186000280BCD2D580BAD20580B47F201200D9B5
:100196002002077401B5090040F1120096FF120013
:1001A600D9020113D208D2068095120096FB1200DE
:1001B60096FA120096F94A4B700679BC7A037BFFD1
:1001C60020022EE509602A7E008E827583001205C4
:1001D6003660060EEE650A70F0C2D5EBC0E0EAC0E6
:1001E600E0E9C0E0EE120332D0E0F9D0E0FAD0E068
:1001F600FB1204F1FF60AAEBC0E0EAC0E0E9C0E050
:100206001200D9D0E02401F9D0E03400FAD0E0FBA6
:10021600E50A0460DCD50AD980877BFF7A03792E4C
:10022600D202809C791080027908C206C208800832
:10023600D2D5790A8004790AC2D5E50A047002F596
:100246000AE4FAFDFEFF120096FC7B082001131259
:100256000096FD7B1030000A120096FE120096FFF3
:100266007B20EC3382D592D55013C3E43000069F31
:10027600FFE49EFEE42001039DFDE49CFCE4CBF834
:10028600C201EC700CCFCECDCCE824F8F870F38028
:1002960017C3EF33FFEE33FEED33FDEC33FCEB33E8
:1002A600FB994002FB0FD8E9EB300105F8D0E0C41A
:1002B60048B201C0E00AEC4D4E4F78207B0070C278
:1002C600EAB50A0040BCC0E0120334D0F0D0E0200A
:1002D6000104C4C0E0C4B201C0F01200C2D0F0D51F
:1002E600F0EB02011312059501B053022A58018161
:1002F6004C017D42022E4F02364402364901964396
:08030600023C550220460220D2
:10030E004502204703DC5001852D01892E01AC2BBF
:10031E00018D2301AA2003C52A014548000001A42E
:10032E003F3F3F00790AA2D5200314300509B910CA
:10033E00020404B9080104A2D520060250010420CB
:10034E0002689202B509005034C0E07F20300319D4
:10035E007F30A20272067205500F12038BC202C2C8
:10036E0006C205C2087F30800F300503E9C0E012D7
:10037E0000D9300503D0E0F9D0E0B509CC3005172F
:10038E007F30B9100C1200D97F583004077F788067
:10039E0003B908031200D93002057F2D0200D97F60
:1003AE00202008F87F2B2006F322920280CF286EA1
:1003BE00756C6C2900D2011200963001F8C20178DA
:1003CE000930D50108F60201452D50434958120057
:1003DE00962403B405004001E49003D7931200CA9B
:0D03EE00743A1200CAD20375090402022AF3
:10053600BB010CE58229F582E5833AF583E022507A
:1005460006E92582F8E622BBFE06E92582F8E222C4
:0D055600E58229F582E5833AF583E49322DE
:10056300BB010689828A83F0225002F722BBFE0177
:02057300F32271
:10057500F8E0FBA3A3E0F925F0F0E582158270020F
:070585001583E0FA38F022B3
:09058C00EBF0A3EAF0A3E9F02270
:10059500D083D082F8E4937012740193700DA3A3F5
:1005A50093F8740193F5828883E473740293686009
:0605B500EFA3A3A380DF09
:00000001FF
